{
  "_format": "hh-sol-artifact-1",
  "contractName": "GoldenUruks",
  "sourceName": "contracts/UrukERC20.sol",
  "abi": [
    {
      "inputs": [],
      "stateMutability": "nonpayable",
      "type": "constructor"
    },
    {
      "anonymous": false,
      "inputs": [
        {
          "indexed": false,
          "internalType": "address",
          "name": "previousAdmin",
          "type": "address"
        },
        {
          "indexed": false,
          "internalType": "address",
          "name": "newAdmin",
          "type": "address"
        }
      ],
      "name": "AdminChanged",
      "type": "event"
    },
    {
      "anonymous": false,
      "inputs": [
        {
          "indexed": true,
          "internalType": "address",
          "name": "owner",
          "type": "address"
        },
        {
          "indexed": true,
          "internalType": "address",
          "name": "spender",
          "type": "address"
        },
        {
          "indexed": false,
          "internalType": "uint256",
          "name": "value",
          "type": "uint256"
        }
      ],
      "name": "Approval",
      "type": "event"
    },
    {
      "anonymous": false,
      "inputs": [
        {
          "indexed": true,
          "internalType": "address",
          "name": "beacon",
          "type": "address"
        }
      ],
      "name": "BeaconUpgraded",
      "type": "event"
    },
    {
      "anonymous": false,
      "inputs": [
        {
          "indexed": true,
          "internalType": "address",
          "name": "user",
          "type": "address"
        },
        {
          "indexed": false,
          "internalType": "uint256",
          "name": "amount",
          "type": "uint256"
        }
      ],
      "name": "CoinsExported",
      "type": "event"
    },
    {
      "anonymous": false,
      "inputs": [
        {
          "indexed": true,
          "internalType": "address",
          "name": "user",
          "type": "address"
        },
        {
          "indexed": false,
          "internalType": "uint256",
          "name": "amount",
          "type": "uint256"
        }
      ],
      "name": "CoinsImported",
      "type": "event"
    },
    {
      "anonymous": false,
      "inputs": [
        {
          "indexed": false,
          "internalType": "uint8",
          "name": "version",
          "type": "uint8"
        }
      ],
      "name": "Initialized",
      "type": "event"
    },
    {
      "anonymous": false,
      "inputs": [
        {
          "indexed": true,
          "internalType": "address",
          "name": "previousOwner",
          "type": "address"
        },
        {
          "indexed": true,
          "internalType": "address",
          "name": "newOwner",
          "type": "address"
        }
      ],
      "name": "OwnershipTransferred",
      "type": "event"
    },
    {
      "anonymous": false,
      "inputs": [
        {
          "indexed": false,
          "internalType": "address",
          "name": "account",
          "type": "address"
        }
      ],
      "name": "Paused",
      "type": "event"
    },
    {
      "anonymous": false,
      "inputs": [
        {
          "indexed": true,
          "internalType": "address",
          "name": "from",
          "type": "address"
        },
        {
          "indexed": true,
          "internalType": "address",
          "name": "to",
          "type": "address"
        },
        {
          "indexed": false,
          "internalType": "uint256",
          "name": "value",
          "type": "uint256"
        }
      ],
      "name": "Transfer",
      "type": "event"
    },
    {
      "anonymous": false,
      "inputs": [
        {
          "indexed": false,
          "internalType": "address",
          "name": "account",
          "type": "address"
        }
      ],
      "name": "Unpaused",
      "type": "event"
    },
    {
      "anonymous": false,
      "inputs": [
        {
          "indexed": true,
          "internalType": "address",
          "name": "implementation",
          "type": "address"
        }
      ],
      "name": "Upgraded",
      "type": "event"
    },
    {
      "inputs": [
        {
          "internalType": "uint256",
          "name": "amountCoins",
          "type": "uint256"
        },
        {
          "internalType": "address",
          "name": "walletAddress",
          "type": "address"
        }
      ],
      "name": "allowCoinsToBeExported",
      "outputs": [],
      "stateMutability": "nonpayable",
      "type": "function"
    },
    {
      "inputs": [
        {
          "internalType": "address",
          "name": "owner",
          "type": "address"
        },
        {
          "internalType": "address",
          "name": "spender",
          "type": "address"
        }
      ],
      "name": "allowance",
      "outputs": [
        {
          "internalType": "uint256",
          "name": "",
          "type": "uint256"
        }
      ],
      "stateMutability": "view",
      "type": "function"
    },
    {
      "inputs": [
        {
          "internalType": "address",
          "name": "",
          "type": "address"
        }
      ],
      "name": "allowedAmountToExport",
      "outputs": [
        {
          "internalType": "uint256",
          "name": "",
          "type": "uint256"
        }
      ],
      "stateMutability": "view",
      "type": "function"
    },
    {
      "inputs": [
        {
          "internalType": "address",
          "name": "spender",
          "type": "address"
        },
        {
          "internalType": "uint256",
          "name": "amount",
          "type": "uint256"
        }
      ],
      "name": "approve",
      "outputs": [
        {
          "internalType": "bool",
          "name": "",
          "type": "bool"
        }
      ],
      "stateMutability": "nonpayable",
      "type": "function"
    },
    {
      "inputs": [
        {
          "internalType": "address",
          "name": "account",
          "type": "address"
        }
      ],
      "name": "balanceOf",
      "outputs": [
        {
          "internalType": "uint256",
          "name": "",
          "type": "uint256"
        }
      ],
      "stateMutability": "view",
      "type": "function"
    },
    {
      "inputs": [
        {
          "internalType": "uint256",
          "name": "amount",
          "type": "uint256"
        }
      ],
      "name": "burn",
      "outputs": [],
      "stateMutability": "nonpayable",
      "type": "function"
    },
    {
      "inputs": [
        {
          "internalType": "address",
          "name": "account",
          "type": "address"
        },
        {
          "internalType": "uint256",
          "name": "amount",
          "type": "uint256"
        }
      ],
      "name": "burnFrom",
      "outputs": [],
      "stateMutability": "nonpayable",
      "type": "function"
    },
    {
      "inputs": [],
      "name": "decimals",
      "outputs": [
        {
          "internalType": "uint8",
          "name": "",
          "type": "uint8"
        }
      ],
      "stateMutability": "view",
      "type": "function"
    },
    {
      "inputs": [
        {
          "internalType": "address",
          "name": "spender",
          "type": "address"
        },
        {
          "internalType": "uint256",
          "name": "subtractedValue",
          "type": "uint256"
        }
      ],
      "name": "decreaseAllowance",
      "outputs": [
        {
          "internalType": "bool",
          "name": "",
          "type": "bool"
        }
      ],
      "stateMutability": "nonpayable",
      "type": "function"
    },
    {
      "inputs": [
        {
          "internalType": "uint256",
          "name": "amountToExport",
          "type": "uint256"
        }
      ],
      "name": "exportCoins",
      "outputs": [],
      "stateMutability": "nonpayable",
      "type": "function"
    },
    {
      "inputs": [
        {
          "internalType": "address",
          "name": "walletAddress",
          "type": "address"
        }
      ],
      "name": "getCoinsAmountWhitelisted",
      "outputs": [
        {
          "internalType": "uint256",
          "name": "",
          "type": "uint256"
        }
      ],
      "stateMutability": "view",
      "type": "function"
    },
    {
      "inputs": [
        {
          "internalType": "uint256",
          "name": "amount",
          "type": "uint256"
        }
      ],
      "name": "importCoins",
      "outputs": [],
      "stateMutability": "nonpayable",
      "type": "function"
    },
    {
      "inputs": [
        {
          "internalType": "address",
          "name": "spender",
          "type": "address"
        },
        {
          "internalType": "uint256",
          "name": "addedValue",
          "type": "uint256"
        }
      ],
      "name": "increaseAllowance",
      "outputs": [
        {
          "internalType": "bool",
          "name": "",
          "type": "bool"
        }
      ],
      "stateMutability": "nonpayable",
      "type": "function"
    },
    {
      "inputs": [],
      "name": "initialize",
      "outputs": [],
      "stateMutability": "nonpayable",
      "type": "function"
    },
    {
      "inputs": [
        {
          "internalType": "address",
          "name": "to",
          "type": "address"
        },
        {
          "internalType": "uint256",
          "name": "amount",
          "type": "uint256"
        }
      ],
      "name": "mint",
      "outputs": [],
      "stateMutability": "nonpayable",
      "type": "function"
    },
    {
      "inputs": [],
      "name": "name",
      "outputs": [
        {
          "internalType": "string",
          "name": "",
          "type": "string"
        }
      ],
      "stateMutability": "view",
      "type": "function"
    },
    {
      "inputs": [],
      "name": "owner",
      "outputs": [
        {
          "internalType": "address",
          "name": "",
          "type": "address"
        }
      ],
      "stateMutability": "view",
      "type": "function"
    },
    {
      "inputs": [],
      "name": "pause",
      "outputs": [],
      "stateMutability": "nonpayable",
      "type": "function"
    },
    {
      "inputs": [],
      "name": "paused",
      "outputs": [
        {
          "internalType": "bool",
          "name": "",
          "type": "bool"
        }
      ],
      "stateMutability": "view",
      "type": "function"
    },
    {
      "inputs": [],
      "name": "proxiableUUID",
      "outputs": [
        {
          "internalType": "bytes32",
          "name": "",
          "type": "bytes32"
        }
      ],
      "stateMutability": "view",
      "type": "function"
    },
    {
      "inputs": [],
      "name": "renounceOwnership",
      "outputs": [],
      "stateMutability": "nonpayable",
      "type": "function"
    },
    {
      "inputs": [],
      "name": "symbol",
      "outputs": [
        {
          "internalType": "string",
          "name": "",
          "type": "string"
        }
      ],
      "stateMutability": "view",
      "type": "function"
    },
    {
      "inputs": [],
      "name": "totalSupply",
      "outputs": [
        {
          "internalType": "uint256",
          "name": "",
          "type": "uint256"
        }
      ],
      "stateMutability": "view",
      "type": "function"
    },
    {
      "inputs": [
        {
          "internalType": "address",
          "name": "to",
          "type": "address"
        },
        {
          "internalType": "uint256",
          "name": "amount",
          "type": "uint256"
        }
      ],
      "name": "transfer",
      "outputs": [
        {
          "internalType": "bool",
          "name": "",
          "type": "bool"
        }
      ],
      "stateMutability": "nonpayable",
      "type": "function"
    },
    {
      "inputs": [
        {
          "internalType": "address",
          "name": "from",
          "type": "address"
        },
        {
          "internalType": "address",
          "name": "to",
          "type": "address"
        },
        {
          "internalType": "uint256",
          "name": "amount",
          "type": "uint256"
        }
      ],
      "name": "transferFrom",
      "outputs": [
        {
          "internalType": "bool",
          "name": "",
          "type": "bool"
        }
      ],
      "stateMutability": "nonpayable",
      "type": "function"
    },
    {
      "inputs": [
        {
          "internalType": "address",
          "name": "newOwner",
          "type": "address"
        }
      ],
      "name": "transferOwnership",
      "outputs": [],
      "stateMutability": "nonpayable",
      "type": "function"
    },
    {
      "inputs": [],
      "name": "unpause",
      "outputs": [],
      "stateMutability": "nonpayable",
      "type": "function"
    },
    {
      "inputs": [
        {
          "internalType": "address",
          "name": "newImplementation",
          "type": "address"
        }
      ],
      "name": "upgradeTo",
      "outputs": [],
      "stateMutability": "nonpayable",
      "type": "function"
    },
    {
      "inputs": [
        {
          "internalType": "address",
          "name": "newImplementation",
          "type": "address"
        },
        {
          "internalType": "bytes",
          "name": "data",
          "type": "bytes"
        }
      ],
      "name": "upgradeToAndCall",
      "outputs": [],
      "stateMutability": "payable",
      "type": "function"
    },
    {
      "inputs": [],
      "name": "version",
      "outputs": [
        {
          "internalType": "string",
          "name": "",
          "type": "string"
        }
      ],
      "stateMutability": "pure",
      "type": "function"
    }
  ],
  "bytecode": "0x60a06040523060805234801561001457600080fd5b5061001d610022565b6100e1565b600054610100900460ff161561008e5760405162461bcd60e51b815260206004820152602760248201527f496e697469616c697a61626c653a20636f6e747261637420697320696e697469604482015266616c697a696e6760c81b606482015260840160405180910390fd5b60005460ff908116146100df576000805460ff191660ff9081179091556040519081527f7f26b83ff96e1f2b6a682f133852f6798a09c465da95921460cefb38474024989060200160405180910390a15b565b6080516124b962000119600039600081816107d10152818161085601528181610a6a01528181610aef0152610bd501526124b96000f3fe6080604052600436106101cd5760003560e01c80635c975abb116100f75780638da5cb5b11610095578063a9059cbb11610064578063a9059cbb1461052e578063b56c74fa1461054e578063dd62ed3e1461057c578063f2fde38b146105c257600080fd5b80638da5cb5b146104b157806395d89b41146104d9578063a457c2d7146104ee578063a7812f581461050e57600080fd5b8063715018a6116100d1578063715018a61461045257806379cc6790146104675780638129fc1c146104875780638456cb591461049c57600080fd5b80635c975abb146103cd57806360d559d3146103e557806370a082311461041c57600080fd5b8063395093511161016f57806342966c681161013e57806342966c681461033f5780634f1ef2861461035f57806352d1902d1461037257806354fd4d501461038757600080fd5b806339509351146102ca5780633f4ba83a146102ea578063405c2705146102ff57806340c10f191461031f57600080fd5b806323b872dd116101ab57806323b872dd1461024c57806323cbb60d1461026c578063313ce5671461028e5780633659cfe6146102aa57600080fd5b806306fdde03146101d2578063095ea7b3146101fd57806318160ddd1461022d575b600080fd5b3480156101de57600080fd5b506101e76105e2565b6040516101f4919061208c565b60405180910390f35b34801561020957600080fd5b5061021d6102183660046120db565b610674565b60405190151581526020016101f4565b34801561023957600080fd5b506035545b6040519081526020016101f4565b34801561025857600080fd5b5061021d610267366004612105565b61068e565b34801561027857600080fd5b5061028c610287366004612141565b6106b2565b005b34801561029a57600080fd5b50604051601281526020016101f4565b3480156102b657600080fd5b5061028c6102c536600461215a565b6107c7565b3480156102d657600080fd5b5061021d6102e53660046120db565b61093f565b3480156102f657600080fd5b5061028c61097e565b34801561030b57600080fd5b5061028c61031a366004612141565b610990565b34801561032b57600080fd5b5061028c61033a3660046120db565b610a40565b34801561034b57600080fd5b5061028c61035a366004612141565b610a56565b61028c61036d36600461218b565b610a60565b34801561037e57600080fd5b5061023e610bc8565b34801561039357600080fd5b5060408051808201909152600581527f312e302e3000000000000000000000000000000000000000000000000000000060208201526101e7565b3480156103d957600080fd5b5060975460ff1661021d565b3480156103f157600080fd5b5061023e61040036600461215a565b6001600160a01b031660009081526101c4602052604090205490565b34801561042857600080fd5b5061023e61043736600461215a565b6001600160a01b031660009081526033602052604090205490565b34801561045e57600080fd5b5061028c610c8d565b34801561047357600080fd5b5061028c6104823660046120db565b610c9f565b34801561049357600080fd5b5061028c610cb4565b3480156104a857600080fd5b5061028c610e7f565b3480156104bd57600080fd5b5060fb546040516001600160a01b0390911681526020016101f4565b3480156104e557600080fd5b506101e7610e8f565b3480156104fa57600080fd5b5061021d6105093660046120db565b610e9e565b34801561051a57600080fd5b5061028c61052936600461224d565b610f48565b34801561053a57600080fd5b5061021d6105493660046120db565b610f6b565b34801561055a57600080fd5b5061023e61056936600461215a565b6101c46020526000908152604090205481565b34801561058857600080fd5b5061023e610597366004612279565b6001600160a01b03918216600090815260346020908152604080832093909416825291909152205490565b3480156105ce57600080fd5b5061028c6105dd36600461215a565b610f79565b6060603680546105f1906122a3565b80601f016020809104026020016040519081016040528092919081815260200182805461061d906122a3565b801561066a5780601f1061063f5761010080835404028352916020019161066a565b820191906000526020600020905b81548152906001019060200180831161064d57829003601f168201915b5050505050905090565b600033610682818585611006565b60019150505b92915050565b60003361069c85828561115e565b6106a78585856111f0565b506001949350505050565b6106ba6113ef565b3360009081526101c46020526040902054811115600181146107495760405162461bcd60e51b815260206004820152603960248201527f596f7520646f206e6f742068617665207065726d697373696f6e20746f20657860448201527f706f7274207468697320616d6f756e74206f6620636f696e730000000000000060648201526084015b60405180910390fd5b3360009081526101c460205260409020546107659083906122f3565b3360008181526101c46020526040902091909155610783908361144a565b60405182815233907f26b0a5eb8007e0d56b1f95f40a6e83c78009c73228757695c52e79c269bb66d99060200160405180910390a2506107c4600161019155565b50565b6001600160a01b037f00000000000000000000000000000000000000000000000000000000000000001630036108545760405162461bcd60e51b815260206004820152602c60248201527f46756e6374696f6e206d7573742062652063616c6c6564207468726f7567682060448201526b19195b1959d85d1958d85b1b60a21b6064820152608401610740565b7f00000000000000000000000000000000000000000000000000000000000000006001600160a01b03166108af7f360894a13ba1a3210667c828492db98dca3e2076cc3735a920a3ca505d382bbc546001600160a01b031690565b6001600160a01b03161461091a5760405162461bcd60e51b815260206004820152602c60248201527f46756e6374696f6e206d7573742062652063616c6c6564207468726f7567682060448201526b6163746976652070726f787960a01b6064820152608401610740565b61092381611517565b604080516000808252602082019092526107c49183919061151f565b3360008181526034602090815260408083206001600160a01b03871684529091528120549091906106829082908690610979908790612306565b611006565b6109866116c4565b61098e61171e565b565b6109986113ef565b336000908152603360205260409020548111156109f75760405162461bcd60e51b815260206004820152601d60248201527f596f7520646f206e6f74206861766520656e6f75676820636f696e73210000006044820152606401610740565b610a0081610a56565b60405181815233907f1a6b4d4cca1d97e2294a9692b77d28b922bb5e20af563d573ee2449b1aa85ad79060200160405180910390a26107c4600161019155565b610a486116c4565b610a52828261144a565b5050565b6107c43382611770565b6001600160a01b037f0000000000000000000000000000000000000000000000000000000000000000163003610aed5760405162461bcd60e51b815260206004820152602c60248201527f46756e6374696f6e206d7573742062652063616c6c6564207468726f7567682060448201526b19195b1959d85d1958d85b1b60a21b6064820152608401610740565b7f00000000000000000000000000000000000000000000000000000000000000006001600160a01b0316610b487f360894a13ba1a3210667c828492db98dca3e2076cc3735a920a3ca505d382bbc546001600160a01b031690565b6001600160a01b031614610bb35760405162461bcd60e51b815260206004820152602c60248201527f46756e6374696f6e206d7573742062652063616c6c6564207468726f7567682060448201526b6163746976652070726f787960a01b6064820152608401610740565b610bbc82611517565b610a528282600161151f565b6000306001600160a01b037f00000000000000000000000000000000000000000000000000000000000000001614610c685760405162461bcd60e51b815260206004820152603860248201527f555550535570677261646561626c653a206d757374206e6f742062652063616c60448201527f6c6564207468726f7567682064656c656761746563616c6c00000000000000006064820152608401610740565b507f360894a13ba1a3210667c828492db98dca3e2076cc3735a920a3ca505d382bbc90565b610c956116c4565b61098e60006118e7565b610caa82338361115e565b610a528282611770565b600054610100900460ff1615808015610cd45750600054600160ff909116105b80610cee5750303b158015610cee575060005460ff166001145b610d605760405162461bcd60e51b815260206004820152602e60248201527f496e697469616c697a61626c653a20636f6e747261637420697320616c72656160448201527f647920696e697469616c697a65640000000000000000000000000000000000006064820152608401610740565b6000805460ff191660011790558015610d83576000805461ff0019166101001790555b610df76040518060400160405280600c81526020017f476f6c64656e205572756b7300000000000000000000000000000000000000008152506040518060400160405280600481526020017f5552554b00000000000000000000000000000000000000000000000000000000815250611946565b610dff6119bb565b610e07611a26565b610e0f611a99565b610e176119bb565b6101c3805473ffffffffffffffffffffffffffffffffffffffff19163317905580156107c4576000805461ff0019169055604051600181527f7f26b83ff96e1f2b6a682f133852f6798a09c465da95921460cefb38474024989060200160405180910390a150565b610e876116c4565b61098e611b0c565b6060603780546105f1906122a3565b3360008181526034602090815260408083206001600160a01b038716845290915281205490919083811015610f3b5760405162461bcd60e51b815260206004820152602560248201527f45524332303a2064656372656173656420616c6c6f77616e63652062656c6f7760448201527f207a65726f0000000000000000000000000000000000000000000000000000006064820152608401610740565b6106a78286868403611006565b610f506116c4565b6001600160a01b031660009081526101c46020526040902055565b6000336106828185856111f0565b610f816116c4565b6001600160a01b038116610ffd5760405162461bcd60e51b815260206004820152602660248201527f4f776e61626c653a206e6577206f776e657220697320746865207a65726f206160448201527f64647265737300000000000000000000000000000000000000000000000000006064820152608401610740565b6107c4816118e7565b6001600160a01b0383166110815760405162461bcd60e51b8152602060048201526024808201527f45524332303a20617070726f76652066726f6d20746865207a65726f2061646460448201527f72657373000000000000000000000000000000000000000000000000000000006064820152608401610740565b6001600160a01b0382166110fd5760405162461bcd60e51b815260206004820152602260248201527f45524332303a20617070726f766520746f20746865207a65726f20616464726560448201527f73730000000000000000000000000000000000000000000000000000000000006064820152608401610740565b6001600160a01b0383811660008181526034602090815260408083209487168084529482529182902085905590518481527f8c5be1e5ebec7d5bd14f71427d1e84f3dd0314c0f7b2291e5b200ac8c7c3b925910160405180910390a3505050565b6001600160a01b0383811660009081526034602090815260408083209386168352929052205460001981146111ea57818110156111dd5760405162461bcd60e51b815260206004820152601d60248201527f45524332303a20696e73756666696369656e7420616c6c6f77616e63650000006044820152606401610740565b6111ea8484848403611006565b50505050565b6001600160a01b03831661126c5760405162461bcd60e51b815260206004820152602560248201527f45524332303a207472616e736665722066726f6d20746865207a65726f20616460448201527f64726573730000000000000000000000000000000000000000000000000000006064820152608401610740565b6001600160a01b0382166112e85760405162461bcd60e51b815260206004820152602360248201527f45524332303a207472616e7366657220746f20746865207a65726f206164647260448201527f65737300000000000000000000000000000000000000000000000000000000006064820152608401610740565b6112f3838383611b49565b6001600160a01b038316600090815260336020526040902054818110156113825760405162461bcd60e51b815260206004820152602660248201527f45524332303a207472616e7366657220616d6f756e742065786365656473206260448201527f616c616e636500000000000000000000000000000000000000000000000000006064820152608401610740565b6001600160a01b0380851660008181526033602052604080822086860390559286168082529083902080548601905591517fddf252ad1be2c89b69c2b068fc378daa952ba7f163c4a11628f55a4df523b3ef906113e29086815260200190565b60405180910390a36111ea565b600261019154036114425760405162461bcd60e51b815260206004820152601f60248201527f5265656e7472616e637947756172643a207265656e7472616e742063616c6c006044820152606401610740565b600261019155565b6001600160a01b0382166114a05760405162461bcd60e51b815260206004820152601f60248201527f45524332303a206d696e7420746f20746865207a65726f2061646472657373006044820152606401610740565b6114ac60008383611b49565b80603560008282546114be9190612306565b90915550506001600160a01b0382166000818152603360209081526040808320805486019055518481527fddf252ad1be2c89b69c2b068fc378daa952ba7f163c4a11628f55a4df523b3ef910160405180910390a35050565b6107c46116c4565b7f4910fdfa16fed3260ed0e7147f7cc6da11a60208b5b9406d12a635614ffd91435460ff16156115575761155283611b5c565b505050565b826001600160a01b03166352d1902d6040518163ffffffff1660e01b8152600401602060405180830381865afa9250505080156115b1575060408051601f3d908101601f191682019092526115ae91810190612319565b60015b6116235760405162461bcd60e51b815260206004820152602e60248201527f45524331393637557067726164653a206e657720696d706c656d656e7461746960448201527f6f6e206973206e6f7420555550530000000000000000000000000000000000006064820152608401610740565b7f360894a13ba1a3210667c828492db98dca3e2076cc3735a920a3ca505d382bbc81146116b85760405162461bcd60e51b815260206004820152602960248201527f45524331393637557067726164653a20756e737570706f727465642070726f7860448201527f6961626c655555494400000000000000000000000000000000000000000000006064820152608401610740565b50611552838383611c27565b60fb546001600160a01b0316331461098e5760405162461bcd60e51b815260206004820181905260248201527f4f776e61626c653a2063616c6c6572206973206e6f7420746865206f776e65726044820152606401610740565b611726611c4c565b6097805460ff191690557f5db9ee0a495bf2e6ff9c91a7834c1ba4fdd244a5e8aa4e537bd38aeae4b073aa335b6040516001600160a01b03909116815260200160405180910390a1565b6001600160a01b0382166117ec5760405162461bcd60e51b815260206004820152602160248201527f45524332303a206275726e2066726f6d20746865207a65726f2061646472657360448201527f73000000000000000000000000000000000000000000000000000000000000006064820152608401610740565b6117f882600083611b49565b6001600160a01b038216600090815260336020526040902054818110156118875760405162461bcd60e51b815260206004820152602260248201527f45524332303a206275726e20616d6f756e7420657863656564732062616c616e60448201527f63650000000000000000000000000000000000000000000000000000000000006064820152608401610740565b6001600160a01b03831660008181526033602090815260408083208686039055603580548790039055518581529192917fddf252ad1be2c89b69c2b068fc378daa952ba7f163c4a11628f55a4df523b3ef910160405180910390a3505050565b60fb80546001600160a01b0383811673ffffffffffffffffffffffffffffffffffffffff19831681179093556040519116919082907f8be0079c531659141344cd1fd0a4f28419497f9722a3daafe3b4186f6b6457e090600090a35050565b600054610100900460ff166119b15760405162461bcd60e51b815260206004820152602b60248201527f496e697469616c697a61626c653a20636f6e7472616374206973206e6f74206960448201526a6e697469616c697a696e6760a81b6064820152608401610740565b610a528282611c9e565b600054610100900460ff1661098e5760405162461bcd60e51b815260206004820152602b60248201527f496e697469616c697a61626c653a20636f6e7472616374206973206e6f74206960448201526a6e697469616c697a696e6760a81b6064820152608401610740565b600054610100900460ff16611a915760405162461bcd60e51b815260206004820152602b60248201527f496e697469616c697a61626c653a20636f6e7472616374206973206e6f74206960448201526a6e697469616c697a696e6760a81b6064820152608401610740565b61098e611d22565b600054610100900460ff16611b045760405162461bcd60e51b815260206004820152602b60248201527f496e697469616c697a61626c653a20636f6e7472616374206973206e6f74206960448201526a6e697469616c697a696e6760a81b6064820152608401610740565b61098e611d99565b611b14611e0d565b6097805460ff191660011790557f62e78cea01bee320cd4e420270b5ea74000d11b0c9f74754ebdbfc544b05a2586117533390565b611b51611e0d565b611552838383611e60565b6001600160a01b0381163b611bd95760405162461bcd60e51b815260206004820152602d60248201527f455243313936373a206e657720696d706c656d656e746174696f6e206973206e60448201527f6f74206120636f6e7472616374000000000000000000000000000000000000006064820152608401610740565b7f360894a13ba1a3210667c828492db98dca3e2076cc3735a920a3ca505d382bbc805473ffffffffffffffffffffffffffffffffffffffff19166001600160a01b0392909216919091179055565b611c3083611ed9565b600082511180611c3d5750805b15611552576111ea8383611f19565b60975460ff1661098e5760405162461bcd60e51b815260206004820152601460248201527f5061757361626c653a206e6f74207061757365640000000000000000000000006044820152606401610740565b600054610100900460ff16611d095760405162461bcd60e51b815260206004820152602b60248201527f496e697469616c697a61626c653a20636f6e7472616374206973206e6f74206960448201526a6e697469616c697a696e6760a81b6064820152608401610740565b6036611d158382612380565b5060376115528282612380565b600054610100900460ff16611d8d5760405162461bcd60e51b815260206004820152602b60248201527f496e697469616c697a61626c653a20636f6e7472616374206973206e6f74206960448201526a6e697469616c697a696e6760a81b6064820152608401610740565b6097805460ff19169055565b600054610100900460ff16611e045760405162461bcd60e51b815260206004820152602b60248201527f496e697469616c697a61626c653a20636f6e7472616374206973206e6f74206960448201526a6e697469616c697a696e6760a81b6064820152608401610740565b61098e336118e7565b60975460ff161561098e5760405162461bcd60e51b815260206004820152601060248201527f5061757361626c653a20706175736564000000000000000000000000000000006044820152606401610740565b60975460ff16156115525760405162461bcd60e51b815260206004820152602a60248201527f45524332305061757361626c653a20746f6b656e207472616e7366657220776860448201527f696c6520706175736564000000000000000000000000000000000000000000006064820152608401610740565b611ee281611b5c565b6040516001600160a01b038216907fbc7cd75a20ee27fd9adebab32041f755214dbc6bffa90cc0225b39da2e5c2d3b90600090a250565b6060611f3e838360405180606001604052806027815260200161245d60279139611f45565b9392505050565b6060600080856001600160a01b031685604051611f629190612440565b600060405180830381855af49150503d8060008114611f9d576040519150601f19603f3d011682016040523d82523d6000602084013e611fa2565b606091505b5091509150611fb386838387611fbd565b9695505050505050565b6060831561202c578251600003612025576001600160a01b0385163b6120255760405162461bcd60e51b815260206004820152601d60248201527f416464726573733a2063616c6c20746f206e6f6e2d636f6e74726163740000006044820152606401610740565b5081612036565b612036838361203e565b949350505050565b81511561204e5781518083602001fd5b8060405162461bcd60e51b8152600401610740919061208c565b60005b8381101561208357818101518382015260200161206b565b50506000910152565b60208152600082518060208401526120ab816040850160208701612068565b601f01601f19169190910160400192915050565b80356001600160a01b03811681146120d657600080fd5b919050565b600080604083850312156120ee57600080fd5b6120f7836120bf565b946020939093013593505050565b60008060006060848603121561211a57600080fd5b612123846120bf565b9250612131602085016120bf565b9150604084013590509250925092565b60006020828403121561215357600080fd5b5035919050565b60006020828403121561216c57600080fd5b611f3e826120bf565b634e487b7160e01b600052604160045260246000fd5b6000806040838503121561219e57600080fd5b6121a7836120bf565b9150602083013567ffffffffffffffff808211156121c457600080fd5b818501915085601f8301126121d857600080fd5b8135818111156121ea576121ea612175565b604051601f8201601f19908116603f0116810190838211818310171561221257612212612175565b8160405282815288602084870101111561222b57600080fd5b8260208601602083013760006020848301015280955050505050509250929050565b6000806040838503121561226057600080fd5b82359150612270602084016120bf565b90509250929050565b6000806040838503121561228c57600080fd5b612295836120bf565b9150612270602084016120bf565b600181811c908216806122b757607f821691505b6020821081036122d757634e487b7160e01b600052602260045260246000fd5b50919050565b634e487b7160e01b600052601160045260246000fd5b81810381811115610688576106886122dd565b80820180821115610688576106886122dd565b60006020828403121561232b57600080fd5b5051919050565b601f82111561155257600081815260208120601f850160051c810160208610156123595750805b601f850160051c820191505b8181101561237857828155600101612365565b505050505050565b815167ffffffffffffffff81111561239a5761239a612175565b6123ae816123a884546122a3565b84612332565b602080601f8311600181146123e357600084156123cb5750858301515b600019600386901b1c1916600185901b178555612378565b600085815260208120601f198616915b82811015612412578886015182559484019460019091019084016123f3565b50858210156124305787850151600019600388901b60f8161c191681555b5050505050600190811b01905550565b60008251612452818460208701612068565b919091019291505056fe416464726573733a206c6f772d6c6576656c2064656c65676174652063616c6c206661696c6564a26469706673582212207f1454b7278726afd80d88821d9874832334484476d4142b62a3e67a9054134664736f6c63430008130033",
  "linkReferences": {},
  "deployedLinkReferences": {}
}