{
  "_format": "hh-sol-artifact-1",
  "contractName": "GoldenUruks102",
  "sourceName": "contracts/UrukERC20102.sol",
  "abi": [
    {
      "inputs": [],
      "stateMutability": "nonpayable",
      "type": "constructor"
    },
    {
      "anonymous": false,
      "inputs": [
        {
          "indexed": false,
          "internalType": "address",
          "name": "previousAdmin",
          "type": "address"
        },
        {
          "indexed": false,
          "internalType": "address",
          "name": "newAdmin",
          "type": "address"
        }
      ],
      "name": "AdminChanged",
      "type": "event"
    },
    {
      "anonymous": false,
      "inputs": [
        {
          "indexed": true,
          "internalType": "address",
          "name": "owner",
          "type": "address"
        },
        {
          "indexed": true,
          "internalType": "address",
          "name": "spender",
          "type": "address"
        },
        {
          "indexed": false,
          "internalType": "uint256",
          "name": "value",
          "type": "uint256"
        }
      ],
      "name": "Approval",
      "type": "event"
    },
    {
      "anonymous": false,
      "inputs": [
        {
          "indexed": true,
          "internalType": "address",
          "name": "beacon",
          "type": "address"
        }
      ],
      "name": "BeaconUpgraded",
      "type": "event"
    },
    {
      "anonymous": false,
      "inputs": [
        {
          "indexed": true,
          "internalType": "address",
          "name": "user",
          "type": "address"
        },
        {
          "indexed": false,
          "internalType": "uint256",
          "name": "amount",
          "type": "uint256"
        }
      ],
      "name": "CoinsExported",
      "type": "event"
    },
    {
      "anonymous": false,
      "inputs": [
        {
          "indexed": true,
          "internalType": "address",
          "name": "user",
          "type": "address"
        },
        {
          "indexed": false,
          "internalType": "uint256",
          "name": "amount",
          "type": "uint256"
        }
      ],
      "name": "CoinsImported",
      "type": "event"
    },
    {
      "anonymous": false,
      "inputs": [
        {
          "indexed": false,
          "internalType": "uint8",
          "name": "version",
          "type": "uint8"
        }
      ],
      "name": "Initialized",
      "type": "event"
    },
    {
      "anonymous": false,
      "inputs": [
        {
          "indexed": true,
          "internalType": "address",
          "name": "previousOwner",
          "type": "address"
        },
        {
          "indexed": true,
          "internalType": "address",
          "name": "newOwner",
          "type": "address"
        }
      ],
      "name": "OwnershipTransferred",
      "type": "event"
    },
    {
      "anonymous": false,
      "inputs": [
        {
          "indexed": false,
          "internalType": "address",
          "name": "account",
          "type": "address"
        }
      ],
      "name": "Paused",
      "type": "event"
    },
    {
      "anonymous": false,
      "inputs": [
        {
          "indexed": true,
          "internalType": "address",
          "name": "from",
          "type": "address"
        },
        {
          "indexed": true,
          "internalType": "address",
          "name": "to",
          "type": "address"
        },
        {
          "indexed": false,
          "internalType": "uint256",
          "name": "value",
          "type": "uint256"
        }
      ],
      "name": "Transfer",
      "type": "event"
    },
    {
      "anonymous": false,
      "inputs": [
        {
          "indexed": false,
          "internalType": "address",
          "name": "account",
          "type": "address"
        }
      ],
      "name": "Unpaused",
      "type": "event"
    },
    {
      "anonymous": false,
      "inputs": [
        {
          "indexed": true,
          "internalType": "address",
          "name": "implementation",
          "type": "address"
        }
      ],
      "name": "Upgraded",
      "type": "event"
    },
    {
      "inputs": [
        {
          "internalType": "uint256",
          "name": "amountCoins",
          "type": "uint256"
        },
        {
          "internalType": "address",
          "name": "walletAddress",
          "type": "address"
        }
      ],
      "name": "allowCoinsToBeExported",
      "outputs": [],
      "stateMutability": "nonpayable",
      "type": "function"
    },
    {
      "inputs": [
        {
          "internalType": "address",
          "name": "owner",
          "type": "address"
        },
        {
          "internalType": "address",
          "name": "spender",
          "type": "address"
        }
      ],
      "name": "allowance",
      "outputs": [
        {
          "internalType": "uint256",
          "name": "",
          "type": "uint256"
        }
      ],
      "stateMutability": "view",
      "type": "function"
    },
    {
      "inputs": [
        {
          "internalType": "address",
          "name": "",
          "type": "address"
        }
      ],
      "name": "allowedAmountToExport",
      "outputs": [
        {
          "internalType": "uint256",
          "name": "",
          "type": "uint256"
        }
      ],
      "stateMutability": "view",
      "type": "function"
    },
    {
      "inputs": [
        {
          "internalType": "address",
          "name": "spender",
          "type": "address"
        },
        {
          "internalType": "uint256",
          "name": "amount",
          "type": "uint256"
        }
      ],
      "name": "approve",
      "outputs": [
        {
          "internalType": "bool",
          "name": "",
          "type": "bool"
        }
      ],
      "stateMutability": "nonpayable",
      "type": "function"
    },
    {
      "inputs": [
        {
          "internalType": "address",
          "name": "account",
          "type": "address"
        }
      ],
      "name": "balanceOf",
      "outputs": [
        {
          "internalType": "uint256",
          "name": "",
          "type": "uint256"
        }
      ],
      "stateMutability": "view",
      "type": "function"
    },
    {
      "inputs": [
        {
          "internalType": "uint256",
          "name": "amount",
          "type": "uint256"
        }
      ],
      "name": "burn",
      "outputs": [],
      "stateMutability": "nonpayable",
      "type": "function"
    },
    {
      "inputs": [
        {
          "internalType": "address",
          "name": "account",
          "type": "address"
        },
        {
          "internalType": "uint256",
          "name": "amount",
          "type": "uint256"
        }
      ],
      "name": "burnFrom",
      "outputs": [],
      "stateMutability": "nonpayable",
      "type": "function"
    },
    {
      "inputs": [],
      "name": "decimals",
      "outputs": [
        {
          "internalType": "uint8",
          "name": "",
          "type": "uint8"
        }
      ],
      "stateMutability": "view",
      "type": "function"
    },
    {
      "inputs": [
        {
          "internalType": "address",
          "name": "spender",
          "type": "address"
        },
        {
          "internalType": "uint256",
          "name": "subtractedValue",
          "type": "uint256"
        }
      ],
      "name": "decreaseAllowance",
      "outputs": [
        {
          "internalType": "bool",
          "name": "",
          "type": "bool"
        }
      ],
      "stateMutability": "nonpayable",
      "type": "function"
    },
    {
      "inputs": [
        {
          "internalType": "uint256",
          "name": "amountToExport",
          "type": "uint256"
        }
      ],
      "name": "exportCoins",
      "outputs": [],
      "stateMutability": "payable",
      "type": "function"
    },
    {
      "inputs": [],
      "name": "exportFee",
      "outputs": [
        {
          "internalType": "uint256",
          "name": "",
          "type": "uint256"
        }
      ],
      "stateMutability": "view",
      "type": "function"
    },
    {
      "inputs": [
        {
          "internalType": "address",
          "name": "walletAddress",
          "type": "address"
        }
      ],
      "name": "getCoinsAmountWhitelisted",
      "outputs": [
        {
          "internalType": "uint256",
          "name": "",
          "type": "uint256"
        }
      ],
      "stateMutability": "view",
      "type": "function"
    },
    {
      "inputs": [],
      "name": "getExportFee",
      "outputs": [
        {
          "internalType": "uint256",
          "name": "",
          "type": "uint256"
        }
      ],
      "stateMutability": "view",
      "type": "function"
    },
    {
      "inputs": [
        {
          "internalType": "uint256",
          "name": "amount",
          "type": "uint256"
        }
      ],
      "name": "importCoins",
      "outputs": [],
      "stateMutability": "nonpayable",
      "type": "function"
    },
    {
      "inputs": [
        {
          "internalType": "address",
          "name": "spender",
          "type": "address"
        },
        {
          "internalType": "uint256",
          "name": "addedValue",
          "type": "uint256"
        }
      ],
      "name": "increaseAllowance",
      "outputs": [
        {
          "internalType": "bool",
          "name": "",
          "type": "bool"
        }
      ],
      "stateMutability": "nonpayable",
      "type": "function"
    },
    {
      "inputs": [],
      "name": "initialize",
      "outputs": [],
      "stateMutability": "nonpayable",
      "type": "function"
    },
    {
      "inputs": [
        {
          "internalType": "address",
          "name": "to",
          "type": "address"
        },
        {
          "internalType": "uint256",
          "name": "amount",
          "type": "uint256"
        }
      ],
      "name": "mint",
      "outputs": [],
      "stateMutability": "nonpayable",
      "type": "function"
    },
    {
      "inputs": [],
      "name": "name",
      "outputs": [
        {
          "internalType": "string",
          "name": "",
          "type": "string"
        }
      ],
      "stateMutability": "view",
      "type": "function"
    },
    {
      "inputs": [],
      "name": "owner",
      "outputs": [
        {
          "internalType": "address",
          "name": "",
          "type": "address"
        }
      ],
      "stateMutability": "view",
      "type": "function"
    },
    {
      "inputs": [],
      "name": "pause",
      "outputs": [],
      "stateMutability": "nonpayable",
      "type": "function"
    },
    {
      "inputs": [],
      "name": "paused",
      "outputs": [
        {
          "internalType": "bool",
          "name": "",
          "type": "bool"
        }
      ],
      "stateMutability": "view",
      "type": "function"
    },
    {
      "inputs": [],
      "name": "proxiableUUID",
      "outputs": [
        {
          "internalType": "bytes32",
          "name": "",
          "type": "bytes32"
        }
      ],
      "stateMutability": "view",
      "type": "function"
    },
    {
      "inputs": [],
      "name": "renounceOwnership",
      "outputs": [],
      "stateMutability": "nonpayable",
      "type": "function"
    },
    {
      "inputs": [
        {
          "internalType": "uint256",
          "name": "_fee",
          "type": "uint256"
        }
      ],
      "name": "setExportFee",
      "outputs": [],
      "stateMutability": "nonpayable",
      "type": "function"
    },
    {
      "inputs": [],
      "name": "symbol",
      "outputs": [
        {
          "internalType": "string",
          "name": "",
          "type": "string"
        }
      ],
      "stateMutability": "view",
      "type": "function"
    },
    {
      "inputs": [],
      "name": "totalSupply",
      "outputs": [
        {
          "internalType": "uint256",
          "name": "",
          "type": "uint256"
        }
      ],
      "stateMutability": "view",
      "type": "function"
    },
    {
      "inputs": [
        {
          "internalType": "address",
          "name": "to",
          "type": "address"
        },
        {
          "internalType": "uint256",
          "name": "amount",
          "type": "uint256"
        }
      ],
      "name": "transfer",
      "outputs": [
        {
          "internalType": "bool",
          "name": "",
          "type": "bool"
        }
      ],
      "stateMutability": "nonpayable",
      "type": "function"
    },
    {
      "inputs": [
        {
          "internalType": "address",
          "name": "from",
          "type": "address"
        },
        {
          "internalType": "address",
          "name": "to",
          "type": "address"
        },
        {
          "internalType": "uint256",
          "name": "amount",
          "type": "uint256"
        }
      ],
      "name": "transferFrom",
      "outputs": [
        {
          "internalType": "bool",
          "name": "",
          "type": "bool"
        }
      ],
      "stateMutability": "nonpayable",
      "type": "function"
    },
    {
      "inputs": [
        {
          "internalType": "address",
          "name": "newOwner",
          "type": "address"
        }
      ],
      "name": "transferOwnership",
      "outputs": [],
      "stateMutability": "nonpayable",
      "type": "function"
    },
    {
      "inputs": [],
      "name": "unpause",
      "outputs": [],
      "stateMutability": "nonpayable",
      "type": "function"
    },
    {
      "inputs": [
        {
          "internalType": "address",
          "name": "newImplementation",
          "type": "address"
        }
      ],
      "name": "upgradeTo",
      "outputs": [],
      "stateMutability": "nonpayable",
      "type": "function"
    },
    {
      "inputs": [
        {
          "internalType": "address",
          "name": "newImplementation",
          "type": "address"
        },
        {
          "internalType": "bytes",
          "name": "data",
          "type": "bytes"
        }
      ],
      "name": "upgradeToAndCall",
      "outputs": [],
      "stateMutability": "payable",
      "type": "function"
    },
    {
      "inputs": [],
      "name": "version",
      "outputs": [
        {
          "internalType": "string",
          "name": "",
          "type": "string"
        }
      ],
      "stateMutability": "pure",
      "type": "function"
    },
    {
      "inputs": [],
      "name": "withdraw",
      "outputs": [],
      "stateMutability": "nonpayable",
      "type": "function"
    }
  ],
  "bytecode": "0x60a0604052306080523480156200001557600080fd5b506200002062000026565b620000e7565b600054610100900460ff1615620000935760405162461bcd60e51b815260206004820152602760248201527f496e697469616c697a61626c653a20636f6e747261637420697320696e697469604482015266616c697a696e6760c81b606482015260840160405180910390fd5b60005460ff90811614620000e5576000805460ff191660ff9081179091556040519081527f7f26b83ff96e1f2b6a682f133852f6798a09c465da95921460cefb38474024989060200160405180910390a15b565b6080516126596200011f600039600081816108c40152818161094901528181610bf001528181610c750152610d5b01526126596000f3fe6080604052600436106102195760003560e01c806360d559d31161011d57806395d89b41116100b0578063a9059cbb1161007f578063d816aab911610064578063d816aab914610607578063dd62ed3e1461061d578063f2fde38b1461066357600080fd5b8063a9059cbb146105b9578063b56c74fa146105d957600080fd5b806395d89b411461054d578063a457c2d714610562578063a7812f5814610582578063a8c36bc6146105a257600080fd5b80638129fc1c116100ec5780638129fc1c146104db5780638456cb59146104f05780638da5cb5b1461050557806394d6e7a81461052d57600080fd5b806360d559d31461043957806370a0823114610470578063715018a6146104a657806379cc6790146104bb57600080fd5b80633ccfd60b116101b057806342966c681161017f57806352d1902d1161016457806352d1902d146103c657806354fd4d50146103db5780635c975abb1461042157600080fd5b806342966c68146103935780634f1ef286146103b357600080fd5b80633ccfd60b146103295780633f4ba83a1461033e578063405c27051461035357806340c10f191461037357600080fd5b806323cbb60d116101ec57806323cbb60d146102b8578063313ce567146102cd5780633659cfe6146102e9578063395093511461030957600080fd5b806306fdde031461021e578063095ea7b31461024957806318160ddd1461027957806323b872dd14610298575b600080fd5b34801561022a57600080fd5b50610233610683565b604051610240919061222c565b60405180910390f35b34801561025557600080fd5b5061026961026436600461227b565b610715565b6040519015158152602001610240565b34801561028557600080fd5b506035545b604051908152602001610240565b3480156102a457600080fd5b506102696102b33660046122a5565b61072f565b6102cb6102c63660046122e1565b610753565b005b3480156102d957600080fd5b5060405160128152602001610240565b3480156102f557600080fd5b506102cb6103043660046122fa565b6108ba565b34801561031557600080fd5b5061026961032436600461227b565b610a32565b34801561033557600080fd5b506102cb610a71565b34801561034a57600080fd5b506102cb610b04565b34801561035f57600080fd5b506102cb61036e3660046122e1565b610b16565b34801561037f57600080fd5b506102cb61038e36600461227b565b610bc6565b34801561039f57600080fd5b506102cb6103ae3660046122e1565b610bdc565b6102cb6103c136600461232b565b610be6565b3480156103d257600080fd5b5061028a610d4e565b3480156103e757600080fd5b5060408051808201909152600581527f312e302e320000000000000000000000000000000000000000000000000000006020820152610233565b34801561042d57600080fd5b5060975460ff16610269565b34801561044557600080fd5b5061028a6104543660046122fa565b6001600160a01b031660009081526101c4602052604090205490565b34801561047c57600080fd5b5061028a61048b3660046122fa565b6001600160a01b031660009081526033602052604090205490565b3480156104b257600080fd5b506102cb610e13565b3480156104c757600080fd5b506102cb6104d636600461227b565b610e25565b3480156104e757600080fd5b506102cb610e3a565b3480156104fc57600080fd5b506102cb611011565b34801561051157600080fd5b5060fb546040516001600160a01b039091168152602001610240565b34801561053957600080fd5b506102cb6105483660046122e1565b611021565b34801561055957600080fd5b5061023361102f565b34801561056e57600080fd5b5061026961057d36600461227b565b61103e565b34801561058e57600080fd5b506102cb61059d3660046123ed565b6110e8565b3480156105ae57600080fd5b5061028a6101c55481565b3480156105c557600080fd5b506102696105d436600461227b565b61110b565b3480156105e557600080fd5b5061028a6105f43660046122fa565b6101c46020526000908152604090205481565b34801561061357600080fd5b506101c55461028a565b34801561062957600080fd5b5061028a610638366004612419565b6001600160a01b03918216600090815260346020908152604080832093909416825291909152205490565b34801561066f57600080fd5b506102cb61067e3660046122fa565b611119565b60606036805461069290612443565b80601f01602080910402602001604051908101604052809291908181526020018280546106be90612443565b801561070b5780601f106106e05761010080835404028352916020019161070b565b820191906000526020600020905b8154815290600101906020018083116106ee57829003601f168201915b5050505050905090565b6000336107238185856111a6565b60019150505b92915050565b60003361073d8582856112fe565b610748858585611390565b506001949350505050565b61075b61158f565b6101c55434146107b25760405162461bcd60e51b815260206004820152601760248201527f4d7573742070617920746865206578706f72742066656500000000000000000060448201526064015b60405180910390fd5b3360009081526101c460205260409020548111156001811461083c5760405162461bcd60e51b815260206004820152603960248201527f596f7520646f206e6f742068617665207065726d697373696f6e20746f20657860448201527f706f7274207468697320616d6f756e74206f6620636f696e730000000000000060648201526084016107a9565b3360009081526101c46020526040902054610858908390612493565b3360008181526101c4602052604090209190915561087690836115ea565b60405182815233907f26b0a5eb8007e0d56b1f95f40a6e83c78009c73228757695c52e79c269bb66d99060200160405180910390a2506108b7600161019155565b50565b6001600160a01b037f00000000000000000000000000000000000000000000000000000000000000001630036109475760405162461bcd60e51b815260206004820152602c60248201527f46756e6374696f6e206d7573742062652063616c6c6564207468726f7567682060448201526b19195b1959d85d1958d85b1b60a21b60648201526084016107a9565b7f00000000000000000000000000000000000000000000000000000000000000006001600160a01b03166109a27f360894a13ba1a3210667c828492db98dca3e2076cc3735a920a3ca505d382bbc546001600160a01b031690565b6001600160a01b031614610a0d5760405162461bcd60e51b815260206004820152602c60248201527f46756e6374696f6e206d7573742062652063616c6c6564207468726f7567682060448201526b6163746976652070726f787960a01b60648201526084016107a9565b610a16816116b7565b604080516000808252602082019092526108b7918391906116bf565b3360008181526034602090815260408083206001600160a01b03871684529091528120549091906107239082908690610a6c9087906124a6565b6111a6565b60fb546001600160a01b03163314610acb5760405162461bcd60e51b815260206004820152601760248201527f4f6e6c79206f776e65722063616e20776974686472617700000000000000000060448201526064016107a9565b60fb546040516001600160a01b03909116904780156108fc02916000818181858888f193505050501580156108b7573d6000803e3d6000fd5b610b0c611864565b610b146118be565b565b610b1e61158f565b33600090815260336020526040902054811115610b7d5760405162461bcd60e51b815260206004820152601d60248201527f596f7520646f206e6f74206861766520656e6f75676820636f696e732100000060448201526064016107a9565b610b8681610bdc565b60405181815233907f1a6b4d4cca1d97e2294a9692b77d28b922bb5e20af563d573ee2449b1aa85ad79060200160405180910390a26108b7600161019155565b610bce611864565b610bd882826115ea565b5050565b6108b73382611910565b6001600160a01b037f0000000000000000000000000000000000000000000000000000000000000000163003610c735760405162461bcd60e51b815260206004820152602c60248201527f46756e6374696f6e206d7573742062652063616c6c6564207468726f7567682060448201526b19195b1959d85d1958d85b1b60a21b60648201526084016107a9565b7f00000000000000000000000000000000000000000000000000000000000000006001600160a01b0316610cce7f360894a13ba1a3210667c828492db98dca3e2076cc3735a920a3ca505d382bbc546001600160a01b031690565b6001600160a01b031614610d395760405162461bcd60e51b815260206004820152602c60248201527f46756e6374696f6e206d7573742062652063616c6c6564207468726f7567682060448201526b6163746976652070726f787960a01b60648201526084016107a9565b610d42826116b7565b610bd8828260016116bf565b6000306001600160a01b037f00000000000000000000000000000000000000000000000000000000000000001614610dee5760405162461bcd60e51b815260206004820152603860248201527f555550535570677261646561626c653a206d757374206e6f742062652063616c60448201527f6c6564207468726f7567682064656c656761746563616c6c000000000000000060648201526084016107a9565b507f360894a13ba1a3210667c828492db98dca3e2076cc3735a920a3ca505d382bbc90565b610e1b611864565b610b146000611a87565b610e308233836112fe565b610bd88282611910565b600054610100900460ff1615808015610e5a5750600054600160ff909116105b80610e745750303b158015610e74575060005460ff166001145b610ee65760405162461bcd60e51b815260206004820152602e60248201527f496e697469616c697a61626c653a20636f6e747261637420697320616c72656160448201527f647920696e697469616c697a656400000000000000000000000000000000000060648201526084016107a9565b6000805460ff191660011790558015610f09576000805461ff0019166101001790555b610f7d6040518060400160405280600c81526020017f476f6c64656e205572756b7300000000000000000000000000000000000000008152506040518060400160405280600481526020017f5552554b00000000000000000000000000000000000000000000000000000000815250611ae6565b610f85611b5b565b610f8d611bc6565b610f95611c39565b610f9d611b5b565b6101c3805473ffffffffffffffffffffffffffffffffffffffff191633179055662386f26fc100006101c55580156108b7576000805461ff0019169055604051600181527f7f26b83ff96e1f2b6a682f133852f6798a09c465da95921460cefb38474024989060200160405180910390a150565b611019611864565b610b14611cac565b611029611864565b6101c555565b60606037805461069290612443565b3360008181526034602090815260408083206001600160a01b0387168452909152812054909190838110156110db5760405162461bcd60e51b815260206004820152602560248201527f45524332303a2064656372656173656420616c6c6f77616e63652062656c6f7760448201527f207a65726f00000000000000000000000000000000000000000000000000000060648201526084016107a9565b61074882868684036111a6565b6110f0611864565b6001600160a01b031660009081526101c46020526040902055565b600033610723818585611390565b611121611864565b6001600160a01b03811661119d5760405162461bcd60e51b815260206004820152602660248201527f4f776e61626c653a206e6577206f776e657220697320746865207a65726f206160448201527f646472657373000000000000000000000000000000000000000000000000000060648201526084016107a9565b6108b781611a87565b6001600160a01b0383166112215760405162461bcd60e51b8152602060048201526024808201527f45524332303a20617070726f76652066726f6d20746865207a65726f2061646460448201527f726573730000000000000000000000000000000000000000000000000000000060648201526084016107a9565b6001600160a01b03821661129d5760405162461bcd60e51b815260206004820152602260248201527f45524332303a20617070726f766520746f20746865207a65726f20616464726560448201527f737300000000000000000000000000000000000000000000000000000000000060648201526084016107a9565b6001600160a01b0383811660008181526034602090815260408083209487168084529482529182902085905590518481527f8c5be1e5ebec7d5bd14f71427d1e84f3dd0314c0f7b2291e5b200ac8c7c3b925910160405180910390a3505050565b6001600160a01b03838116600090815260346020908152604080832093861683529290522054600019811461138a578181101561137d5760405162461bcd60e51b815260206004820152601d60248201527f45524332303a20696e73756666696369656e7420616c6c6f77616e636500000060448201526064016107a9565b61138a84848484036111a6565b50505050565b6001600160a01b03831661140c5760405162461bcd60e51b815260206004820152602560248201527f45524332303a207472616e736665722066726f6d20746865207a65726f20616460448201527f647265737300000000000000000000000000000000000000000000000000000060648201526084016107a9565b6001600160a01b0382166114885760405162461bcd60e51b815260206004820152602360248201527f45524332303a207472616e7366657220746f20746865207a65726f206164647260448201527f657373000000000000000000000000000000000000000000000000000000000060648201526084016107a9565b611493838383611ce9565b6001600160a01b038316600090815260336020526040902054818110156115225760405162461bcd60e51b815260206004820152602660248201527f45524332303a207472616e7366657220616d6f756e742065786365656473206260448201527f616c616e6365000000000000000000000000000000000000000000000000000060648201526084016107a9565b6001600160a01b0380851660008181526033602052604080822086860390559286168082529083902080548601905591517fddf252ad1be2c89b69c2b068fc378daa952ba7f163c4a11628f55a4df523b3ef906115829086815260200190565b60405180910390a361138a565b600261019154036115e25760405162461bcd60e51b815260206004820152601f60248201527f5265656e7472616e637947756172643a207265656e7472616e742063616c6c0060448201526064016107a9565b600261019155565b6001600160a01b0382166116405760405162461bcd60e51b815260206004820152601f60248201527f45524332303a206d696e7420746f20746865207a65726f20616464726573730060448201526064016107a9565b61164c60008383611ce9565b806035600082825461165e91906124a6565b90915550506001600160a01b0382166000818152603360209081526040808320805486019055518481527fddf252ad1be2c89b69c2b068fc378daa952ba7f163c4a11628f55a4df523b3ef910160405180910390a35050565b6108b7611864565b7f4910fdfa16fed3260ed0e7147f7cc6da11a60208b5b9406d12a635614ffd91435460ff16156116f7576116f283611cfc565b505050565b826001600160a01b03166352d1902d6040518163ffffffff1660e01b8152600401602060405180830381865afa925050508015611751575060408051601f3d908101601f1916820190925261174e918101906124b9565b60015b6117c35760405162461bcd60e51b815260206004820152602e60248201527f45524331393637557067726164653a206e657720696d706c656d656e7461746960448201527f6f6e206973206e6f74205555505300000000000000000000000000000000000060648201526084016107a9565b7f360894a13ba1a3210667c828492db98dca3e2076cc3735a920a3ca505d382bbc81146118585760405162461bcd60e51b815260206004820152602960248201527f45524331393637557067726164653a20756e737570706f727465642070726f7860448201527f6961626c6555554944000000000000000000000000000000000000000000000060648201526084016107a9565b506116f2838383611dc7565b60fb546001600160a01b03163314610b145760405162461bcd60e51b815260206004820181905260248201527f4f776e61626c653a2063616c6c6572206973206e6f7420746865206f776e657260448201526064016107a9565b6118c6611dec565b6097805460ff191690557f5db9ee0a495bf2e6ff9c91a7834c1ba4fdd244a5e8aa4e537bd38aeae4b073aa335b6040516001600160a01b03909116815260200160405180910390a1565b6001600160a01b03821661198c5760405162461bcd60e51b815260206004820152602160248201527f45524332303a206275726e2066726f6d20746865207a65726f2061646472657360448201527f730000000000000000000000000000000000000000000000000000000000000060648201526084016107a9565b61199882600083611ce9565b6001600160a01b03821660009081526033602052604090205481811015611a275760405162461bcd60e51b815260206004820152602260248201527f45524332303a206275726e20616d6f756e7420657863656564732062616c616e60448201527f636500000000000000000000000000000000000000000000000000000000000060648201526084016107a9565b6001600160a01b03831660008181526033602090815260408083208686039055603580548790039055518581529192917fddf252ad1be2c89b69c2b068fc378daa952ba7f163c4a11628f55a4df523b3ef910160405180910390a3505050565b60fb80546001600160a01b0383811673ffffffffffffffffffffffffffffffffffffffff19831681179093556040519116919082907f8be0079c531659141344cd1fd0a4f28419497f9722a3daafe3b4186f6b6457e090600090a35050565b600054610100900460ff16611b515760405162461bcd60e51b815260206004820152602b60248201527f496e697469616c697a61626c653a20636f6e7472616374206973206e6f74206960448201526a6e697469616c697a696e6760a81b60648201526084016107a9565b610bd88282611e3e565b600054610100900460ff16610b145760405162461bcd60e51b815260206004820152602b60248201527f496e697469616c697a61626c653a20636f6e7472616374206973206e6f74206960448201526a6e697469616c697a696e6760a81b60648201526084016107a9565b600054610100900460ff16611c315760405162461bcd60e51b815260206004820152602b60248201527f496e697469616c697a61626c653a20636f6e7472616374206973206e6f74206960448201526a6e697469616c697a696e6760a81b60648201526084016107a9565b610b14611ec2565b600054610100900460ff16611ca45760405162461bcd60e51b815260206004820152602b60248201527f496e697469616c697a61626c653a20636f6e7472616374206973206e6f74206960448201526a6e697469616c697a696e6760a81b60648201526084016107a9565b610b14611f39565b611cb4611fad565b6097805460ff191660011790557f62e78cea01bee320cd4e420270b5ea74000d11b0c9f74754ebdbfc544b05a2586118f33390565b611cf1611fad565b6116f2838383612000565b6001600160a01b0381163b611d795760405162461bcd60e51b815260206004820152602d60248201527f455243313936373a206e657720696d706c656d656e746174696f6e206973206e60448201527f6f74206120636f6e74726163740000000000000000000000000000000000000060648201526084016107a9565b7f360894a13ba1a3210667c828492db98dca3e2076cc3735a920a3ca505d382bbc805473ffffffffffffffffffffffffffffffffffffffff19166001600160a01b0392909216919091179055565b611dd083612079565b600082511180611ddd5750805b156116f25761138a83836120b9565b60975460ff16610b145760405162461bcd60e51b815260206004820152601460248201527f5061757361626c653a206e6f742070617573656400000000000000000000000060448201526064016107a9565b600054610100900460ff16611ea95760405162461bcd60e51b815260206004820152602b60248201527f496e697469616c697a61626c653a20636f6e7472616374206973206e6f74206960448201526a6e697469616c697a696e6760a81b60648201526084016107a9565b6036611eb58382612520565b5060376116f28282612520565b600054610100900460ff16611f2d5760405162461bcd60e51b815260206004820152602b60248201527f496e697469616c697a61626c653a20636f6e7472616374206973206e6f74206960448201526a6e697469616c697a696e6760a81b60648201526084016107a9565b6097805460ff19169055565b600054610100900460ff16611fa45760405162461bcd60e51b815260206004820152602b60248201527f496e697469616c697a61626c653a20636f6e7472616374206973206e6f74206960448201526a6e697469616c697a696e6760a81b60648201526084016107a9565b610b1433611a87565b60975460ff1615610b145760405162461bcd60e51b815260206004820152601060248201527f5061757361626c653a207061757365640000000000000000000000000000000060448201526064016107a9565b60975460ff16156116f25760405162461bcd60e51b815260206004820152602a60248201527f45524332305061757361626c653a20746f6b656e207472616e7366657220776860448201527f696c65207061757365640000000000000000000000000000000000000000000060648201526084016107a9565b61208281611cfc565b6040516001600160a01b038216907fbc7cd75a20ee27fd9adebab32041f755214dbc6bffa90cc0225b39da2e5c2d3b90600090a250565b60606120de83836040518060600160405280602781526020016125fd602791396120e5565b9392505050565b6060600080856001600160a01b03168560405161210291906125e0565b600060405180830381855af49150503d806000811461213d576040519150601f19603f3d011682016040523d82523d6000602084013e612142565b606091505b50915091506121538683838761215d565b9695505050505050565b606083156121cc5782516000036121c5576001600160a01b0385163b6121c55760405162461bcd60e51b815260206004820152601d60248201527f416464726573733a2063616c6c20746f206e6f6e2d636f6e747261637400000060448201526064016107a9565b50816121d6565b6121d683836121de565b949350505050565b8151156121ee5781518083602001fd5b8060405162461bcd60e51b81526004016107a9919061222c565b60005b8381101561222357818101518382015260200161220b565b50506000910152565b602081526000825180602084015261224b816040850160208701612208565b601f01601f19169190910160400192915050565b80356001600160a01b038116811461227657600080fd5b919050565b6000806040838503121561228e57600080fd5b6122978361225f565b946020939093013593505050565b6000806000606084860312156122ba57600080fd5b6122c38461225f565b92506122d16020850161225f565b9150604084013590509250925092565b6000602082840312156122f357600080fd5b5035919050565b60006020828403121561230c57600080fd5b6120de8261225f565b634e487b7160e01b600052604160045260246000fd5b6000806040838503121561233e57600080fd5b6123478361225f565b9150602083013567ffffffffffffffff8082111561236457600080fd5b818501915085601f83011261237857600080fd5b81358181111561238a5761238a612315565b604051601f8201601f19908116603f011681019083821181831017156123b2576123b2612315565b816040528281528860208487010111156123cb57600080fd5b8260208601602083013760006020848301015280955050505050509250929050565b6000806040838503121561240057600080fd5b823591506124106020840161225f565b90509250929050565b6000806040838503121561242c57600080fd5b6124358361225f565b91506124106020840161225f565b600181811c9082168061245757607f821691505b60208210810361247757634e487b7160e01b600052602260045260246000fd5b50919050565b634e487b7160e01b600052601160045260246000fd5b818103818111156107295761072961247d565b808201808211156107295761072961247d565b6000602082840312156124cb57600080fd5b5051919050565b601f8211156116f257600081815260208120601f850160051c810160208610156124f95750805b601f850160051c820191505b8181101561251857828155600101612505565b505050505050565b815167ffffffffffffffff81111561253a5761253a612315565b61254e816125488454612443565b846124d2565b602080601f831160018114612583576000841561256b5750858301515b600019600386901b1c1916600185901b178555612518565b600085815260208120601f198616915b828110156125b257888601518255948401946001909101908401612593565b50858210156125d05787850151600019600388901b60f8161c191681555b5050505050600190811b01905550565b600082516125f2818460208701612208565b919091019291505056fe416464726573733a206c6f772d6c6576656c2064656c65676174652063616c6c206661696c6564a26469706673582212204e452540f879a39e5d569fa6ce63961c69d09584ea3a2fdff4848e3faf2d953264736f6c63430008130033",
  "linkReferences": {},
  "deployedLinkReferences": {}
}