{
  "_format": "hh-sol-artifact-1",
  "contractName": "UrukNFT",
  "sourceName": "contracts/UrukNFT.sol",
  "abi": [
    {
      "inputs": [],
      "stateMutability": "nonpayable",
      "type": "constructor"
    },
    {
      "anonymous": false,
      "inputs": [
        {
          "indexed": false,
          "internalType": "address",
          "name": "previousAdmin",
          "type": "address"
        },
        {
          "indexed": false,
          "internalType": "address",
          "name": "newAdmin",
          "type": "address"
        }
      ],
      "name": "AdminChanged",
      "type": "event"
    },
    {
      "anonymous": false,
      "inputs": [
        {
          "indexed": true,
          "internalType": "address",
          "name": "owner",
          "type": "address"
        },
        {
          "indexed": true,
          "internalType": "address",
          "name": "approved",
          "type": "address"
        },
        {
          "indexed": true,
          "internalType": "uint256",
          "name": "tokenId",
          "type": "uint256"
        }
      ],
      "name": "Approval",
      "type": "event"
    },
    {
      "anonymous": false,
      "inputs": [
        {
          "indexed": true,
          "internalType": "address",
          "name": "owner",
          "type": "address"
        },
        {
          "indexed": true,
          "internalType": "address",
          "name": "operator",
          "type": "address"
        },
        {
          "indexed": false,
          "internalType": "bool",
          "name": "approved",
          "type": "bool"
        }
      ],
      "name": "ApprovalForAll",
      "type": "event"
    },
    {
      "anonymous": false,
      "inputs": [
        {
          "indexed": false,
          "internalType": "uint256",
          "name": "_fromTokenId",
          "type": "uint256"
        },
        {
          "indexed": false,
          "internalType": "uint256",
          "name": "_toTokenId",
          "type": "uint256"
        }
      ],
      "name": "BatchMetadataUpdate",
      "type": "event"
    },
    {
      "anonymous": false,
      "inputs": [
        {
          "indexed": true,
          "internalType": "address",
          "name": "beacon",
          "type": "address"
        }
      ],
      "name": "BeaconUpgraded",
      "type": "event"
    },
    {
      "anonymous": false,
      "inputs": [
        {
          "indexed": false,
          "internalType": "uint8",
          "name": "version",
          "type": "uint8"
        }
      ],
      "name": "Initialized",
      "type": "event"
    },
    {
      "anonymous": false,
      "inputs": [
        {
          "indexed": true,
          "internalType": "address",
          "name": "user",
          "type": "address"
        },
        {
          "indexed": false,
          "internalType": "uint256",
          "name": "uniqueId",
          "type": "uint256"
        },
        {
          "indexed": false,
          "internalType": "string",
          "name": "uri",
          "type": "string"
        }
      ],
      "name": "ItemExported",
      "type": "event"
    },
    {
      "anonymous": false,
      "inputs": [
        {
          "indexed": true,
          "internalType": "address",
          "name": "user",
          "type": "address"
        },
        {
          "indexed": false,
          "internalType": "uint256",
          "name": "uniqueId",
          "type": "uint256"
        },
        {
          "indexed": false,
          "internalType": "string",
          "name": "uri",
          "type": "string"
        }
      ],
      "name": "ItemImported",
      "type": "event"
    },
    {
      "anonymous": false,
      "inputs": [
        {
          "indexed": false,
          "internalType": "uint256",
          "name": "_tokenId",
          "type": "uint256"
        }
      ],
      "name": "MetadataUpdate",
      "type": "event"
    },
    {
      "anonymous": false,
      "inputs": [
        {
          "indexed": true,
          "internalType": "address",
          "name": "previousOwner",
          "type": "address"
        },
        {
          "indexed": true,
          "internalType": "address",
          "name": "newOwner",
          "type": "address"
        }
      ],
      "name": "OwnershipTransferred",
      "type": "event"
    },
    {
      "anonymous": false,
      "inputs": [
        {
          "indexed": false,
          "internalType": "address",
          "name": "account",
          "type": "address"
        }
      ],
      "name": "Paused",
      "type": "event"
    },
    {
      "anonymous": false,
      "inputs": [
        {
          "indexed": true,
          "internalType": "address",
          "name": "user",
          "type": "address"
        },
        {
          "indexed": false,
          "internalType": "uint256",
          "name": "uniqueId",
          "type": "uint256"
        }
      ],
      "name": "PendingWhitelistRemoved",
      "type": "event"
    },
    {
      "anonymous": false,
      "inputs": [
        {
          "indexed": true,
          "internalType": "address",
          "name": "from",
          "type": "address"
        },
        {
          "indexed": true,
          "internalType": "address",
          "name": "to",
          "type": "address"
        },
        {
          "indexed": true,
          "internalType": "uint256",
          "name": "tokenId",
          "type": "uint256"
        }
      ],
      "name": "Transfer",
      "type": "event"
    },
    {
      "anonymous": false,
      "inputs": [
        {
          "indexed": false,
          "internalType": "address",
          "name": "account",
          "type": "address"
        }
      ],
      "name": "Unpaused",
      "type": "event"
    },
    {
      "anonymous": false,
      "inputs": [
        {
          "indexed": true,
          "internalType": "address",
          "name": "implementation",
          "type": "address"
        }
      ],
      "name": "Upgraded",
      "type": "event"
    },
    {
      "inputs": [
        {
          "internalType": "uint256",
          "name": "backendUniqueId",
          "type": "uint256"
        },
        {
          "internalType": "address",
          "name": "walletAddress",
          "type": "address"
        }
      ],
      "name": "allowItemToBeExported",
      "outputs": [],
      "stateMutability": "nonpayable",
      "type": "function"
    },
    {
      "inputs": [
        {
          "internalType": "address",
          "name": "",
          "type": "address"
        },
        {
          "internalType": "uint256",
          "name": "",
          "type": "uint256"
        }
      ],
      "name": "allowedItems",
      "outputs": [
        {
          "internalType": "uint256",
          "name": "",
          "type": "uint256"
        }
      ],
      "stateMutability": "view",
      "type": "function"
    },
    {
      "inputs": [
        {
          "internalType": "address",
          "name": "to",
          "type": "address"
        },
        {
          "internalType": "uint256",
          "name": "tokenId",
          "type": "uint256"
        }
      ],
      "name": "approve",
      "outputs": [],
      "stateMutability": "nonpayable",
      "type": "function"
    },
    {
      "inputs": [
        {
          "internalType": "address",
          "name": "owner",
          "type": "address"
        }
      ],
      "name": "balanceOf",
      "outputs": [
        {
          "internalType": "uint256",
          "name": "",
          "type": "uint256"
        }
      ],
      "stateMutability": "view",
      "type": "function"
    },
    {
      "inputs": [
        {
          "internalType": "uint256",
          "name": "tokenId",
          "type": "uint256"
        }
      ],
      "name": "burn",
      "outputs": [],
      "stateMutability": "nonpayable",
      "type": "function"
    },
    {
      "inputs": [
        {
          "internalType": "uint256",
          "name": "backendUniqueId",
          "type": "uint256"
        }
      ],
      "name": "deletePendingExport",
      "outputs": [],
      "stateMutability": "nonpayable",
      "type": "function"
    },
    {
      "inputs": [
        {
          "internalType": "uint256",
          "name": "backendUniqueId",
          "type": "uint256"
        },
        {
          "internalType": "string",
          "name": "uri",
          "type": "string"
        }
      ],
      "name": "exportItemToNft",
      "outputs": [],
      "stateMutability": "nonpayable",
      "type": "function"
    },
    {
      "inputs": [
        {
          "internalType": "uint256",
          "name": "backendUniqueId",
          "type": "uint256"
        },
        {
          "internalType": "address",
          "name": "walletAddress",
          "type": "address"
        }
      ],
      "name": "findWhitelistedItemIndex",
      "outputs": [
        {
          "internalType": "uint256",
          "name": "",
          "type": "uint256"
        }
      ],
      "stateMutability": "view",
      "type": "function"
    },
    {
      "inputs": [
        {
          "internalType": "uint256",
          "name": "tokenId",
          "type": "uint256"
        }
      ],
      "name": "getApproved",
      "outputs": [
        {
          "internalType": "address",
          "name": "",
          "type": "address"
        }
      ],
      "stateMutability": "view",
      "type": "function"
    },
    {
      "inputs": [
        {
          "internalType": "address",
          "name": "walletAddress",
          "type": "address"
        }
      ],
      "name": "getItemsWhitelisted",
      "outputs": [
        {
          "internalType": "uint256[]",
          "name": "",
          "type": "uint256[]"
        }
      ],
      "stateMutability": "view",
      "type": "function"
    },
    {
      "inputs": [
        {
          "internalType": "uint256",
          "name": "tokenId",
          "type": "uint256"
        }
      ],
      "name": "importNftToItem",
      "outputs": [
        {
          "internalType": "string",
          "name": "",
          "type": "string"
        }
      ],
      "stateMutability": "nonpayable",
      "type": "function"
    },
    {
      "inputs": [],
      "name": "initialize",
      "outputs": [],
      "stateMutability": "nonpayable",
      "type": "function"
    },
    {
      "inputs": [
        {
          "internalType": "address",
          "name": "owner",
          "type": "address"
        },
        {
          "internalType": "address",
          "name": "operator",
          "type": "address"
        }
      ],
      "name": "isApprovedForAll",
      "outputs": [
        {
          "internalType": "bool",
          "name": "",
          "type": "bool"
        }
      ],
      "stateMutability": "view",
      "type": "function"
    },
    {
      "inputs": [
        {
          "internalType": "uint256",
          "name": "backendUniqueId",
          "type": "uint256"
        },
        {
          "internalType": "address",
          "name": "walletAddress",
          "type": "address"
        }
      ],
      "name": "itemIsWhiteListed",
      "outputs": [
        {
          "internalType": "bool",
          "name": "",
          "type": "bool"
        }
      ],
      "stateMutability": "view",
      "type": "function"
    },
    {
      "inputs": [],
      "name": "name",
      "outputs": [
        {
          "internalType": "string",
          "name": "",
          "type": "string"
        }
      ],
      "stateMutability": "view",
      "type": "function"
    },
    {
      "inputs": [],
      "name": "owner",
      "outputs": [
        {
          "internalType": "address",
          "name": "",
          "type": "address"
        }
      ],
      "stateMutability": "view",
      "type": "function"
    },
    {
      "inputs": [
        {
          "internalType": "uint256",
          "name": "tokenId",
          "type": "uint256"
        }
      ],
      "name": "ownerOf",
      "outputs": [
        {
          "internalType": "address",
          "name": "",
          "type": "address"
        }
      ],
      "stateMutability": "view",
      "type": "function"
    },
    {
      "inputs": [],
      "name": "pause",
      "outputs": [],
      "stateMutability": "nonpayable",
      "type": "function"
    },
    {
      "inputs": [],
      "name": "paused",
      "outputs": [
        {
          "internalType": "bool",
          "name": "",
          "type": "bool"
        }
      ],
      "stateMutability": "view",
      "type": "function"
    },
    {
      "inputs": [],
      "name": "proxiableUUID",
      "outputs": [
        {
          "internalType": "bytes32",
          "name": "",
          "type": "bytes32"
        }
      ],
      "stateMutability": "view",
      "type": "function"
    },
    {
      "inputs": [],
      "name": "renounceOwnership",
      "outputs": [],
      "stateMutability": "nonpayable",
      "type": "function"
    },
    {
      "inputs": [
        {
          "internalType": "address",
          "name": "to",
          "type": "address"
        },
        {
          "internalType": "string",
          "name": "uri",
          "type": "string"
        },
        {
          "internalType": "uint256",
          "name": "backendUniqueId",
          "type": "uint256"
        }
      ],
      "name": "safeMint",
      "outputs": [],
      "stateMutability": "nonpayable",
      "type": "function"
    },
    {
      "inputs": [
        {
          "internalType": "address",
          "name": "from",
          "type": "address"
        },
        {
          "internalType": "address",
          "name": "to",
          "type": "address"
        },
        {
          "internalType": "uint256",
          "name": "tokenId",
          "type": "uint256"
        }
      ],
      "name": "safeTransferFrom",
      "outputs": [],
      "stateMutability": "nonpayable",
      "type": "function"
    },
    {
      "inputs": [
        {
          "internalType": "address",
          "name": "from",
          "type": "address"
        },
        {
          "internalType": "address",
          "name": "to",
          "type": "address"
        },
        {
          "internalType": "uint256",
          "name": "tokenId",
          "type": "uint256"
        },
        {
          "internalType": "bytes",
          "name": "data",
          "type": "bytes"
        }
      ],
      "name": "safeTransferFrom",
      "outputs": [],
      "stateMutability": "nonpayable",
      "type": "function"
    },
    {
      "inputs": [
        {
          "internalType": "address",
          "name": "operator",
          "type": "address"
        },
        {
          "internalType": "bool",
          "name": "approved",
          "type": "bool"
        }
      ],
      "name": "setApprovalForAll",
      "outputs": [],
      "stateMutability": "nonpayable",
      "type": "function"
    },
    {
      "inputs": [
        {
          "internalType": "bytes4",
          "name": "interfaceId",
          "type": "bytes4"
        }
      ],
      "name": "supportsInterface",
      "outputs": [
        {
          "internalType": "bool",
          "name": "",
          "type": "bool"
        }
      ],
      "stateMutability": "view",
      "type": "function"
    },
    {
      "inputs": [],
      "name": "symbol",
      "outputs": [
        {
          "internalType": "string",
          "name": "",
          "type": "string"
        }
      ],
      "stateMutability": "view",
      "type": "function"
    },
    {
      "inputs": [
        {
          "internalType": "uint256",
          "name": "index",
          "type": "uint256"
        }
      ],
      "name": "tokenByIndex",
      "outputs": [
        {
          "internalType": "uint256",
          "name": "",
          "type": "uint256"
        }
      ],
      "stateMutability": "view",
      "type": "function"
    },
    {
      "inputs": [
        {
          "internalType": "address",
          "name": "owner",
          "type": "address"
        },
        {
          "internalType": "uint256",
          "name": "index",
          "type": "uint256"
        }
      ],
      "name": "tokenOfOwnerByIndex",
      "outputs": [
        {
          "internalType": "uint256",
          "name": "",
          "type": "uint256"
        }
      ],
      "stateMutability": "view",
      "type": "function"
    },
    {
      "inputs": [
        {
          "internalType": "uint256",
          "name": "tokenId",
          "type": "uint256"
        }
      ],
      "name": "tokenURI",
      "outputs": [
        {
          "internalType": "string",
          "name": "",
          "type": "string"
        }
      ],
      "stateMutability": "view",
      "type": "function"
    },
    {
      "inputs": [],
      "name": "totalSupply",
      "outputs": [
        {
          "internalType": "uint256",
          "name": "",
          "type": "uint256"
        }
      ],
      "stateMutability": "view",
      "type": "function"
    },
    {
      "inputs": [
        {
          "internalType": "address",
          "name": "from",
          "type": "address"
        },
        {
          "internalType": "address",
          "name": "to",
          "type": "address"
        },
        {
          "internalType": "uint256",
          "name": "tokenId",
          "type": "uint256"
        }
      ],
      "name": "transferFrom",
      "outputs": [],
      "stateMutability": "nonpayable",
      "type": "function"
    },
    {
      "inputs": [
        {
          "internalType": "address",
          "name": "newOwner",
          "type": "address"
        }
      ],
      "name": "transferOwnership",
      "outputs": [],
      "stateMutability": "nonpayable",
      "type": "function"
    },
    {
      "inputs": [],
      "name": "unpause",
      "outputs": [],
      "stateMutability": "nonpayable",
      "type": "function"
    },
    {
      "inputs": [
        {
          "internalType": "address",
          "name": "newImplementation",
          "type": "address"
        }
      ],
      "name": "upgradeTo",
      "outputs": [],
      "stateMutability": "nonpayable",
      "type": "function"
    },
    {
      "inputs": [
        {
          "internalType": "address",
          "name": "newImplementation",
          "type": "address"
        },
        {
          "internalType": "bytes",
          "name": "data",
          "type": "bytes"
        }
      ],
      "name": "upgradeToAndCall",
      "outputs": [],
      "stateMutability": "payable",
      "type": "function"
    },
    {
      "inputs": [],
      "name": "version",
      "outputs": [
        {
          "internalType": "string",
          "name": "",
          "type": "string"
        }
      ],
      "stateMutability": "pure",
      "type": "function"
    }
  ],
  "bytecode": "0x60a0604052306080523480156200001557600080fd5b506200002062000026565b620000e7565b600054610100900460ff1615620000935760405162461bcd60e51b815260206004820152602760248201527f496e697469616c697a61626c653a20636f6e747261637420697320696e697469604482015266616c697a696e6760c81b606482015260840160405180910390fd5b60005460ff90811614620000e5576000805460ff191660ff9081179091556040519081527f7f26b83ff96e1f2b6a682f133852f6798a09c465da95921460cefb38474024989060200160405180910390a15b565b608051613d946200011f60003960008181610a6f01528181610af401528181610c8b01528181610d100152610ea00152613d946000f3fe60806040526004361061026a5760003560e01c80636352211e11610153578063a22cb465116100cb578063d3bb5f2d1161007f578063e724c79811610064578063e724c798146106bb578063e985e9c5146106db578063f2fde38b1461072457600080fd5b8063d3bb5f2d1461066e578063d553ca1c1461068e57600080fd5b8063c772745a116100b0578063c772745a1461060e578063c87b56dd1461062e578063d2a1cacd1461064e57600080fd5b8063a22cb465146105ce578063b88d4fde146105ee57600080fd5b8063771f17de116101225780638456cb59116101075780638456cb59146105855780638da5cb5b1461059a57806395d89b41146105b957600080fd5b8063771f17de146105505780638129fc1c1461057057600080fd5b80636352211e146104db578063638fb59a146104fb57806370a082311461051b578063715018a61461053b57600080fd5b806342842e0e116101e657806352d1902d116101b557806357703e941161019a57806357703e94146104835780635c975abb146104a357806360ff75de146104bb57600080fd5b806352d1902d1461042857806354fd4d501461043d57600080fd5b806342842e0e146103b557806342966c68146103d55780634f1ef286146103f55780634f6ccce71461040857600080fd5b806318160ddd1161023d5780632f745c59116102225780632f745c59146103605780633659cfe6146103805780633f4ba83a146103a057600080fd5b806318160ddd1461032057806323b872dd1461034057600080fd5b806301ffc9a71461026f57806306fdde03146102a4578063081812fc146102c6578063095ea7b3146102fe575b600080fd5b34801561027b57600080fd5b5061028f61028a3660046136cd565b610744565b60405190151581526020015b60405180910390f35b3480156102b057600080fd5b506102b9610755565b60405161029b919061373a565b3480156102d257600080fd5b506102e66102e136600461374d565b6107e7565b6040516001600160a01b03909116815260200161029b565b34801561030a57600080fd5b5061031e61031936600461377d565b61080e565b005b34801561032c57600080fd5b50610229545b60405190815260200161029b565b34801561034c57600080fd5b5061031e61035b3660046137a7565b610944565b34801561036c57600080fd5b5061033261037b36600461377d565b6109bc565b34801561038c57600080fd5b5061031e61039b3660046137e3565b610a65565b3480156103ac57600080fd5b5061031e610be0565b3480156103c157600080fd5b5061031e6103d03660046137a7565b610bf2565b3480156103e157600080fd5b5061031e6103f036600461374d565b610c0d565b61031e6104033660046138a1565b610c81565b34801561041457600080fd5b5061033261042336600461374d565b610ded565b34801561043457600080fd5b50610332610e93565b34801561044957600080fd5b5060408051808201909152600581527f312e302e3000000000000000000000000000000000000000000000000000000060208201526102b9565b34801561048f57600080fd5b5061033261049e36600461377d565b610f58565b3480156104af57600080fd5b5060c95460ff1661028f565b3480156104c757600080fd5b5061028f6104d63660046138ef565b610f8a565b3480156104e757600080fd5b506102e66104f636600461374d565b611016565b34801561050757600080fd5b506102b961051636600461374d565b61107b565b34801561052757600080fd5b506103326105363660046137e3565b611176565b34801561054757600080fd5b5061031e611210565b34801561055c57600080fd5b5061031e61056b36600461391b565b611222565b34801561057c57600080fd5b5061031e6113cf565b34801561059157600080fd5b5061031e61159d565b3480156105a657600080fd5b5061012d546001600160a01b03166102e6565b3480156105c557600080fd5b506102b96115ad565b3480156105da57600080fd5b5061031e6105e936600461394c565b6115bc565b3480156105fa57600080fd5b5061031e610609366004613988565b6115c7565b34801561061a57600080fd5b5061031e6106293660046139f0565b611645565b34801561063a57600080fd5b506102b961064936600461374d565b611661565b34801561065a57600080fd5b5061031e61066936600461374d565b61166c565b34801561067a57600080fd5b506103326106893660046138ef565b61176e565b34801561069a57600080fd5b506106ae6106a93660046137e3565b611836565b60405161029b9190613a47565b3480156106c757600080fd5b5061031e6106d63660046138ef565b6118a3565b3480156106e757600080fd5b5061028f6106f6366004613a8b565b6001600160a01b039182166000908152606a6020908152604080832093909416825291909152205460ff1690565b34801561073057600080fd5b5061031e61073f3660046137e3565b611a0f565b600061074f82611a9c565b92915050565b60606065805461076490613ab5565b80601f016020809104026020016040519081016040528092919081815260200182805461079090613ab5565b80156107dd5780601f106107b2576101008083540402835291602001916107dd565b820191906000526020600020905b8154815290600101906020018083116107c057829003601f168201915b5050505050905090565b60006107f282611ada565b506000908152606960205260409020546001600160a01b031690565b600061081982611016565b9050806001600160a01b0316836001600160a01b0316036108a75760405162461bcd60e51b815260206004820152602160248201527f4552433732313a20617070726f76616c20746f2063757272656e74206f776e6560448201527f720000000000000000000000000000000000000000000000000000000000000060648201526084015b60405180910390fd5b336001600160a01b03821614806108c357506108c381336106f6565b6109355760405162461bcd60e51b815260206004820152603d60248201527f4552433732313a20617070726f76652063616c6c6572206973206e6f7420746f60448201527f6b656e206f776e6572206f7220617070726f76656420666f7220616c6c000000606482015260840161089e565b61093f8383611b3e565b505050565b61094f335b82611bac565b6109b15760405162461bcd60e51b815260206004820152602d60248201527f4552433732313a2063616c6c6572206973206e6f7420746f6b656e206f776e6560448201526c1c881bdc88185c1c1c9bdd9959609a1b606482015260840161089e565b61093f838383611c2b565b60006109c783611176565b8210610a3b5760405162461bcd60e51b815260206004820152602b60248201527f455243373231456e756d657261626c653a206f776e657220696e646578206f7560448201527f74206f6620626f756e6473000000000000000000000000000000000000000000606482015260840161089e565b506001600160a01b0391909116600090815261022760209081526040808320938352929052205490565b6001600160a01b037f0000000000000000000000000000000000000000000000000000000000000000163003610af25760405162461bcd60e51b815260206004820152602c60248201527f46756e6374696f6e206d7573742062652063616c6c6564207468726f7567682060448201526b19195b1959d85d1958d85b1b60a21b606482015260840161089e565b7f00000000000000000000000000000000000000000000000000000000000000006001600160a01b0316610b4d7f360894a13ba1a3210667c828492db98dca3e2076cc3735a920a3ca505d382bbc546001600160a01b031690565b6001600160a01b031614610bb85760405162461bcd60e51b815260206004820152602c60248201527f46756e6374696f6e206d7573742062652063616c6c6564207468726f7567682060448201526b6163746976652070726f787960a01b606482015260840161089e565b610bc181611e31565b60408051600080825260208201909252610bdd91839190611e39565b50565b610be8611fd9565b610bf0612034565b565b61093f838383604051806020016040528060008152506115c7565b610c1633610949565b610c785760405162461bcd60e51b815260206004820152602d60248201527f4552433732313a2063616c6c6572206973206e6f7420746f6b656e206f776e6560448201526c1c881bdc88185c1c1c9bdd9959609a1b606482015260840161089e565b610bdd81612086565b6001600160a01b037f0000000000000000000000000000000000000000000000000000000000000000163003610d0e5760405162461bcd60e51b815260206004820152602c60248201527f46756e6374696f6e206d7573742062652063616c6c6564207468726f7567682060448201526b19195b1959d85d1958d85b1b60a21b606482015260840161089e565b7f00000000000000000000000000000000000000000000000000000000000000006001600160a01b0316610d697f360894a13ba1a3210667c828492db98dca3e2076cc3735a920a3ca505d382bbc546001600160a01b031690565b6001600160a01b031614610dd45760405162461bcd60e51b815260206004820152602c60248201527f46756e6374696f6e206d7573742062652063616c6c6564207468726f7567682060448201526b6163746976652070726f787960a01b606482015260840161089e565b610ddd82611e31565b610de982826001611e39565b5050565b6000610df96102295490565b8210610e6d5760405162461bcd60e51b815260206004820152602c60248201527f455243373231456e756d657261626c653a20676c6f62616c20696e646578206f60448201527f7574206f6620626f756e64730000000000000000000000000000000000000000606482015260840161089e565b6102298281548110610e8157610e81613aef565b90600052602060002001549050919050565b6000306001600160a01b037f00000000000000000000000000000000000000000000000000000000000000001614610f335760405162461bcd60e51b815260206004820152603860248201527f555550535570677261646561626c653a206d757374206e6f742062652063616c60448201527f6c6564207468726f7567682064656c656761746563616c6c0000000000000000606482015260840161089e565b507f360894a13ba1a3210667c828492db98dca3e2076cc3735a920a3ca505d382bbc90565b61025a6020528160005260406000208181548110610f7557600080fd5b90600052602060002001600091509150505481565b6000805b6001600160a01b038316600090815261025a602052604090205481101561100c576001600160a01b038316600090815261025a60205260408120805483908110610fda57610fda613aef565b90600052602060002001549050808503610ff95760019250505061074f565b508061100481613b1b565b915050610f8e565b5060009392505050565b6000818152606760205260408120546001600160a01b03168061074f5760405162461bcd60e51b815260206004820152601860248201527f4552433732313a20696e76616c696420746f6b656e2049440000000000000000604482015260640161089e565b606061108561208f565b3361108f83611016565b6001600160a01b03161461110b5760405162461bcd60e51b815260206004820152602260248201527f596f7520617265206e6f7420746865206f776e6572206f662074686520746f6b60448201527f656e000000000000000000000000000000000000000000000000000000000000606482015260840161089e565b600061111683611661565b905061112183612086565b336001600160a01b03167f7b8c52e48344b6f22225b3ba1fcf8c9ac230b723461d694e762479de99ff2369848360405161115c929190613b34565b60405180910390a2905061117160016101f555565b919050565b60006001600160a01b0382166111f45760405162461bcd60e51b815260206004820152602960248201527f4552433732313a2061646472657373207a65726f206973206e6f74206120766160448201527f6c6964206f776e65720000000000000000000000000000000000000000000000606482015260840161089e565b506001600160a01b031660009081526068602052604090205490565b611218611fd9565b610bf060006120f2565b61122a61208f565b60006112368333610f8a565b90506001811515146112b05760405162461bcd60e51b815260206004820152602c60248201527f596f7520646f206e6f742068617665207065726d697373696f6e20746f206d6960448201527f6e742074686973206974656d0000000000000000000000000000000000000000606482015260840161089e565b6112ba3384612145565b6112c4838361215f565b33600090815261025a6020526040902080546112e290600190613b4d565b815481106112f2576112f2613aef565b906000526020600020015461025a6000336001600160a01b03166001600160a01b0316815260200190815260200160002061132d853361176e565b8154811061133d5761133d613aef565b600091825260208083209091019290925533815261025a9091526040902080548061136a5761136a613b60565b60019003818190600052602060002001600090559055336001600160a01b03167f6dbbddb917f6c610e1e191880f86c9f56ffbd49c4fce9b9aba38e418c627240784846040516113bb929190613b34565b60405180910390a250610de960016101f555565b600054610100900460ff16158080156113ef5750600054600160ff909116105b806114095750303b158015611409575060005460ff166001145b61147b5760405162461bcd60e51b815260206004820152602e60248201527f496e697469616c697a61626c653a20636f6e747261637420697320616c72656160448201527f647920696e697469616c697a6564000000000000000000000000000000000000606482015260840161089e565b6000805460ff19166001179055801561149e576000805461ff0019166101001790555b6115126040518060400160405280600781526020017f5572756b4e4654000000000000000000000000000000000000000000000000008152506040518060400160405280600481526020017f5552554b00000000000000000000000000000000000000000000000000000000815250612239565b61151a6122ae565b611522612319565b61152a61238c565b6115326122ae565b61153a6122ae565b6115426123ff565b61025980546001600160a01b031916331790558015610bdd576000805461ff0019169055604051600181527f7f26b83ff96e1f2b6a682f133852f6798a09c465da95921460cefb38474024989060200160405180910390a150565b6115a5611fd9565b610bf0612472565b60606066805461076490613ab5565b610de93383836124af565b6115d13383611bac565b6116335760405162461bcd60e51b815260206004820152602d60248201527f4552433732313a2063616c6c6572206973206e6f7420746f6b656e206f776e6560448201526c1c881bdc88185c1c1c9bdd9959609a1b606482015260840161089e565b61163f8484848461257d565b50505050565b61164d611fd9565b6116578382612145565b61093f818361215f565b606061074f826125fb565b33600090815261025a60205260409020805461168a90600190613b4d565b8154811061169a5761169a613aef565b906000526020600020015461025a6000336001600160a01b03166001600160a01b031681526020019081526020016000206116d5833361176e565b815481106116e5576116e5613aef565b600091825260208083209091019290925533815261025a9091526040902080548061171257611712613b60565b60019003818190600052602060002001600090559055336001600160a01b03167f1cd43aeba3478fcdcd51452939828fc22879de5b4dacd60b0a3792eb10161b8c8260405161176391815260200190565b60405180910390a250565b6000805b6001600160a01b038316600090815261025a60205260409020548110156117ed576001600160a01b038316600090815261025a602052604081208054839081106117be576117be613aef565b906000526020600020015490508085036117da5750905061074f565b50806117e581613b1b565b915050611772565b5060405162461bcd60e51b815260206004820152601f60248201527f57686974656c6973746564206974656d20646f6573206e6f7420657869737400604482015260640161089e565b6001600160a01b038116600090815261025a602090815260409182902080548351818402810184019094528084526060939283018282801561189757602002820191906000526020600020905b815481526020019060010190808311611883575b50505050509050919050565b6118ab611fd9565b6001600160a01b038116600090815261025a6020526040902054600510156119615760405162461bcd60e51b815260206004820152604960248201527f5573657220686173206d6f7265207468616e20352070656e64696e6720636c6160448201527f696d732e2048617320746f20636c61696d207468656d206265666f726520707260648201527f6f63656564696e672e0000000000000000000000000000000000000000000000608482015260a40161089e565b600061196d8383610f8a565b905080156119e35760405162461bcd60e51b815260206004820152603460248201527f54686973206974656d20697320616c726561647920616c6c6f77656420616e6460448201527f20726561647920746f20626520636c61696d6564000000000000000000000000606482015260840161089e565b506001600160a01b0316600090815261025a602090815260408220805460018101825590835291200155565b611a17611fd9565b6001600160a01b038116611a935760405162461bcd60e51b815260206004820152602660248201527f4f776e61626c653a206e6577206f776e657220697320746865207a65726f206160448201527f6464726573730000000000000000000000000000000000000000000000000000606482015260840161089e565b610bdd816120f2565b60006001600160e01b031982167f780e9d6300000000000000000000000000000000000000000000000000000000148061074f575061074f82612703565b6000818152606760205260409020546001600160a01b0316610bdd5760405162461bcd60e51b815260206004820152601860248201527f4552433732313a20696e76616c696420746f6b656e2049440000000000000000604482015260640161089e565b600081815260696020526040902080546001600160a01b0319166001600160a01b0384169081179091558190611b7382611016565b6001600160a01b03167f8c5be1e5ebec7d5bd14f71427d1e84f3dd0314c0f7b2291e5b200ac8c7c3b92560405160405180910390a45050565b600080611bb883611016565b9050806001600160a01b0316846001600160a01b03161480611bff57506001600160a01b038082166000908152606a602090815260408083209388168352929052205460ff165b80611c235750836001600160a01b0316611c18846107e7565b6001600160a01b0316145b949350505050565b826001600160a01b0316611c3e82611016565b6001600160a01b031614611ca25760405162461bcd60e51b815260206004820152602560248201527f4552433732313a207472616e736665722066726f6d20696e636f72726563742060448201526437bbb732b960d91b606482015260840161089e565b6001600160a01b038216611d1d5760405162461bcd60e51b8152602060048201526024808201527f4552433732313a207472616e7366657220746f20746865207a65726f2061646460448201527f7265737300000000000000000000000000000000000000000000000000000000606482015260840161089e565b611d2a8383836001612741565b826001600160a01b0316611d3d82611016565b6001600160a01b031614611da15760405162461bcd60e51b815260206004820152602560248201527f4552433732313a207472616e736665722066726f6d20696e636f72726563742060448201526437bbb732b960d91b606482015260840161089e565b600081815260696020908152604080832080546001600160a01b03199081169091556001600160a01b0387811680865260688552838620805460001901905590871680865283862080546001019055868652606790945282852080549092168417909155905184937fddf252ad1be2c89b69c2b068fc378daa952ba7f163c4a11628f55a4df523b3ef91a4505050565b610bdd611fd9565b7f4910fdfa16fed3260ed0e7147f7cc6da11a60208b5b9406d12a635614ffd91435460ff1615611e6c5761093f83612755565b826001600160a01b03166352d1902d6040518163ffffffff1660e01b8152600401602060405180830381865afa925050508015611ec6575060408051601f3d908101601f19168201909252611ec391810190613b76565b60015b611f385760405162461bcd60e51b815260206004820152602e60248201527f45524331393637557067726164653a206e657720696d706c656d656e7461746960448201527f6f6e206973206e6f742055555053000000000000000000000000000000000000606482015260840161089e565b7f360894a13ba1a3210667c828492db98dca3e2076cc3735a920a3ca505d382bbc8114611fcd5760405162461bcd60e51b815260206004820152602960248201527f45524331393637557067726164653a20756e737570706f727465642070726f7860448201527f6961626c65555549440000000000000000000000000000000000000000000000606482015260840161089e565b5061093f838383612813565b61012d546001600160a01b03163314610bf05760405162461bcd60e51b815260206004820181905260248201527f4f776e61626c653a2063616c6c6572206973206e6f7420746865206f776e6572604482015260640161089e565b61203c612838565b60c9805460ff191690557f5db9ee0a495bf2e6ff9c91a7834c1ba4fdd244a5e8aa4e537bd38aeae4b073aa335b6040516001600160a01b03909116815260200160405180910390a1565b610bdd8161288a565b60026101f554036120e25760405162461bcd60e51b815260206004820152601f60248201527f5265656e7472616e637947756172643a207265656e7472616e742063616c6c00604482015260640161089e565b60026101f555565b60016101f555565b61012d80546001600160a01b038381166001600160a01b0319831681179093556040519116919082907f8be0079c531659141344cd1fd0a4f28419497f9722a3daafe3b4186f6b6457e090600090a35050565b610de98282604051806020016040528060008152506128ca565b6000828152606760205260409020546001600160a01b03166121e95760405162461bcd60e51b815260206004820152602e60248201527f45524337323155524953746f726167653a2055524920736574206f66206e6f6e60448201527f6578697374656e7420746f6b656e000000000000000000000000000000000000606482015260840161089e565b60008281526097602052604090206122018282613bdd565b506040518281527ff8e1a15aba9398e019f0b49df1a4fde98ee17ae345cb5f6b5e2c27f5033e8ce79060200160405180910390a15050565b600054610100900460ff166122a45760405162461bcd60e51b815260206004820152602b60248201527f496e697469616c697a61626c653a20636f6e7472616374206973206e6f74206960448201526a6e697469616c697a696e6760a81b606482015260840161089e565b610de98282612948565b600054610100900460ff16610bf05760405162461bcd60e51b815260206004820152602b60248201527f496e697469616c697a61626c653a20636f6e7472616374206973206e6f74206960448201526a6e697469616c697a696e6760a81b606482015260840161089e565b600054610100900460ff166123845760405162461bcd60e51b815260206004820152602b60248201527f496e697469616c697a61626c653a20636f6e7472616374206973206e6f74206960448201526a6e697469616c697a696e6760a81b606482015260840161089e565b610bf06129cc565b600054610100900460ff166123f75760405162461bcd60e51b815260206004820152602b60248201527f496e697469616c697a61626c653a20636f6e7472616374206973206e6f74206960448201526a6e697469616c697a696e6760a81b606482015260840161089e565b610bf0612a43565b600054610100900460ff1661246a5760405162461bcd60e51b815260206004820152602b60248201527f496e697469616c697a61626c653a20636f6e7472616374206973206e6f74206960448201526a6e697469616c697a696e6760a81b606482015260840161089e565b610bf0612ab7565b61247a612b22565b60c9805460ff191660011790557f62e78cea01bee320cd4e420270b5ea74000d11b0c9f74754ebdbfc544b05a2586120693390565b816001600160a01b0316836001600160a01b0316036125105760405162461bcd60e51b815260206004820152601960248201527f4552433732313a20617070726f766520746f2063616c6c657200000000000000604482015260640161089e565b6001600160a01b038381166000818152606a6020908152604080832094871680845294825291829020805460ff191686151590811790915591519182527f17307eab39ab6107e8899845ad3d59bd9653f200f220920489ca2b5937696c31910160405180910390a3505050565b612588848484611c2b565b61259484848484612b75565b61163f5760405162461bcd60e51b815260206004820152603260248201527f4552433732313a207472616e7366657220746f206e6f6e20455243373231526560448201527131b2b4bb32b91034b6b83632b6b2b73a32b960711b606482015260840161089e565b606061260682611ada565b6000828152609760205260408120805461261f90613ab5565b80601f016020809104026020016040519081016040528092919081815260200182805461264b90613ab5565b80156126985780601f1061266d57610100808354040283529160200191612698565b820191906000526020600020905b81548152906001019060200180831161267b57829003601f168201915b5050505050905060006126b660408051602081019091526000815290565b905080516000036126c8575092915050565b8151156126fa5780826040516020016126e2929190613c9d565b60405160208183030381529060405292505050919050565b611c2384612cc1565b60006001600160e01b031982167f4906490600000000000000000000000000000000000000000000000000000000148061074f575061074f82612d35565b612749612b22565b61163f84848484612dd0565b6001600160a01b0381163b6127d25760405162461bcd60e51b815260206004820152602d60248201527f455243313936373a206e657720696d706c656d656e746174696f6e206973206e60448201527f6f74206120636f6e747261637400000000000000000000000000000000000000606482015260840161089e565b7f360894a13ba1a3210667c828492db98dca3e2076cc3735a920a3ca505d382bbc80546001600160a01b0319166001600160a01b0392909216919091179055565b61281c83612f1a565b6000825111806128295750805b1561093f5761163f8383612f5a565b60c95460ff16610bf05760405162461bcd60e51b815260206004820152601460248201527f5061757361626c653a206e6f7420706175736564000000000000000000000000604482015260640161089e565b61289381612f7f565b600081815260976020526040902080546128ac90613ab5565b159050610bdd576000818152609760205260408120610bdd91613669565b6128d48383613022565b6128e16000848484612b75565b61093f5760405162461bcd60e51b815260206004820152603260248201527f4552433732313a207472616e7366657220746f206e6f6e20455243373231526560448201527131b2b4bb32b91034b6b83632b6b2b73a32b960711b606482015260840161089e565b600054610100900460ff166129b35760405162461bcd60e51b815260206004820152602b60248201527f496e697469616c697a61626c653a20636f6e7472616374206973206e6f74206960448201526a6e697469616c697a696e6760a81b606482015260840161089e565b60656129bf8382613bdd565b50606661093f8282613bdd565b600054610100900460ff16612a375760405162461bcd60e51b815260206004820152602b60248201527f496e697469616c697a61626c653a20636f6e7472616374206973206e6f74206960448201526a6e697469616c697a696e6760a81b606482015260840161089e565b60c9805460ff19169055565b600054610100900460ff16612aae5760405162461bcd60e51b815260206004820152602b60248201527f496e697469616c697a61626c653a20636f6e7472616374206973206e6f74206960448201526a6e697469616c697a696e6760a81b606482015260840161089e565b610bf0336120f2565b600054610100900460ff166120ea5760405162461bcd60e51b815260206004820152602b60248201527f496e697469616c697a61626c653a20636f6e7472616374206973206e6f74206960448201526a6e697469616c697a696e6760a81b606482015260840161089e565b60c95460ff1615610bf05760405162461bcd60e51b815260206004820152601060248201527f5061757361626c653a2070617573656400000000000000000000000000000000604482015260640161089e565b60006001600160a01b0384163b15612cb657604051630a85bd0160e11b81526001600160a01b0385169063150b7a0290612bb9903390899088908890600401613ccc565b6020604051808303816000875af1925050508015612bf4575060408051601f3d908101601f19168201909252612bf191810190613cfe565b60015b612c9c573d808015612c22576040519150601f19603f3d011682016040523d82523d6000602084013e612c27565b606091505b508051600003612c945760405162461bcd60e51b815260206004820152603260248201527f4552433732313a207472616e7366657220746f206e6f6e20455243373231526560448201527131b2b4bb32b91034b6b83632b6b2b73a32b960711b606482015260840161089e565b805181602001fd5b6001600160e01b031916630a85bd0160e11b149050611c23565b506001949350505050565b6060612ccc82611ada565b6000612ce360408051602081019091526000815290565b90506000815111612d035760405180602001604052806000815250612d2e565b80612d0d846131bb565b604051602001612d1e929190613c9d565b6040516020818303038152906040525b9392505050565b60006001600160e01b031982167f80ac58cd000000000000000000000000000000000000000000000000000000001480612d9857506001600160e01b031982167f5b5e139f00000000000000000000000000000000000000000000000000000000145b8061074f57507f01ffc9a7000000000000000000000000000000000000000000000000000000006001600160e01b031983161461074f565b612ddc8484848461325b565b6001811115612e535760405162461bcd60e51b815260206004820152603560248201527f455243373231456e756d657261626c653a20636f6e736563757469766520747260448201527f616e7366657273206e6f7420737570706f727465640000000000000000000000606482015260840161089e565b816001600160a01b038516612eb157612eac816102298054600083815261022a60205260408120829055600182018355919091527fb2908d3c6bbcc650627dd31890ddad23e4bcc754fc3daa98d751d51bd01a18990155565b612ed4565b836001600160a01b0316856001600160a01b031614612ed457612ed485826132d4565b6001600160a01b038416612ef057612eeb81613376565b612f13565b846001600160a01b0316846001600160a01b031614612f1357612f13848261342b565b5050505050565b612f2381612755565b6040516001600160a01b038216907fbc7cd75a20ee27fd9adebab32041f755214dbc6bffa90cc0225b39da2e5c2d3b90600090a250565b6060612d2e8383604051806060016040528060278152602001613d3860279139613471565b6000612f8a82611016565b9050612f9a816000846001612741565b612fa382611016565b600083815260696020908152604080832080546001600160a01b03199081169091556001600160a01b0385168085526068845282852080546000190190558785526067909352818420805490911690555192935084927fddf252ad1be2c89b69c2b068fc378daa952ba7f163c4a11628f55a4df523b3ef908390a45050565b6001600160a01b0382166130785760405162461bcd60e51b815260206004820181905260248201527f4552433732313a206d696e7420746f20746865207a65726f2061646472657373604482015260640161089e565b6000818152606760205260409020546001600160a01b0316156130dd5760405162461bcd60e51b815260206004820152601c60248201527f4552433732313a20746f6b656e20616c7265616479206d696e74656400000000604482015260640161089e565b6130eb600083836001612741565b6000818152606760205260409020546001600160a01b0316156131505760405162461bcd60e51b815260206004820152601c60248201527f4552433732313a20746f6b656e20616c7265616479206d696e74656400000000604482015260640161089e565b6001600160a01b038216600081815260686020908152604080832080546001019055848352606790915280822080546001600160a01b0319168417905551839291907fddf252ad1be2c89b69c2b068fc378daa952ba7f163c4a11628f55a4df523b3ef908290a45050565b606060006131c8836134e9565b600101905060008167ffffffffffffffff8111156131e8576131e86137fe565b6040519080825280601f01601f191660200182016040528015613212576020820181803683370190505b5090508181016020015b600019017f3031323334353637383961626364656600000000000000000000000000000000600a86061a8153600a850494508461321c57509392505050565b60c95460ff161561163f5760405162461bcd60e51b815260206004820152602b60248201527f4552433732315061757361626c653a20746f6b656e207472616e73666572207760448201527f68696c6520706175736564000000000000000000000000000000000000000000606482015260840161089e565b600060016132e184611176565b6132eb9190613b4d565b60008381526102286020526040902054909150808214613341576001600160a01b038416600090815261022760209081526040808320858452825280832054848452818420819055835261022890915290208190555b506000918252610228602090815260408084208490556001600160a01b03909416835261022781528383209183525290812055565b6102295460009061338990600190613b4d565b600083815261022a602052604081205461022980549394509092849081106133b3576133b3613aef565b906000526020600020015490508061022983815481106133d5576133d5613aef565b600091825260208083209091019290925582815261022a909152604080822084905585825281205561022980548061340f5761340f613b60565b6001900381819060005260206000200160009055905550505050565b600061343683611176565b6001600160a01b0390931660009081526102276020908152604080832086845282528083208590559382526102289052919091209190915550565b6060600080856001600160a01b03168560405161348e9190613d1b565b600060405180830381855af49150503d80600081146134c9576040519150601f19603f3d011682016040523d82523d6000602084013e6134ce565b606091505b50915091506134df868383876135cb565b9695505050505050565b6000807a184f03e93ff9f4daa797ed6e38ed64bf6a1f0100000000000000008310613532577a184f03e93ff9f4daa797ed6e38ed64bf6a1f010000000000000000830492506040015b6d04ee2d6d415b85acef8100000000831061355e576d04ee2d6d415b85acef8100000000830492506020015b662386f26fc10000831061357c57662386f26fc10000830492506010015b6305f5e1008310613594576305f5e100830492506008015b61271083106135a857612710830492506004015b606483106135ba576064830492506002015b600a831061074f5760010192915050565b6060831561363a578251600003613633576001600160a01b0385163b6136335760405162461bcd60e51b815260206004820152601d60248201527f416464726573733a2063616c6c20746f206e6f6e2d636f6e7472616374000000604482015260640161089e565b5081611c23565b611c23838381511561364f5781518083602001fd5b8060405162461bcd60e51b815260040161089e919061373a565b50805461367590613ab5565b6000825580601f10613685575050565b601f016020900490600052602060002090810190610bdd91905b808211156136b3576000815560010161369f565b5090565b6001600160e01b031981168114610bdd57600080fd5b6000602082840312156136df57600080fd5b8135612d2e816136b7565b60005b838110156137055781810151838201526020016136ed565b50506000910152565b600081518084526137268160208601602086016136ea565b601f01601f19169290920160200192915050565b602081526000612d2e602083018461370e565b60006020828403121561375f57600080fd5b5035919050565b80356001600160a01b038116811461117157600080fd5b6000806040838503121561379057600080fd5b61379983613766565b946020939093013593505050565b6000806000606084860312156137bc57600080fd5b6137c584613766565b92506137d360208501613766565b9150604084013590509250925092565b6000602082840312156137f557600080fd5b612d2e82613766565b634e487b7160e01b600052604160045260246000fd5b600082601f83011261382557600080fd5b813567ffffffffffffffff80821115613840576138406137fe565b604051601f8301601f19908116603f01168101908282118183101715613868576138686137fe565b8160405283815286602085880101111561388157600080fd5b836020870160208301376000602085830101528094505050505092915050565b600080604083850312156138b457600080fd5b6138bd83613766565b9150602083013567ffffffffffffffff8111156138d957600080fd5b6138e585828601613814565b9150509250929050565b6000806040838503121561390257600080fd5b8235915061391260208401613766565b90509250929050565b6000806040838503121561392e57600080fd5b82359150602083013567ffffffffffffffff8111156138d957600080fd5b6000806040838503121561395f57600080fd5b61396883613766565b91506020830135801515811461397d57600080fd5b809150509250929050565b6000806000806080858703121561399e57600080fd5b6139a785613766565b93506139b560208601613766565b925060408501359150606085013567ffffffffffffffff8111156139d857600080fd5b6139e487828801613814565b91505092959194509250565b600080600060608486031215613a0557600080fd5b613a0e84613766565b9250602084013567ffffffffffffffff811115613a2a57600080fd5b613a3686828701613814565b925050604084013590509250925092565b6020808252825182820181905260009190848201906040850190845b81811015613a7f57835183529284019291840191600101613a63565b50909695505050505050565b60008060408385031215613a9e57600080fd5b613aa783613766565b915061391260208401613766565b600181811c90821680613ac957607f821691505b602082108103613ae957634e487b7160e01b600052602260045260246000fd5b50919050565b634e487b7160e01b600052603260045260246000fd5b634e487b7160e01b600052601160045260246000fd5b600060018201613b2d57613b2d613b05565b5060010190565b828152604060208201526000611c23604083018461370e565b8181038181111561074f5761074f613b05565b634e487b7160e01b600052603160045260246000fd5b600060208284031215613b8857600080fd5b5051919050565b601f82111561093f57600081815260208120601f850160051c81016020861015613bb65750805b601f850160051c820191505b81811015613bd557828155600101613bc2565b505050505050565b815167ffffffffffffffff811115613bf757613bf76137fe565b613c0b81613c058454613ab5565b84613b8f565b602080601f831160018114613c405760008415613c285750858301515b600019600386901b1c1916600185901b178555613bd5565b600085815260208120601f198616915b82811015613c6f57888601518255948401946001909101908401613c50565b5085821015613c8d5787850151600019600388901b60f8161c191681555b5050505050600190811b01905550565b60008351613caf8184602088016136ea565b835190830190613cc38183602088016136ea565b01949350505050565b60006001600160a01b038087168352808616602084015250836040830152608060608301526134df608083018461370e565b600060208284031215613d1057600080fd5b8151612d2e816136b7565b60008251613d2d8184602087016136ea565b919091019291505056fe416464726573733a206c6f772d6c6576656c2064656c65676174652063616c6c206661696c6564a2646970667358221220ea99875960907287c269941587c0b69a5343c79fc79198e52f4465427919c96364736f6c63430008130033",
  "linkReferences": {},
  "deployedLinkReferences": {}
}