{
  "_format": "hh-sol-artifact-1",
  "contractName": "UrukNFT102",
  "sourceName": "contracts/UrukNFT102.sol",
  "abi": [
    {
      "inputs": [],
      "stateMutability": "nonpayable",
      "type": "constructor"
    },
    {
      "anonymous": false,
      "inputs": [
        {
          "indexed": false,
          "internalType": "address",
          "name": "previousAdmin",
          "type": "address"
        },
        {
          "indexed": false,
          "internalType": "address",
          "name": "newAdmin",
          "type": "address"
        }
      ],
      "name": "AdminChanged",
      "type": "event"
    },
    {
      "anonymous": false,
      "inputs": [
        {
          "indexed": true,
          "internalType": "address",
          "name": "owner",
          "type": "address"
        },
        {
          "indexed": true,
          "internalType": "address",
          "name": "approved",
          "type": "address"
        },
        {
          "indexed": true,
          "internalType": "uint256",
          "name": "tokenId",
          "type": "uint256"
        }
      ],
      "name": "Approval",
      "type": "event"
    },
    {
      "anonymous": false,
      "inputs": [
        {
          "indexed": true,
          "internalType": "address",
          "name": "owner",
          "type": "address"
        },
        {
          "indexed": true,
          "internalType": "address",
          "name": "operator",
          "type": "address"
        },
        {
          "indexed": false,
          "internalType": "bool",
          "name": "approved",
          "type": "bool"
        }
      ],
      "name": "ApprovalForAll",
      "type": "event"
    },
    {
      "anonymous": false,
      "inputs": [
        {
          "indexed": false,
          "internalType": "uint256",
          "name": "_fromTokenId",
          "type": "uint256"
        },
        {
          "indexed": false,
          "internalType": "uint256",
          "name": "_toTokenId",
          "type": "uint256"
        }
      ],
      "name": "BatchMetadataUpdate",
      "type": "event"
    },
    {
      "anonymous": false,
      "inputs": [
        {
          "indexed": true,
          "internalType": "address",
          "name": "beacon",
          "type": "address"
        }
      ],
      "name": "BeaconUpgraded",
      "type": "event"
    },
    {
      "anonymous": false,
      "inputs": [
        {
          "indexed": false,
          "internalType": "uint8",
          "name": "version",
          "type": "uint8"
        }
      ],
      "name": "Initialized",
      "type": "event"
    },
    {
      "anonymous": false,
      "inputs": [
        {
          "indexed": true,
          "internalType": "address",
          "name": "user",
          "type": "address"
        },
        {
          "indexed": false,
          "internalType": "uint256",
          "name": "uniqueId",
          "type": "uint256"
        },
        {
          "indexed": false,
          "internalType": "string",
          "name": "uri",
          "type": "string"
        }
      ],
      "name": "ItemExported",
      "type": "event"
    },
    {
      "anonymous": false,
      "inputs": [
        {
          "indexed": true,
          "internalType": "address",
          "name": "user",
          "type": "address"
        },
        {
          "indexed": false,
          "internalType": "uint256",
          "name": "uniqueId",
          "type": "uint256"
        },
        {
          "indexed": false,
          "internalType": "string",
          "name": "uri",
          "type": "string"
        }
      ],
      "name": "ItemImported",
      "type": "event"
    },
    {
      "anonymous": false,
      "inputs": [
        {
          "indexed": false,
          "internalType": "uint256",
          "name": "_tokenId",
          "type": "uint256"
        }
      ],
      "name": "MetadataUpdate",
      "type": "event"
    },
    {
      "anonymous": false,
      "inputs": [
        {
          "indexed": true,
          "internalType": "address",
          "name": "previousOwner",
          "type": "address"
        },
        {
          "indexed": true,
          "internalType": "address",
          "name": "newOwner",
          "type": "address"
        }
      ],
      "name": "OwnershipTransferred",
      "type": "event"
    },
    {
      "anonymous": false,
      "inputs": [
        {
          "indexed": false,
          "internalType": "address",
          "name": "account",
          "type": "address"
        }
      ],
      "name": "Paused",
      "type": "event"
    },
    {
      "anonymous": false,
      "inputs": [
        {
          "indexed": true,
          "internalType": "address",
          "name": "user",
          "type": "address"
        },
        {
          "indexed": false,
          "internalType": "uint256",
          "name": "uniqueId",
          "type": "uint256"
        }
      ],
      "name": "PendingWhitelistRemoved",
      "type": "event"
    },
    {
      "anonymous": false,
      "inputs": [
        {
          "indexed": true,
          "internalType": "address",
          "name": "from",
          "type": "address"
        },
        {
          "indexed": true,
          "internalType": "address",
          "name": "to",
          "type": "address"
        },
        {
          "indexed": true,
          "internalType": "uint256",
          "name": "tokenId",
          "type": "uint256"
        }
      ],
      "name": "Transfer",
      "type": "event"
    },
    {
      "anonymous": false,
      "inputs": [
        {
          "indexed": false,
          "internalType": "address",
          "name": "account",
          "type": "address"
        }
      ],
      "name": "Unpaused",
      "type": "event"
    },
    {
      "anonymous": false,
      "inputs": [
        {
          "indexed": true,
          "internalType": "address",
          "name": "implementation",
          "type": "address"
        }
      ],
      "name": "Upgraded",
      "type": "event"
    },
    {
      "inputs": [
        {
          "internalType": "uint256",
          "name": "backendUniqueId",
          "type": "uint256"
        },
        {
          "internalType": "address",
          "name": "walletAddress",
          "type": "address"
        }
      ],
      "name": "allowItemToBeExported",
      "outputs": [],
      "stateMutability": "nonpayable",
      "type": "function"
    },
    {
      "inputs": [
        {
          "internalType": "address",
          "name": "",
          "type": "address"
        },
        {
          "internalType": "uint256",
          "name": "",
          "type": "uint256"
        }
      ],
      "name": "allowedItems",
      "outputs": [
        {
          "internalType": "uint256",
          "name": "",
          "type": "uint256"
        }
      ],
      "stateMutability": "view",
      "type": "function"
    },
    {
      "inputs": [
        {
          "internalType": "address",
          "name": "to",
          "type": "address"
        },
        {
          "internalType": "uint256",
          "name": "tokenId",
          "type": "uint256"
        }
      ],
      "name": "approve",
      "outputs": [],
      "stateMutability": "nonpayable",
      "type": "function"
    },
    {
      "inputs": [
        {
          "internalType": "address",
          "name": "owner",
          "type": "address"
        }
      ],
      "name": "balanceOf",
      "outputs": [
        {
          "internalType": "uint256",
          "name": "",
          "type": "uint256"
        }
      ],
      "stateMutability": "view",
      "type": "function"
    },
    {
      "inputs": [
        {
          "internalType": "uint256",
          "name": "tokenId",
          "type": "uint256"
        }
      ],
      "name": "burn",
      "outputs": [],
      "stateMutability": "nonpayable",
      "type": "function"
    },
    {
      "inputs": [
        {
          "internalType": "uint256",
          "name": "backendUniqueId",
          "type": "uint256"
        }
      ],
      "name": "deletePendingExport",
      "outputs": [],
      "stateMutability": "nonpayable",
      "type": "function"
    },
    {
      "inputs": [
        {
          "internalType": "uint256",
          "name": "backendUniqueId",
          "type": "uint256"
        },
        {
          "internalType": "string",
          "name": "uri",
          "type": "string"
        }
      ],
      "name": "exportItemToNft",
      "outputs": [],
      "stateMutability": "payable",
      "type": "function"
    },
    {
      "inputs": [
        {
          "internalType": "uint256",
          "name": "backendUniqueId",
          "type": "uint256"
        },
        {
          "internalType": "address",
          "name": "walletAddress",
          "type": "address"
        }
      ],
      "name": "findWhitelistedItemIndex",
      "outputs": [
        {
          "internalType": "uint256",
          "name": "",
          "type": "uint256"
        }
      ],
      "stateMutability": "view",
      "type": "function"
    },
    {
      "inputs": [
        {
          "internalType": "uint256",
          "name": "tokenId",
          "type": "uint256"
        }
      ],
      "name": "getApproved",
      "outputs": [
        {
          "internalType": "address",
          "name": "",
          "type": "address"
        }
      ],
      "stateMutability": "view",
      "type": "function"
    },
    {
      "inputs": [
        {
          "internalType": "address",
          "name": "walletAddress",
          "type": "address"
        }
      ],
      "name": "getItemsWhitelisted",
      "outputs": [
        {
          "internalType": "uint256[]",
          "name": "",
          "type": "uint256[]"
        }
      ],
      "stateMutability": "view",
      "type": "function"
    },
    {
      "inputs": [],
      "name": "getMintingFee",
      "outputs": [
        {
          "internalType": "uint256",
          "name": "",
          "type": "uint256"
        }
      ],
      "stateMutability": "view",
      "type": "function"
    },
    {
      "inputs": [
        {
          "internalType": "uint256",
          "name": "tokenId",
          "type": "uint256"
        }
      ],
      "name": "importNftToItem",
      "outputs": [
        {
          "internalType": "string",
          "name": "",
          "type": "string"
        }
      ],
      "stateMutability": "nonpayable",
      "type": "function"
    },
    {
      "inputs": [],
      "name": "initialize",
      "outputs": [],
      "stateMutability": "nonpayable",
      "type": "function"
    },
    {
      "inputs": [
        {
          "internalType": "address",
          "name": "owner",
          "type": "address"
        },
        {
          "internalType": "address",
          "name": "operator",
          "type": "address"
        }
      ],
      "name": "isApprovedForAll",
      "outputs": [
        {
          "internalType": "bool",
          "name": "",
          "type": "bool"
        }
      ],
      "stateMutability": "view",
      "type": "function"
    },
    {
      "inputs": [
        {
          "internalType": "uint256",
          "name": "backendUniqueId",
          "type": "uint256"
        },
        {
          "internalType": "address",
          "name": "walletAddress",
          "type": "address"
        }
      ],
      "name": "itemIsWhiteListed",
      "outputs": [
        {
          "internalType": "bool",
          "name": "",
          "type": "bool"
        }
      ],
      "stateMutability": "view",
      "type": "function"
    },
    {
      "inputs": [],
      "name": "mintingFee",
      "outputs": [
        {
          "internalType": "uint256",
          "name": "",
          "type": "uint256"
        }
      ],
      "stateMutability": "view",
      "type": "function"
    },
    {
      "inputs": [],
      "name": "name",
      "outputs": [
        {
          "internalType": "string",
          "name": "",
          "type": "string"
        }
      ],
      "stateMutability": "view",
      "type": "function"
    },
    {
      "inputs": [],
      "name": "owner",
      "outputs": [
        {
          "internalType": "address",
          "name": "",
          "type": "address"
        }
      ],
      "stateMutability": "view",
      "type": "function"
    },
    {
      "inputs": [
        {
          "internalType": "uint256",
          "name": "tokenId",
          "type": "uint256"
        }
      ],
      "name": "ownerOf",
      "outputs": [
        {
          "internalType": "address",
          "name": "",
          "type": "address"
        }
      ],
      "stateMutability": "view",
      "type": "function"
    },
    {
      "inputs": [],
      "name": "pause",
      "outputs": [],
      "stateMutability": "nonpayable",
      "type": "function"
    },
    {
      "inputs": [],
      "name": "paused",
      "outputs": [
        {
          "internalType": "bool",
          "name": "",
          "type": "bool"
        }
      ],
      "stateMutability": "view",
      "type": "function"
    },
    {
      "inputs": [],
      "name": "proxiableUUID",
      "outputs": [
        {
          "internalType": "bytes32",
          "name": "",
          "type": "bytes32"
        }
      ],
      "stateMutability": "view",
      "type": "function"
    },
    {
      "inputs": [],
      "name": "renounceOwnership",
      "outputs": [],
      "stateMutability": "nonpayable",
      "type": "function"
    },
    {
      "inputs": [
        {
          "internalType": "address",
          "name": "to",
          "type": "address"
        },
        {
          "internalType": "string",
          "name": "uri",
          "type": "string"
        },
        {
          "internalType": "uint256",
          "name": "backendUniqueId",
          "type": "uint256"
        }
      ],
      "name": "safeMint",
      "outputs": [],
      "stateMutability": "nonpayable",
      "type": "function"
    },
    {
      "inputs": [
        {
          "internalType": "address",
          "name": "from",
          "type": "address"
        },
        {
          "internalType": "address",
          "name": "to",
          "type": "address"
        },
        {
          "internalType": "uint256",
          "name": "tokenId",
          "type": "uint256"
        }
      ],
      "name": "safeTransferFrom",
      "outputs": [],
      "stateMutability": "nonpayable",
      "type": "function"
    },
    {
      "inputs": [
        {
          "internalType": "address",
          "name": "from",
          "type": "address"
        },
        {
          "internalType": "address",
          "name": "to",
          "type": "address"
        },
        {
          "internalType": "uint256",
          "name": "tokenId",
          "type": "uint256"
        },
        {
          "internalType": "bytes",
          "name": "data",
          "type": "bytes"
        }
      ],
      "name": "safeTransferFrom",
      "outputs": [],
      "stateMutability": "nonpayable",
      "type": "function"
    },
    {
      "inputs": [
        {
          "internalType": "address",
          "name": "operator",
          "type": "address"
        },
        {
          "internalType": "bool",
          "name": "approved",
          "type": "bool"
        }
      ],
      "name": "setApprovalForAll",
      "outputs": [],
      "stateMutability": "nonpayable",
      "type": "function"
    },
    {
      "inputs": [
        {
          "internalType": "uint256",
          "name": "_fee",
          "type": "uint256"
        }
      ],
      "name": "setMintingFee",
      "outputs": [],
      "stateMutability": "nonpayable",
      "type": "function"
    },
    {
      "inputs": [
        {
          "internalType": "bytes4",
          "name": "interfaceId",
          "type": "bytes4"
        }
      ],
      "name": "supportsInterface",
      "outputs": [
        {
          "internalType": "bool",
          "name": "",
          "type": "bool"
        }
      ],
      "stateMutability": "view",
      "type": "function"
    },
    {
      "inputs": [],
      "name": "symbol",
      "outputs": [
        {
          "internalType": "string",
          "name": "",
          "type": "string"
        }
      ],
      "stateMutability": "view",
      "type": "function"
    },
    {
      "inputs": [
        {
          "internalType": "uint256",
          "name": "index",
          "type": "uint256"
        }
      ],
      "name": "tokenByIndex",
      "outputs": [
        {
          "internalType": "uint256",
          "name": "",
          "type": "uint256"
        }
      ],
      "stateMutability": "view",
      "type": "function"
    },
    {
      "inputs": [
        {
          "internalType": "address",
          "name": "owner",
          "type": "address"
        },
        {
          "internalType": "uint256",
          "name": "index",
          "type": "uint256"
        }
      ],
      "name": "tokenOfOwnerByIndex",
      "outputs": [
        {
          "internalType": "uint256",
          "name": "",
          "type": "uint256"
        }
      ],
      "stateMutability": "view",
      "type": "function"
    },
    {
      "inputs": [
        {
          "internalType": "uint256",
          "name": "tokenId",
          "type": "uint256"
        }
      ],
      "name": "tokenURI",
      "outputs": [
        {
          "internalType": "string",
          "name": "",
          "type": "string"
        }
      ],
      "stateMutability": "view",
      "type": "function"
    },
    {
      "inputs": [],
      "name": "totalSupply",
      "outputs": [
        {
          "internalType": "uint256",
          "name": "",
          "type": "uint256"
        }
      ],
      "stateMutability": "view",
      "type": "function"
    },
    {
      "inputs": [
        {
          "internalType": "address",
          "name": "from",
          "type": "address"
        },
        {
          "internalType": "address",
          "name": "to",
          "type": "address"
        },
        {
          "internalType": "uint256",
          "name": "tokenId",
          "type": "uint256"
        }
      ],
      "name": "transferFrom",
      "outputs": [],
      "stateMutability": "nonpayable",
      "type": "function"
    },
    {
      "inputs": [
        {
          "internalType": "address",
          "name": "newOwner",
          "type": "address"
        }
      ],
      "name": "transferOwnership",
      "outputs": [],
      "stateMutability": "nonpayable",
      "type": "function"
    },
    {
      "inputs": [],
      "name": "unpause",
      "outputs": [],
      "stateMutability": "nonpayable",
      "type": "function"
    },
    {
      "inputs": [
        {
          "internalType": "address",
          "name": "newImplementation",
          "type": "address"
        }
      ],
      "name": "upgradeTo",
      "outputs": [],
      "stateMutability": "nonpayable",
      "type": "function"
    },
    {
      "inputs": [
        {
          "internalType": "address",
          "name": "newImplementation",
          "type": "address"
        },
        {
          "internalType": "bytes",
          "name": "data",
          "type": "bytes"
        }
      ],
      "name": "upgradeToAndCall",
      "outputs": [],
      "stateMutability": "payable",
      "type": "function"
    },
    {
      "inputs": [],
      "name": "version",
      "outputs": [
        {
          "internalType": "string",
          "name": "",
          "type": "string"
        }
      ],
      "stateMutability": "pure",
      "type": "function"
    },
    {
      "inputs": [],
      "name": "withdraw",
      "outputs": [],
      "stateMutability": "nonpayable",
      "type": "function"
    }
  ],
  "bytecode": "0x60a0604052306080523480156200001557600080fd5b506200002062000026565b620000e7565b600054610100900460ff1615620000935760405162461bcd60e51b815260206004820152602760248201527f496e697469616c697a61626c653a20636f6e747261637420697320696e697469604482015266616c697a696e6760c81b606482015260840160405180910390fd5b60005460ff90811614620000e5576000805460ff191660ff9081179091556040519081527f7f26b83ff96e1f2b6a682f133852f6798a09c465da95921460cefb38474024989060200160405180910390a15b565b608051613f466200011f60003960008181610b2e01528181610bb301528181610ddf01528181610e640152610ff40152613f466000f3fe6080604052600436106102c65760003560e01c806360ff75de11610179578063a22cb465116100d6578063d2a1cacd1161008a578063e724c79811610064578063e724c7981461076c578063e985e9c51461078c578063f2fde38b146107d557600080fd5b8063d2a1cacd146106ff578063d3bb5f2d1461071f578063d553ca1c1461073f57600080fd5b8063b88d4fde116100bb578063b88d4fde1461069f578063c772745a146106bf578063c87b56dd146106df57600080fd5b8063a22cb46514610669578063b59d88a91461068957600080fd5b8063771f17de1161012d5780638456cb59116101125780638456cb59146106205780638da5cb5b1461063557806395d89b411461065457600080fd5b8063771f17de146105f85780638129fc1c1461060b57600080fd5b8063638fb59a1161015e578063638fb59a146105a357806370a08231146105c3578063715018a6146105e357600080fd5b806360ff75de146105635780636352211e1461058357600080fd5b80633f4ba83a1161022757806352d1902d116101db57806357703e94116101c057806357703e94146105145780635a64ad95146105345780635c975abb1461054b57600080fd5b806352d1902d146104b957806354fd4d50146104ce57600080fd5b806342966c681161020c57806342966c68146104665780634f1ef286146104865780634f6ccce71461049957600080fd5b80633f4ba83a1461043157806342842e0e1461044657600080fd5b8063238a47091161027e5780632f745c59116102635780632f745c59146103dc5780633659cfe6146103fc5780633ccfd60b1461041c57600080fd5b8063238a47091461039c57806323b872dd146103bc57600080fd5b8063081812fc116102af578063081812fc14610322578063095ea7b31461035a57806318160ddd1461037c57600080fd5b806301ffc9a7146102cb57806306fdde0314610300575b600080fd5b3480156102d757600080fd5b506102eb6102e636600461387f565b6107f5565b60405190151581526020015b60405180910390f35b34801561030c57600080fd5b50610315610806565b6040516102f791906138ec565b34801561032e57600080fd5b5061034261033d3660046138ff565b610898565b6040516001600160a01b0390911681526020016102f7565b34801561036657600080fd5b5061037a61037536600461392f565b6108bf565b005b34801561038857600080fd5b50610229545b6040519081526020016102f7565b3480156103a857600080fd5b5061037a6103b73660046138ff565b6109f5565b3480156103c857600080fd5b5061037a6103d7366004613959565b610a03565b3480156103e857600080fd5b5061038e6103f736600461392f565b610a7b565b34801561040857600080fd5b5061037a610417366004613995565b610b24565b34801561042857600080fd5b5061037a610c9f565b34801561043d57600080fd5b5061037a610d34565b34801561045257600080fd5b5061037a610461366004613959565b610d46565b34801561047257600080fd5b5061037a6104813660046138ff565b610d61565b61037a610494366004613a53565b610dd5565b3480156104a557600080fd5b5061038e6104b43660046138ff565b610f41565b3480156104c557600080fd5b5061038e610fe7565b3480156104da57600080fd5b5060408051808201909152600581527f312e302e320000000000000000000000000000000000000000000000000000006020820152610315565b34801561052057600080fd5b5061038e61052f36600461392f565b6110ac565b34801561054057600080fd5b5061038e61025b5481565b34801561055757600080fd5b5060c95460ff166102eb565b34801561056f57600080fd5b506102eb61057e366004613aa1565b6110de565b34801561058f57600080fd5b5061034261059e3660046138ff565b61116a565b3480156105af57600080fd5b506103156105be3660046138ff565b6111cf565b3480156105cf57600080fd5b5061038e6105de366004613995565b6112ca565b3480156105ef57600080fd5b5061037a611364565b61037a610606366004613acd565b611376565b34801561061757600080fd5b5061037a611575565b34801561062c57600080fd5b5061037a61174f565b34801561064157600080fd5b5061012d546001600160a01b0316610342565b34801561066057600080fd5b5061031561175f565b34801561067557600080fd5b5061037a610684366004613afe565b61176e565b34801561069557600080fd5b5061025b5461038e565b3480156106ab57600080fd5b5061037a6106ba366004613b3a565b611779565b3480156106cb57600080fd5b5061037a6106da366004613ba2565b6117f7565b3480156106eb57600080fd5b506103156106fa3660046138ff565b611813565b34801561070b57600080fd5b5061037a61071a3660046138ff565b61181e565b34801561072b57600080fd5b5061038e61073a366004613aa1565b611920565b34801561074b57600080fd5b5061075f61075a366004613995565b6119e8565b6040516102f79190613bf9565b34801561077857600080fd5b5061037a610787366004613aa1565b611a55565b34801561079857600080fd5b506102eb6107a7366004613c3d565b6001600160a01b039182166000908152606a6020908152604080832093909416825291909152205460ff1690565b3480156107e157600080fd5b5061037a6107f0366004613995565b611bc1565b600061080082611c4e565b92915050565b60606065805461081590613c67565b80601f016020809104026020016040519081016040528092919081815260200182805461084190613c67565b801561088e5780601f106108635761010080835404028352916020019161088e565b820191906000526020600020905b81548152906001019060200180831161087157829003601f168201915b5050505050905090565b60006108a382611c8c565b506000908152606960205260409020546001600160a01b031690565b60006108ca8261116a565b9050806001600160a01b0316836001600160a01b0316036109585760405162461bcd60e51b815260206004820152602160248201527f4552433732313a20617070726f76616c20746f2063757272656e74206f776e6560448201527f720000000000000000000000000000000000000000000000000000000000000060648201526084015b60405180910390fd5b336001600160a01b0382161480610974575061097481336107a7565b6109e65760405162461bcd60e51b815260206004820152603d60248201527f4552433732313a20617070726f76652063616c6c6572206973206e6f7420746f60448201527f6b656e206f776e6572206f7220617070726f76656420666f7220616c6c000000606482015260840161094f565b6109f08383611cf0565b505050565b6109fd611d5e565b61025b55565b610a0e335b82611db9565b610a705760405162461bcd60e51b815260206004820152602d60248201527f4552433732313a2063616c6c6572206973206e6f7420746f6b656e206f776e6560448201526c1c881bdc88185c1c1c9bdd9959609a1b606482015260840161094f565b6109f0838383611e38565b6000610a86836112ca565b8210610afa5760405162461bcd60e51b815260206004820152602b60248201527f455243373231456e756d657261626c653a206f776e657220696e646578206f7560448201527f74206f6620626f756e6473000000000000000000000000000000000000000000606482015260840161094f565b506001600160a01b0391909116600090815261022760209081526040808320938352929052205490565b6001600160a01b037f0000000000000000000000000000000000000000000000000000000000000000163003610bb15760405162461bcd60e51b815260206004820152602c60248201527f46756e6374696f6e206d7573742062652063616c6c6564207468726f7567682060448201526b19195b1959d85d1958d85b1b60a21b606482015260840161094f565b7f00000000000000000000000000000000000000000000000000000000000000006001600160a01b0316610c0c7f360894a13ba1a3210667c828492db98dca3e2076cc3735a920a3ca505d382bbc546001600160a01b031690565b6001600160a01b031614610c775760405162461bcd60e51b815260206004820152602c60248201527f46756e6374696f6e206d7573742062652063616c6c6564207468726f7567682060448201526b6163746976652070726f787960a01b606482015260840161094f565b610c808161203e565b60408051600080825260208201909252610c9c91839190612046565b50565b61012d546001600160a01b03163314610cfa5760405162461bcd60e51b815260206004820152601760248201527f4f6e6c79206f776e65722063616e207769746864726177000000000000000000604482015260640161094f565b61012d546040516001600160a01b03909116904780156108fc02916000818181858888f19350505050158015610c9c573d6000803e3d6000fd5b610d3c611d5e565b610d446121e6565b565b6109f083838360405180602001604052806000815250611779565b610d6a33610a08565b610dcc5760405162461bcd60e51b815260206004820152602d60248201527f4552433732313a2063616c6c6572206973206e6f7420746f6b656e206f776e6560448201526c1c881bdc88185c1c1c9bdd9959609a1b606482015260840161094f565b610c9c81612238565b6001600160a01b037f0000000000000000000000000000000000000000000000000000000000000000163003610e625760405162461bcd60e51b815260206004820152602c60248201527f46756e6374696f6e206d7573742062652063616c6c6564207468726f7567682060448201526b19195b1959d85d1958d85b1b60a21b606482015260840161094f565b7f00000000000000000000000000000000000000000000000000000000000000006001600160a01b0316610ebd7f360894a13ba1a3210667c828492db98dca3e2076cc3735a920a3ca505d382bbc546001600160a01b031690565b6001600160a01b031614610f285760405162461bcd60e51b815260206004820152602c60248201527f46756e6374696f6e206d7573742062652063616c6c6564207468726f7567682060448201526b6163746976652070726f787960a01b606482015260840161094f565b610f318261203e565b610f3d82826001612046565b5050565b6000610f4d6102295490565b8210610fc15760405162461bcd60e51b815260206004820152602c60248201527f455243373231456e756d657261626c653a20676c6f62616c20696e646578206f60448201527f7574206f6620626f756e64730000000000000000000000000000000000000000606482015260840161094f565b6102298281548110610fd557610fd5613ca1565b90600052602060002001549050919050565b6000306001600160a01b037f000000000000000000000000000000000000000000000000000000000000000016146110875760405162461bcd60e51b815260206004820152603860248201527f555550535570677261646561626c653a206d757374206e6f742062652063616c60448201527f6c6564207468726f7567682064656c656761746563616c6c0000000000000000606482015260840161094f565b507f360894a13ba1a3210667c828492db98dca3e2076cc3735a920a3ca505d382bbc90565b61025a60205281600052604060002081815481106110c957600080fd5b90600052602060002001600091509150505481565b6000805b6001600160a01b038316600090815261025a6020526040902054811015611160576001600160a01b038316600090815261025a6020526040812080548390811061112e5761112e613ca1565b9060005260206000200154905080850361114d57600192505050610800565b508061115881613ccd565b9150506110e2565b5060009392505050565b6000818152606760205260408120546001600160a01b0316806108005760405162461bcd60e51b815260206004820152601860248201527f4552433732313a20696e76616c696420746f6b656e2049440000000000000000604482015260640161094f565b60606111d9612241565b336111e38361116a565b6001600160a01b03161461125f5760405162461bcd60e51b815260206004820152602260248201527f596f7520617265206e6f7420746865206f776e6572206f662074686520746f6b60448201527f656e000000000000000000000000000000000000000000000000000000000000606482015260840161094f565b600061126a83611813565b905061127583612238565b336001600160a01b03167f7b8c52e48344b6f22225b3ba1fcf8c9ac230b723461d694e762479de99ff236984836040516112b0929190613ce6565b60405180910390a290506112c560016101f555565b919050565b60006001600160a01b0382166113485760405162461bcd60e51b815260206004820152602960248201527f4552433732313a2061646472657373207a65726f206973206e6f74206120766160448201527f6c6964206f776e65720000000000000000000000000000000000000000000000606482015260840161094f565b506001600160a01b031660009081526068602052604090205490565b61136c611d5e565b610d4460006122a4565b61137e612241565b61025b5434146113d05760405162461bcd60e51b815260206004820152601860248201527f4d7573742070617920746865206d696e74696e67206665650000000000000000604482015260640161094f565b60006113dc83336110de565b90506001811515146114565760405162461bcd60e51b815260206004820152602c60248201527f596f7520646f206e6f742068617665207065726d697373696f6e20746f206d6960448201527f6e742074686973206974656d0000000000000000000000000000000000000000606482015260840161094f565b61146033846122f7565b61146a8383612311565b33600090815261025a60205260409020805461148890600190613cff565b8154811061149857611498613ca1565b906000526020600020015461025a6000336001600160a01b03166001600160a01b031681526020019081526020016000206114d38533611920565b815481106114e3576114e3613ca1565b600091825260208083209091019290925533815261025a9091526040902080548061151057611510613d12565b60019003818190600052602060002001600090559055336001600160a01b03167f6dbbddb917f6c610e1e191880f86c9f56ffbd49c4fce9b9aba38e418c62724078484604051611561929190613ce6565b60405180910390a250610f3d60016101f555565b600054610100900460ff16158080156115955750600054600160ff909116105b806115af5750303b1580156115af575060005460ff166001145b6116215760405162461bcd60e51b815260206004820152602e60248201527f496e697469616c697a61626c653a20636f6e747261637420697320616c72656160448201527f647920696e697469616c697a6564000000000000000000000000000000000000606482015260840161094f565b6000805460ff191660011790558015611644576000805461ff0019166101001790555b6116b86040518060400160405280600781526020017f5572756b4e4654000000000000000000000000000000000000000000000000008152506040518060400160405280600481526020017f5552554b000000000000000000000000000000000000000000000000000000008152506123eb565b6116c0612460565b6116c86124cb565b6116d061253e565b6116d8612460565b6116e0612460565b6116e86125b1565b61025980546001600160a01b03191633179055662386f26fc1000061025b558015610c9c576000805461ff0019169055604051600181527f7f26b83ff96e1f2b6a682f133852f6798a09c465da95921460cefb38474024989060200160405180910390a150565b611757611d5e565b610d44612624565b60606066805461081590613c67565b610f3d338383612661565b6117833383611db9565b6117e55760405162461bcd60e51b815260206004820152602d60248201527f4552433732313a2063616c6c6572206973206e6f7420746f6b656e206f776e6560448201526c1c881bdc88185c1c1c9bdd9959609a1b606482015260840161094f565b6117f18484848461272f565b50505050565b6117ff611d5e565b61180983826122f7565b6109f08183612311565b6060610800826127ad565b33600090815261025a60205260409020805461183c90600190613cff565b8154811061184c5761184c613ca1565b906000526020600020015461025a6000336001600160a01b03166001600160a01b031681526020019081526020016000206118878333611920565b8154811061189757611897613ca1565b600091825260208083209091019290925533815261025a909152604090208054806118c4576118c4613d12565b60019003818190600052602060002001600090559055336001600160a01b03167f1cd43aeba3478fcdcd51452939828fc22879de5b4dacd60b0a3792eb10161b8c8260405161191591815260200190565b60405180910390a250565b6000805b6001600160a01b038316600090815261025a602052604090205481101561199f576001600160a01b038316600090815261025a6020526040812080548390811061197057611970613ca1565b9060005260206000200154905080850361198c57509050610800565b508061199781613ccd565b915050611924565b5060405162461bcd60e51b815260206004820152601f60248201527f57686974656c6973746564206974656d20646f6573206e6f7420657869737400604482015260640161094f565b6001600160a01b038116600090815261025a6020908152604091829020805483518184028101840190945280845260609392830182828015611a4957602002820191906000526020600020905b815481526020019060010190808311611a35575b50505050509050919050565b611a5d611d5e565b6001600160a01b038116600090815261025a602052604090205460051015611b135760405162461bcd60e51b815260206004820152604960248201527f5573657220686173206d6f7265207468616e20352070656e64696e6720636c6160448201527f696d732e2048617320746f20636c61696d207468656d206265666f726520707260648201527f6f63656564696e672e0000000000000000000000000000000000000000000000608482015260a40161094f565b6000611b1f83836110de565b90508015611b955760405162461bcd60e51b815260206004820152603460248201527f54686973206974656d20697320616c726561647920616c6c6f77656420616e6460448201527f20726561647920746f20626520636c61696d6564000000000000000000000000606482015260840161094f565b506001600160a01b0316600090815261025a602090815260408220805460018101825590835291200155565b611bc9611d5e565b6001600160a01b038116611c455760405162461bcd60e51b815260206004820152602660248201527f4f776e61626c653a206e6577206f776e657220697320746865207a65726f206160448201527f6464726573730000000000000000000000000000000000000000000000000000606482015260840161094f565b610c9c816122a4565b60006001600160e01b031982167f780e9d630000000000000000000000000000000000000000000000000000000014806108005750610800826128b5565b6000818152606760205260409020546001600160a01b0316610c9c5760405162461bcd60e51b815260206004820152601860248201527f4552433732313a20696e76616c696420746f6b656e2049440000000000000000604482015260640161094f565b600081815260696020526040902080546001600160a01b0319166001600160a01b0384169081179091558190611d258261116a565b6001600160a01b03167f8c5be1e5ebec7d5bd14f71427d1e84f3dd0314c0f7b2291e5b200ac8c7c3b92560405160405180910390a45050565b61012d546001600160a01b03163314610d445760405162461bcd60e51b815260206004820181905260248201527f4f776e61626c653a2063616c6c6572206973206e6f7420746865206f776e6572604482015260640161094f565b600080611dc58361116a565b9050806001600160a01b0316846001600160a01b03161480611e0c57506001600160a01b038082166000908152606a602090815260408083209388168352929052205460ff165b80611e305750836001600160a01b0316611e2584610898565b6001600160a01b0316145b949350505050565b826001600160a01b0316611e4b8261116a565b6001600160a01b031614611eaf5760405162461bcd60e51b815260206004820152602560248201527f4552433732313a207472616e736665722066726f6d20696e636f72726563742060448201526437bbb732b960d91b606482015260840161094f565b6001600160a01b038216611f2a5760405162461bcd60e51b8152602060048201526024808201527f4552433732313a207472616e7366657220746f20746865207a65726f2061646460448201527f7265737300000000000000000000000000000000000000000000000000000000606482015260840161094f565b611f3783838360016128f3565b826001600160a01b0316611f4a8261116a565b6001600160a01b031614611fae5760405162461bcd60e51b815260206004820152602560248201527f4552433732313a207472616e736665722066726f6d20696e636f72726563742060448201526437bbb732b960d91b606482015260840161094f565b600081815260696020908152604080832080546001600160a01b03199081169091556001600160a01b0387811680865260688552838620805460001901905590871680865283862080546001019055868652606790945282852080549092168417909155905184937fddf252ad1be2c89b69c2b068fc378daa952ba7f163c4a11628f55a4df523b3ef91a4505050565b610c9c611d5e565b7f4910fdfa16fed3260ed0e7147f7cc6da11a60208b5b9406d12a635614ffd91435460ff1615612079576109f083612907565b826001600160a01b03166352d1902d6040518163ffffffff1660e01b8152600401602060405180830381865afa9250505080156120d3575060408051601f3d908101601f191682019092526120d091810190613d28565b60015b6121455760405162461bcd60e51b815260206004820152602e60248201527f45524331393637557067726164653a206e657720696d706c656d656e7461746960448201527f6f6e206973206e6f742055555053000000000000000000000000000000000000606482015260840161094f565b7f360894a13ba1a3210667c828492db98dca3e2076cc3735a920a3ca505d382bbc81146121da5760405162461bcd60e51b815260206004820152602960248201527f45524331393637557067726164653a20756e737570706f727465642070726f7860448201527f6961626c65555549440000000000000000000000000000000000000000000000606482015260840161094f565b506109f08383836129c5565b6121ee6129ea565b60c9805460ff191690557f5db9ee0a495bf2e6ff9c91a7834c1ba4fdd244a5e8aa4e537bd38aeae4b073aa335b6040516001600160a01b03909116815260200160405180910390a1565b610c9c81612a3c565b60026101f554036122945760405162461bcd60e51b815260206004820152601f60248201527f5265656e7472616e637947756172643a207265656e7472616e742063616c6c00604482015260640161094f565b60026101f555565b60016101f555565b61012d80546001600160a01b038381166001600160a01b0319831681179093556040519116919082907f8be0079c531659141344cd1fd0a4f28419497f9722a3daafe3b4186f6b6457e090600090a35050565b610f3d828260405180602001604052806000815250612a7c565b6000828152606760205260409020546001600160a01b031661239b5760405162461bcd60e51b815260206004820152602e60248201527f45524337323155524953746f726167653a2055524920736574206f66206e6f6e60448201527f6578697374656e7420746f6b656e000000000000000000000000000000000000606482015260840161094f565b60008281526097602052604090206123b38282613d8f565b506040518281527ff8e1a15aba9398e019f0b49df1a4fde98ee17ae345cb5f6b5e2c27f5033e8ce79060200160405180910390a15050565b600054610100900460ff166124565760405162461bcd60e51b815260206004820152602b60248201527f496e697469616c697a61626c653a20636f6e7472616374206973206e6f74206960448201526a6e697469616c697a696e6760a81b606482015260840161094f565b610f3d8282612afa565b600054610100900460ff16610d445760405162461bcd60e51b815260206004820152602b60248201527f496e697469616c697a61626c653a20636f6e7472616374206973206e6f74206960448201526a6e697469616c697a696e6760a81b606482015260840161094f565b600054610100900460ff166125365760405162461bcd60e51b815260206004820152602b60248201527f496e697469616c697a61626c653a20636f6e7472616374206973206e6f74206960448201526a6e697469616c697a696e6760a81b606482015260840161094f565b610d44612b7e565b600054610100900460ff166125a95760405162461bcd60e51b815260206004820152602b60248201527f496e697469616c697a61626c653a20636f6e7472616374206973206e6f74206960448201526a6e697469616c697a696e6760a81b606482015260840161094f565b610d44612bf5565b600054610100900460ff1661261c5760405162461bcd60e51b815260206004820152602b60248201527f496e697469616c697a61626c653a20636f6e7472616374206973206e6f74206960448201526a6e697469616c697a696e6760a81b606482015260840161094f565b610d44612c69565b61262c612cd4565b60c9805460ff191660011790557f62e78cea01bee320cd4e420270b5ea74000d11b0c9f74754ebdbfc544b05a25861221b3390565b816001600160a01b0316836001600160a01b0316036126c25760405162461bcd60e51b815260206004820152601960248201527f4552433732313a20617070726f766520746f2063616c6c657200000000000000604482015260640161094f565b6001600160a01b038381166000818152606a6020908152604080832094871680845294825291829020805460ff191686151590811790915591519182527f17307eab39ab6107e8899845ad3d59bd9653f200f220920489ca2b5937696c31910160405180910390a3505050565b61273a848484611e38565b61274684848484612d27565b6117f15760405162461bcd60e51b815260206004820152603260248201527f4552433732313a207472616e7366657220746f206e6f6e20455243373231526560448201527131b2b4bb32b91034b6b83632b6b2b73a32b960711b606482015260840161094f565b60606127b882611c8c565b600082815260976020526040812080546127d190613c67565b80601f01602080910402602001604051908101604052809291908181526020018280546127fd90613c67565b801561284a5780601f1061281f5761010080835404028352916020019161284a565b820191906000526020600020905b81548152906001019060200180831161282d57829003601f168201915b50505050509050600061286860408051602081019091526000815290565b9050805160000361287a575092915050565b8151156128ac578082604051602001612894929190613e4f565b60405160208183030381529060405292505050919050565b611e3084612e73565b60006001600160e01b031982167f49064906000000000000000000000000000000000000000000000000000000001480610800575061080082612ee7565b6128fb612cd4565b6117f184848484612f82565b6001600160a01b0381163b6129845760405162461bcd60e51b815260206004820152602d60248201527f455243313936373a206e657720696d706c656d656e746174696f6e206973206e60448201527f6f74206120636f6e747261637400000000000000000000000000000000000000606482015260840161094f565b7f360894a13ba1a3210667c828492db98dca3e2076cc3735a920a3ca505d382bbc80546001600160a01b0319166001600160a01b0392909216919091179055565b6129ce836130cc565b6000825111806129db5750805b156109f0576117f1838361310c565b60c95460ff16610d445760405162461bcd60e51b815260206004820152601460248201527f5061757361626c653a206e6f7420706175736564000000000000000000000000604482015260640161094f565b612a4581613131565b60008181526097602052604090208054612a5e90613c67565b159050610c9c576000818152609760205260408120610c9c9161381b565b612a8683836131d4565b612a936000848484612d27565b6109f05760405162461bcd60e51b815260206004820152603260248201527f4552433732313a207472616e7366657220746f206e6f6e20455243373231526560448201527131b2b4bb32b91034b6b83632b6b2b73a32b960711b606482015260840161094f565b600054610100900460ff16612b655760405162461bcd60e51b815260206004820152602b60248201527f496e697469616c697a61626c653a20636f6e7472616374206973206e6f74206960448201526a6e697469616c697a696e6760a81b606482015260840161094f565b6065612b718382613d8f565b5060666109f08282613d8f565b600054610100900460ff16612be95760405162461bcd60e51b815260206004820152602b60248201527f496e697469616c697a61626c653a20636f6e7472616374206973206e6f74206960448201526a6e697469616c697a696e6760a81b606482015260840161094f565b60c9805460ff19169055565b600054610100900460ff16612c605760405162461bcd60e51b815260206004820152602b60248201527f496e697469616c697a61626c653a20636f6e7472616374206973206e6f74206960448201526a6e697469616c697a696e6760a81b606482015260840161094f565b610d44336122a4565b600054610100900460ff1661229c5760405162461bcd60e51b815260206004820152602b60248201527f496e697469616c697a61626c653a20636f6e7472616374206973206e6f74206960448201526a6e697469616c697a696e6760a81b606482015260840161094f565b60c95460ff1615610d445760405162461bcd60e51b815260206004820152601060248201527f5061757361626c653a2070617573656400000000000000000000000000000000604482015260640161094f565b60006001600160a01b0384163b15612e6857604051630a85bd0160e11b81526001600160a01b0385169063150b7a0290612d6b903390899088908890600401613e7e565b6020604051808303816000875af1925050508015612da6575060408051601f3d908101601f19168201909252612da391810190613eb0565b60015b612e4e573d808015612dd4576040519150601f19603f3d011682016040523d82523d6000602084013e612dd9565b606091505b508051600003612e465760405162461bcd60e51b815260206004820152603260248201527f4552433732313a207472616e7366657220746f206e6f6e20455243373231526560448201527131b2b4bb32b91034b6b83632b6b2b73a32b960711b606482015260840161094f565b805181602001fd5b6001600160e01b031916630a85bd0160e11b149050611e30565b506001949350505050565b6060612e7e82611c8c565b6000612e9560408051602081019091526000815290565b90506000815111612eb55760405180602001604052806000815250612ee0565b80612ebf8461336d565b604051602001612ed0929190613e4f565b6040516020818303038152906040525b9392505050565b60006001600160e01b031982167f80ac58cd000000000000000000000000000000000000000000000000000000001480612f4a57506001600160e01b031982167f5b5e139f00000000000000000000000000000000000000000000000000000000145b8061080057507f01ffc9a7000000000000000000000000000000000000000000000000000000006001600160e01b0319831614610800565b612f8e8484848461340d565b60018111156130055760405162461bcd60e51b815260206004820152603560248201527f455243373231456e756d657261626c653a20636f6e736563757469766520747260448201527f616e7366657273206e6f7420737570706f727465640000000000000000000000606482015260840161094f565b816001600160a01b0385166130635761305e816102298054600083815261022a60205260408120829055600182018355919091527fb2908d3c6bbcc650627dd31890ddad23e4bcc754fc3daa98d751d51bd01a18990155565b613086565b836001600160a01b0316856001600160a01b031614613086576130868582613486565b6001600160a01b0384166130a25761309d81613528565b6130c5565b846001600160a01b0316846001600160a01b0316146130c5576130c584826135dd565b5050505050565b6130d581612907565b6040516001600160a01b038216907fbc7cd75a20ee27fd9adebab32041f755214dbc6bffa90cc0225b39da2e5c2d3b90600090a250565b6060612ee08383604051806060016040528060278152602001613eea60279139613623565b600061313c8261116a565b905061314c8160008460016128f3565b6131558261116a565b600083815260696020908152604080832080546001600160a01b03199081169091556001600160a01b0385168085526068845282852080546000190190558785526067909352818420805490911690555192935084927fddf252ad1be2c89b69c2b068fc378daa952ba7f163c4a11628f55a4df523b3ef908390a45050565b6001600160a01b03821661322a5760405162461bcd60e51b815260206004820181905260248201527f4552433732313a206d696e7420746f20746865207a65726f2061646472657373604482015260640161094f565b6000818152606760205260409020546001600160a01b03161561328f5760405162461bcd60e51b815260206004820152601c60248201527f4552433732313a20746f6b656e20616c7265616479206d696e74656400000000604482015260640161094f565b61329d6000838360016128f3565b6000818152606760205260409020546001600160a01b0316156133025760405162461bcd60e51b815260206004820152601c60248201527f4552433732313a20746f6b656e20616c7265616479206d696e74656400000000604482015260640161094f565b6001600160a01b038216600081815260686020908152604080832080546001019055848352606790915280822080546001600160a01b0319168417905551839291907fddf252ad1be2c89b69c2b068fc378daa952ba7f163c4a11628f55a4df523b3ef908290a45050565b6060600061337a8361369b565b600101905060008167ffffffffffffffff81111561339a5761339a6139b0565b6040519080825280601f01601f1916602001820160405280156133c4576020820181803683370190505b5090508181016020015b600019017f3031323334353637383961626364656600000000000000000000000000000000600a86061a8153600a85049450846133ce57509392505050565b60c95460ff16156117f15760405162461bcd60e51b815260206004820152602b60248201527f4552433732315061757361626c653a20746f6b656e207472616e73666572207760448201527f68696c6520706175736564000000000000000000000000000000000000000000606482015260840161094f565b60006001613493846112ca565b61349d9190613cff565b600083815261022860205260409020549091508082146134f3576001600160a01b038416600090815261022760209081526040808320858452825280832054848452818420819055835261022890915290208190555b506000918252610228602090815260408084208490556001600160a01b03909416835261022781528383209183525290812055565b6102295460009061353b90600190613cff565b600083815261022a6020526040812054610229805493945090928490811061356557613565613ca1565b9060005260206000200154905080610229838154811061358757613587613ca1565b600091825260208083209091019290925582815261022a90915260408082208490558582528120556102298054806135c1576135c1613d12565b6001900381819060005260206000200160009055905550505050565b60006135e8836112ca565b6001600160a01b0390931660009081526102276020908152604080832086845282528083208590559382526102289052919091209190915550565b6060600080856001600160a01b0316856040516136409190613ecd565b600060405180830381855af49150503d806000811461367b576040519150601f19603f3d011682016040523d82523d6000602084013e613680565b606091505b50915091506136918683838761377d565b9695505050505050565b6000807a184f03e93ff9f4daa797ed6e38ed64bf6a1f01000000000000000083106136e4577a184f03e93ff9f4daa797ed6e38ed64bf6a1f010000000000000000830492506040015b6d04ee2d6d415b85acef81000000008310613710576d04ee2d6d415b85acef8100000000830492506020015b662386f26fc10000831061372e57662386f26fc10000830492506010015b6305f5e1008310613746576305f5e100830492506008015b612710831061375a57612710830492506004015b6064831061376c576064830492506002015b600a83106108005760010192915050565b606083156137ec5782516000036137e5576001600160a01b0385163b6137e55760405162461bcd60e51b815260206004820152601d60248201527f416464726573733a2063616c6c20746f206e6f6e2d636f6e7472616374000000604482015260640161094f565b5081611e30565b611e3083838151156138015781518083602001fd5b8060405162461bcd60e51b815260040161094f91906138ec565b50805461382790613c67565b6000825580601f10613837575050565b601f016020900490600052602060002090810190610c9c91905b808211156138655760008155600101613851565b5090565b6001600160e01b031981168114610c9c57600080fd5b60006020828403121561389157600080fd5b8135612ee081613869565b60005b838110156138b757818101518382015260200161389f565b50506000910152565b600081518084526138d881602086016020860161389c565b601f01601f19169290920160200192915050565b602081526000612ee060208301846138c0565b60006020828403121561391157600080fd5b5035919050565b80356001600160a01b03811681146112c557600080fd5b6000806040838503121561394257600080fd5b61394b83613918565b946020939093013593505050565b60008060006060848603121561396e57600080fd5b61397784613918565b925061398560208501613918565b9150604084013590509250925092565b6000602082840312156139a757600080fd5b612ee082613918565b634e487b7160e01b600052604160045260246000fd5b600082601f8301126139d757600080fd5b813567ffffffffffffffff808211156139f2576139f26139b0565b604051601f8301601f19908116603f01168101908282118183101715613a1a57613a1a6139b0565b81604052838152866020858801011115613a3357600080fd5b836020870160208301376000602085830101528094505050505092915050565b60008060408385031215613a6657600080fd5b613a6f83613918565b9150602083013567ffffffffffffffff811115613a8b57600080fd5b613a97858286016139c6565b9150509250929050565b60008060408385031215613ab457600080fd5b82359150613ac460208401613918565b90509250929050565b60008060408385031215613ae057600080fd5b82359150602083013567ffffffffffffffff811115613a8b57600080fd5b60008060408385031215613b1157600080fd5b613b1a83613918565b915060208301358015158114613b2f57600080fd5b809150509250929050565b60008060008060808587031215613b5057600080fd5b613b5985613918565b9350613b6760208601613918565b925060408501359150606085013567ffffffffffffffff811115613b8a57600080fd5b613b96878288016139c6565b91505092959194509250565b600080600060608486031215613bb757600080fd5b613bc084613918565b9250602084013567ffffffffffffffff811115613bdc57600080fd5b613be8868287016139c6565b925050604084013590509250925092565b6020808252825182820181905260009190848201906040850190845b81811015613c3157835183529284019291840191600101613c15565b50909695505050505050565b60008060408385031215613c5057600080fd5b613c5983613918565b9150613ac460208401613918565b600181811c90821680613c7b57607f821691505b602082108103613c9b57634e487b7160e01b600052602260045260246000fd5b50919050565b634e487b7160e01b600052603260045260246000fd5b634e487b7160e01b600052601160045260246000fd5b600060018201613cdf57613cdf613cb7565b5060010190565b828152604060208201526000611e3060408301846138c0565b8181038181111561080057610800613cb7565b634e487b7160e01b600052603160045260246000fd5b600060208284031215613d3a57600080fd5b5051919050565b601f8211156109f057600081815260208120601f850160051c81016020861015613d685750805b601f850160051c820191505b81811015613d8757828155600101613d74565b505050505050565b815167ffffffffffffffff811115613da957613da96139b0565b613dbd81613db78454613c67565b84613d41565b602080601f831160018114613df25760008415613dda5750858301515b600019600386901b1c1916600185901b178555613d87565b600085815260208120601f198616915b82811015613e2157888601518255948401946001909101908401613e02565b5085821015613e3f5787850151600019600388901b60f8161c191681555b5050505050600190811b01905550565b60008351613e6181846020880161389c565b835190830190613e7581836020880161389c565b01949350505050565b60006001600160a01b0380871683528086166020840152508360408301526080606083015261369160808301846138c0565b600060208284031215613ec257600080fd5b8151612ee081613869565b60008251613edf81846020870161389c565b919091019291505056fe416464726573733a206c6f772d6c6576656c2064656c65676174652063616c6c206661696c6564a2646970667358221220e6ae7dd4fd35729e3e0f2d368fbcfd320ffad748868edf073e239327773c696464736f6c63430008130033",
  "linkReferences": {},
  "deployedLinkReferences": {}
}