{
  "_format": "hh-sol-artifact-1",
  "contractName": "UrukNFT",
  "sourceName": "contracts/UrukNFT.sol",
  "abi": [
    {
      "inputs": [],
      "stateMutability": "nonpayable",
      "type": "constructor"
    },
    {
      "anonymous": false,
      "inputs": [
        {
          "indexed": false,
          "internalType": "address",
          "name": "previousAdmin",
          "type": "address"
        },
        {
          "indexed": false,
          "internalType": "address",
          "name": "newAdmin",
          "type": "address"
        }
      ],
      "name": "AdminChanged",
      "type": "event"
    },
    {
      "anonymous": false,
      "inputs": [
        {
          "indexed": true,
          "internalType": "address",
          "name": "owner",
          "type": "address"
        },
        {
          "indexed": true,
          "internalType": "address",
          "name": "approved",
          "type": "address"
        },
        {
          "indexed": true,
          "internalType": "uint256",
          "name": "tokenId",
          "type": "uint256"
        }
      ],
      "name": "Approval",
      "type": "event"
    },
    {
      "anonymous": false,
      "inputs": [
        {
          "indexed": true,
          "internalType": "address",
          "name": "owner",
          "type": "address"
        },
        {
          "indexed": true,
          "internalType": "address",
          "name": "operator",
          "type": "address"
        },
        {
          "indexed": false,
          "internalType": "bool",
          "name": "approved",
          "type": "bool"
        }
      ],
      "name": "ApprovalForAll",
      "type": "event"
    },
    {
      "anonymous": false,
      "inputs": [
        {
          "indexed": false,
          "internalType": "uint256",
          "name": "_fromTokenId",
          "type": "uint256"
        },
        {
          "indexed": false,
          "internalType": "uint256",
          "name": "_toTokenId",
          "type": "uint256"
        }
      ],
      "name": "BatchMetadataUpdate",
      "type": "event"
    },
    {
      "anonymous": false,
      "inputs": [
        {
          "indexed": true,
          "internalType": "address",
          "name": "beacon",
          "type": "address"
        }
      ],
      "name": "BeaconUpgraded",
      "type": "event"
    },
    {
      "anonymous": false,
      "inputs": [
        {
          "indexed": false,
          "internalType": "uint8",
          "name": "version",
          "type": "uint8"
        }
      ],
      "name": "Initialized",
      "type": "event"
    },
    {
      "anonymous": false,
      "inputs": [
        {
          "indexed": true,
          "internalType": "address",
          "name": "user",
          "type": "address"
        },
        {
          "indexed": false,
          "internalType": "uint256",
          "name": "tokenId",
          "type": "uint256"
        },
        {
          "indexed": false,
          "internalType": "string",
          "name": "uri",
          "type": "string"
        }
      ],
      "name": "ItemExported",
      "type": "event"
    },
    {
      "anonymous": false,
      "inputs": [
        {
          "indexed": true,
          "internalType": "address",
          "name": "user",
          "type": "address"
        },
        {
          "indexed": false,
          "internalType": "uint256",
          "name": "tokenId",
          "type": "uint256"
        }
      ],
      "name": "ItemImported",
      "type": "event"
    },
    {
      "anonymous": false,
      "inputs": [
        {
          "indexed": false,
          "internalType": "uint256",
          "name": "_tokenId",
          "type": "uint256"
        }
      ],
      "name": "MetadataUpdate",
      "type": "event"
    },
    {
      "anonymous": false,
      "inputs": [
        {
          "indexed": true,
          "internalType": "address",
          "name": "previousOwner",
          "type": "address"
        },
        {
          "indexed": true,
          "internalType": "address",
          "name": "newOwner",
          "type": "address"
        }
      ],
      "name": "OwnershipTransferred",
      "type": "event"
    },
    {
      "anonymous": false,
      "inputs": [
        {
          "indexed": false,
          "internalType": "address",
          "name": "account",
          "type": "address"
        }
      ],
      "name": "Paused",
      "type": "event"
    },
    {
      "anonymous": false,
      "inputs": [
        {
          "indexed": true,
          "internalType": "address",
          "name": "from",
          "type": "address"
        },
        {
          "indexed": true,
          "internalType": "address",
          "name": "to",
          "type": "address"
        },
        {
          "indexed": true,
          "internalType": "uint256",
          "name": "tokenId",
          "type": "uint256"
        }
      ],
      "name": "Transfer",
      "type": "event"
    },
    {
      "anonymous": false,
      "inputs": [
        {
          "indexed": false,
          "internalType": "address",
          "name": "account",
          "type": "address"
        }
      ],
      "name": "Unpaused",
      "type": "event"
    },
    {
      "anonymous": false,
      "inputs": [
        {
          "indexed": true,
          "internalType": "address",
          "name": "implementation",
          "type": "address"
        }
      ],
      "name": "Upgraded",
      "type": "event"
    },
    {
      "inputs": [
        {
          "internalType": "string",
          "name": "backendUniqueId",
          "type": "string"
        },
        {
          "internalType": "address",
          "name": "walletAddress",
          "type": "address"
        }
      ],
      "name": "allowItemToBeExported",
      "outputs": [],
      "stateMutability": "nonpayable",
      "type": "function"
    },
    {
      "inputs": [
        {
          "internalType": "address",
          "name": "",
          "type": "address"
        },
        {
          "internalType": "uint256",
          "name": "",
          "type": "uint256"
        }
      ],
      "name": "allowedItems",
      "outputs": [
        {
          "internalType": "string",
          "name": "",
          "type": "string"
        }
      ],
      "stateMutability": "view",
      "type": "function"
    },
    {
      "inputs": [
        {
          "internalType": "address",
          "name": "to",
          "type": "address"
        },
        {
          "internalType": "uint256",
          "name": "tokenId",
          "type": "uint256"
        }
      ],
      "name": "approve",
      "outputs": [],
      "stateMutability": "nonpayable",
      "type": "function"
    },
    {
      "inputs": [
        {
          "internalType": "address",
          "name": "owner",
          "type": "address"
        }
      ],
      "name": "balanceOf",
      "outputs": [
        {
          "internalType": "uint256",
          "name": "",
          "type": "uint256"
        }
      ],
      "stateMutability": "view",
      "type": "function"
    },
    {
      "inputs": [
        {
          "internalType": "uint256",
          "name": "tokenId",
          "type": "uint256"
        }
      ],
      "name": "burn",
      "outputs": [],
      "stateMutability": "nonpayable",
      "type": "function"
    },
    {
      "inputs": [
        {
          "internalType": "string",
          "name": "backendUniqueId",
          "type": "string"
        },
        {
          "internalType": "string",
          "name": "uri",
          "type": "string"
        }
      ],
      "name": "exportItemToNft",
      "outputs": [],
      "stateMutability": "nonpayable",
      "type": "function"
    },
    {
      "inputs": [
        {
          "internalType": "string",
          "name": "backendUniqueId",
          "type": "string"
        },
        {
          "internalType": "address",
          "name": "walletAddress",
          "type": "address"
        }
      ],
      "name": "findWhitelistedItemIndex",
      "outputs": [
        {
          "internalType": "uint256",
          "name": "",
          "type": "uint256"
        }
      ],
      "stateMutability": "view",
      "type": "function"
    },
    {
      "inputs": [
        {
          "internalType": "uint256",
          "name": "tokenId",
          "type": "uint256"
        }
      ],
      "name": "getApproved",
      "outputs": [
        {
          "internalType": "address",
          "name": "",
          "type": "address"
        }
      ],
      "stateMutability": "view",
      "type": "function"
    },
    {
      "inputs": [
        {
          "internalType": "address",
          "name": "walletAddress",
          "type": "address"
        }
      ],
      "name": "getItemsWhitelisted",
      "outputs": [
        {
          "internalType": "string[]",
          "name": "",
          "type": "string[]"
        }
      ],
      "stateMutability": "view",
      "type": "function"
    },
    {
      "inputs": [
        {
          "internalType": "uint256",
          "name": "tokenId",
          "type": "uint256"
        }
      ],
      "name": "importNftToItem",
      "outputs": [
        {
          "internalType": "string",
          "name": "",
          "type": "string"
        }
      ],
      "stateMutability": "nonpayable",
      "type": "function"
    },
    {
      "inputs": [],
      "name": "initialize",
      "outputs": [],
      "stateMutability": "nonpayable",
      "type": "function"
    },
    {
      "inputs": [
        {
          "internalType": "address",
          "name": "owner",
          "type": "address"
        },
        {
          "internalType": "address",
          "name": "operator",
          "type": "address"
        }
      ],
      "name": "isApprovedForAll",
      "outputs": [
        {
          "internalType": "bool",
          "name": "",
          "type": "bool"
        }
      ],
      "stateMutability": "view",
      "type": "function"
    },
    {
      "inputs": [
        {
          "internalType": "string",
          "name": "backendUniqueId",
          "type": "string"
        },
        {
          "internalType": "address",
          "name": "walletAddress",
          "type": "address"
        }
      ],
      "name": "itemIsWhiteListed",
      "outputs": [
        {
          "internalType": "bool",
          "name": "",
          "type": "bool"
        }
      ],
      "stateMutability": "view",
      "type": "function"
    },
    {
      "inputs": [],
      "name": "name",
      "outputs": [
        {
          "internalType": "string",
          "name": "",
          "type": "string"
        }
      ],
      "stateMutability": "view",
      "type": "function"
    },
    {
      "inputs": [],
      "name": "owner",
      "outputs": [
        {
          "internalType": "address",
          "name": "",
          "type": "address"
        }
      ],
      "stateMutability": "view",
      "type": "function"
    },
    {
      "inputs": [
        {
          "internalType": "uint256",
          "name": "tokenId",
          "type": "uint256"
        }
      ],
      "name": "ownerOf",
      "outputs": [
        {
          "internalType": "address",
          "name": "",
          "type": "address"
        }
      ],
      "stateMutability": "view",
      "type": "function"
    },
    {
      "inputs": [],
      "name": "pause",
      "outputs": [],
      "stateMutability": "nonpayable",
      "type": "function"
    },
    {
      "inputs": [],
      "name": "paused",
      "outputs": [
        {
          "internalType": "bool",
          "name": "",
          "type": "bool"
        }
      ],
      "stateMutability": "view",
      "type": "function"
    },
    {
      "inputs": [],
      "name": "proxiableUUID",
      "outputs": [
        {
          "internalType": "bytes32",
          "name": "",
          "type": "bytes32"
        }
      ],
      "stateMutability": "view",
      "type": "function"
    },
    {
      "inputs": [],
      "name": "renounceOwnership",
      "outputs": [],
      "stateMutability": "nonpayable",
      "type": "function"
    },
    {
      "inputs": [
        {
          "internalType": "address",
          "name": "to",
          "type": "address"
        },
        {
          "internalType": "string",
          "name": "uri",
          "type": "string"
        }
      ],
      "name": "safeMint",
      "outputs": [],
      "stateMutability": "nonpayable",
      "type": "function"
    },
    {
      "inputs": [
        {
          "internalType": "address",
          "name": "from",
          "type": "address"
        },
        {
          "internalType": "address",
          "name": "to",
          "type": "address"
        },
        {
          "internalType": "uint256",
          "name": "tokenId",
          "type": "uint256"
        }
      ],
      "name": "safeTransferFrom",
      "outputs": [],
      "stateMutability": "nonpayable",
      "type": "function"
    },
    {
      "inputs": [
        {
          "internalType": "address",
          "name": "from",
          "type": "address"
        },
        {
          "internalType": "address",
          "name": "to",
          "type": "address"
        },
        {
          "internalType": "uint256",
          "name": "tokenId",
          "type": "uint256"
        },
        {
          "internalType": "bytes",
          "name": "data",
          "type": "bytes"
        }
      ],
      "name": "safeTransferFrom",
      "outputs": [],
      "stateMutability": "nonpayable",
      "type": "function"
    },
    {
      "inputs": [
        {
          "internalType": "address",
          "name": "operator",
          "type": "address"
        },
        {
          "internalType": "bool",
          "name": "approved",
          "type": "bool"
        }
      ],
      "name": "setApprovalForAll",
      "outputs": [],
      "stateMutability": "nonpayable",
      "type": "function"
    },
    {
      "inputs": [
        {
          "internalType": "bytes4",
          "name": "interfaceId",
          "type": "bytes4"
        }
      ],
      "name": "supportsInterface",
      "outputs": [
        {
          "internalType": "bool",
          "name": "",
          "type": "bool"
        }
      ],
      "stateMutability": "view",
      "type": "function"
    },
    {
      "inputs": [],
      "name": "symbol",
      "outputs": [
        {
          "internalType": "string",
          "name": "",
          "type": "string"
        }
      ],
      "stateMutability": "view",
      "type": "function"
    },
    {
      "inputs": [
        {
          "internalType": "uint256",
          "name": "tokenId",
          "type": "uint256"
        }
      ],
      "name": "tokenURI",
      "outputs": [
        {
          "internalType": "string",
          "name": "",
          "type": "string"
        }
      ],
      "stateMutability": "view",
      "type": "function"
    },
    {
      "inputs": [
        {
          "internalType": "address",
          "name": "from",
          "type": "address"
        },
        {
          "internalType": "address",
          "name": "to",
          "type": "address"
        },
        {
          "internalType": "uint256",
          "name": "tokenId",
          "type": "uint256"
        }
      ],
      "name": "transferFrom",
      "outputs": [],
      "stateMutability": "nonpayable",
      "type": "function"
    },
    {
      "inputs": [
        {
          "internalType": "address",
          "name": "newOwner",
          "type": "address"
        }
      ],
      "name": "transferOwnership",
      "outputs": [],
      "stateMutability": "nonpayable",
      "type": "function"
    },
    {
      "inputs": [],
      "name": "unpause",
      "outputs": [],
      "stateMutability": "nonpayable",
      "type": "function"
    },
    {
      "inputs": [
        {
          "internalType": "address",
          "name": "newImplementation",
          "type": "address"
        }
      ],
      "name": "upgradeTo",
      "outputs": [],
      "stateMutability": "nonpayable",
      "type": "function"
    },
    {
      "inputs": [
        {
          "internalType": "address",
          "name": "newImplementation",
          "type": "address"
        },
        {
          "internalType": "bytes",
          "name": "data",
          "type": "bytes"
        }
      ],
      "name": "upgradeToAndCall",
      "outputs": [],
      "stateMutability": "payable",
      "type": "function"
    },
    {
      "inputs": [],
      "name": "version",
      "outputs": [
        {
          "internalType": "string",
          "name": "",
          "type": "string"
        }
      ],
      "stateMutability": "pure",
      "type": "function"
    }
  ],
  "bytecode": "0x60a06040523073ffffffffffffffffffffffffffffffffffffffff1660809073ffffffffffffffffffffffffffffffffffffffff168152503480156200004457600080fd5b50620000556200005b60201b60201c565b62000205565b600060019054906101000a900460ff1615620000ae576040517f08c379a0000000000000000000000000000000000000000000000000000000008152600401620000a590620001a8565b60405180910390fd5b60ff801660008054906101000a900460ff1660ff16146200011f5760ff6000806101000a81548160ff021916908360ff1602179055507f7f26b83ff96e1f2b6a682f133852f6798a09c465da95921460cefb384740249860ff604051620001169190620001e8565b60405180910390a15b565b600082825260208201905092915050565b7f496e697469616c697a61626c653a20636f6e747261637420697320696e69746960008201527f616c697a696e6700000000000000000000000000000000000000000000000000602082015250565b60006200019060278362000121565b91506200019d8262000132565b604082019050919050565b60006020820190508181036000830152620001c38162000181565b9050919050565b600060ff82169050919050565b620001e281620001ca565b82525050565b6000602082019050620001ff6000830184620001d7565b92915050565b608051615eb46200023d60003960008181610be201528181610c7001528181610df801528181610e860152610f360152615eb46000f3fe6080604052600436106101f95760003560e01c80636df7efdf1161010d57806395d89b41116100a0578063c87b56dd1161006f578063c87b56dd146106e6578063d204c45e14610723578063d553ca1c14610760578063e985e9c51461079d578063f2fde38b146107da576101f9565b806395d89b4114610640578063a0bcfc7f1461066b578063a22cb46514610694578063b88d4fde146106bd576101f9565b80638456cb59116100dc5780638456cb591461059857806389ed5050146105af5780638da5cb5b146105ec57806395d572d714610617576101f9565b80636df7efdf1461050457806370a082311461052d578063715018a61461056a5780638129fc1c14610581576101f9565b806342842e0e1161019057806354fd4d501161015f57806354fd4d501461040b57806357703e94146104365780635c975abb146104735780636352211e1461049e578063638fb59a146104db576101f9565b806342842e0e1461037257806342966c681461039b5780634f1ef286146103c457806352d1902d146103e0576101f9565b806323b872dd116101cc57806323b872dd146102cc5780632ecc9402146102f55780633659cfe6146103325780633f4ba83a1461035b576101f9565b806301ffc9a7146101fe57806306fdde031461023b578063081812fc14610266578063095ea7b3146102a3575b600080fd5b34801561020a57600080fd5b5061022560048036038101906102209190613d38565b610803565b6040516102329190613d80565b60405180910390f35b34801561024757600080fd5b50610250610815565b60405161025d9190613e2b565b60405180910390f35b34801561027257600080fd5b5061028d60048036038101906102889190613e83565b6108a7565b60405161029a9190613ef1565b60405180910390f35b3480156102af57600080fd5b506102ca60048036038101906102c59190613f38565b6108ed565b005b3480156102d857600080fd5b506102f360048036038101906102ee9190613f78565b610a04565b005b34801561030157600080fd5b5061031c60048036038101906103179190614100565b610a64565b6040516103299190613d80565b60405180910390f35b34801561033e57600080fd5b506103596004803603810190610354919061415c565b610be0565b005b34801561036757600080fd5b50610370610d68565b005b34801561037e57600080fd5b5061039960048036038101906103949190613f78565b610d7a565b005b3480156103a757600080fd5b506103c260048036038101906103bd9190613e83565b610d9a565b005b6103de60048036038101906103d9919061422a565b610df6565b005b3480156103ec57600080fd5b506103f5610f32565b604051610402919061429f565b60405180910390f35b34801561041757600080fd5b50610420610feb565b60405161042d9190613e2b565b60405180910390f35b34801561044257600080fd5b5061045d60048036038101906104589190613f38565b611028565b60405161046a9190613e2b565b60405180910390f35b34801561047f57600080fd5b506104886110e2565b6040516104959190613d80565b60405180910390f35b3480156104aa57600080fd5b506104c560048036038101906104c09190613e83565b6110f9565b6040516104d29190613ef1565b60405180910390f35b3480156104e757600080fd5b5061050260048036038101906104fd9190613e83565b61117f565b005b34801561051057600080fd5b5061052b600480360381019061052691906142ba565b611201565b005b34801561053957600080fd5b50610554600480360381019061054f919061415c565b611417565b6040516105619190614341565b60405180910390f35b34801561057657600080fd5b5061057f6114ce565b005b34801561058d57600080fd5b506105966114e2565b005b3480156105a457600080fd5b506105ad61173c565b005b3480156105bb57600080fd5b506105d660048036038101906105d19190614100565b61174e565b6040516105e39190614341565b60405180910390f35b3480156105f857600080fd5b506106016118ff565b60405161060e9190613ef1565b60405180910390f35b34801561062357600080fd5b5061063e60048036038101906106399190614100565b61192a565b005b34801561064c57600080fd5b50610655611a86565b6040516106629190613e2b565b60405180910390f35b34801561067757600080fd5b50610692600480360381019061068d919061435c565b611b18565b005b3480156106a057600080fd5b506106bb60048036038101906106b691906143d1565b611b34565b005b3480156106c957600080fd5b506106e460048036038101906106df9190614411565b611b4a565b005b3480156106f257600080fd5b5061070d60048036038101906107089190613e83565b611bac565b60405161071a9190613e2b565b60405180910390f35b34801561072f57600080fd5b5061074a60048036038101906107459190614494565b611bbe565b6040516107579190614341565b60405180910390f35b34801561076c57600080fd5b506107876004803603810190610782919061415c565b611c02565b60405161079491906145fc565b60405180910390f35b3480156107a957600080fd5b506107c460048036038101906107bf919061461e565b611d1b565b6040516107d19190613d80565b60405180910390f35b3480156107e657600080fd5b5061080160048036038101906107fc919061415c565b611daf565b005b600061080e82611e32565b9050919050565b6060606580546108249061468d565b80601f01602080910402602001604051908101604052809291908181526020018280546108509061468d565b801561089d5780601f106108725761010080835404028352916020019161089d565b820191906000526020600020905b81548152906001019060200180831161088057829003601f168201915b5050505050905090565b60006108b282611e93565b6069600083815260200190815260200160002060009054906101000a900473ffffffffffffffffffffffffffffffffffffffff169050919050565b60006108f8826110f9565b90508073ffffffffffffffffffffffffffffffffffffffff168373ffffffffffffffffffffffffffffffffffffffff1603610968576040517f08c379a000000000000000000000000000000000000000000000000000000000815260040161095f90614730565b60405180910390fd5b8073ffffffffffffffffffffffffffffffffffffffff16610987611ede565b73ffffffffffffffffffffffffffffffffffffffff1614806109b657506109b5816109b0611ede565b611d1b565b5b6109f5576040517f08c379a00000000000000000000000000000000000000000000000000000000081526004016109ec906147c2565b60405180910390fd5b6109ff8383611ee6565b505050565b610a15610a0f611ede565b82611f9f565b610a54576040517f08c379a0000000000000000000000000000000000000000000000000000000008152600401610a4b90614854565b60405180910390fd5b610a5f838383612034565b505050565b600080600090505b6101f860008473ffffffffffffffffffffffffffffffffffffffff1673ffffffffffffffffffffffffffffffffffffffff16815260200190815260200160002080549050811015610bd45760006101f860008573ffffffffffffffffffffffffffffffffffffffff1673ffffffffffffffffffffffffffffffffffffffff1681526020019081526020016000208281548110610b0b57610b0a614874565b5b906000526020600020018054610b209061468d565b80601f0160208091040260200160405190810160405280929190818152602001828054610b4c9061468d565b8015610b995780601f10610b6e57610100808354040283529160200191610b99565b820191906000526020600020905b815481529060010190602001808311610b7c57829003601f168201915b505050505090508480519060200120818051906020012003610bc057600192505050610bda565b508080610bcc906148d2565b915050610a6c565b50600090505b92915050565b7f000000000000000000000000000000000000000000000000000000000000000073ffffffffffffffffffffffffffffffffffffffff163073ffffffffffffffffffffffffffffffffffffffff1603610c6e576040517f08c379a0000000000000000000000000000000000000000000000000000000008152600401610c659061498c565b60405180910390fd5b7f000000000000000000000000000000000000000000000000000000000000000073ffffffffffffffffffffffffffffffffffffffff16610cad61232d565b73ffffffffffffffffffffffffffffffffffffffff1614610d03576040517f08c379a0000000000000000000000000000000000000000000000000000000008152600401610cfa90614a1e565b60405180910390fd5b610d0c81612384565b610d6581600067ffffffffffffffff811115610d2b57610d2a613fd5565b5b6040519080825280601f01601f191660200182016040528015610d5d5781602001600182028036833780820191505090505b50600061238f565b50565b610d706124fd565b610d7861257b565b565b610d9583838360405180602001604052806000815250611b4a565b505050565b610dab610da5611ede565b82611f9f565b610dea576040517f08c379a0000000000000000000000000000000000000000000000000000000008152600401610de190614854565b60405180910390fd5b610df3816125de565b50565b7f000000000000000000000000000000000000000000000000000000000000000073ffffffffffffffffffffffffffffffffffffffff163073ffffffffffffffffffffffffffffffffffffffff1603610e84576040517f08c379a0000000000000000000000000000000000000000000000000000000008152600401610e7b9061498c565b60405180910390fd5b7f000000000000000000000000000000000000000000000000000000000000000073ffffffffffffffffffffffffffffffffffffffff16610ec361232d565b73ffffffffffffffffffffffffffffffffffffffff1614610f19576040517f08c379a0000000000000000000000000000000000000000000000000000000008152600401610f1090614a1e565b60405180910390fd5b610f2282612384565b610f2e8282600161238f565b5050565b60007f000000000000000000000000000000000000000000000000000000000000000073ffffffffffffffffffffffffffffffffffffffff163073ffffffffffffffffffffffffffffffffffffffff1614610fc2576040517f08c379a0000000000000000000000000000000000000000000000000000000008152600401610fb990614ab0565b60405180910390fd5b7f360894a13ba1a3210667c828492db98dca3e2076cc3735a920a3ca505d382bbc60001b905090565b60606040518060400160405280600581526020017f312e302e30000000000000000000000000000000000000000000000000000000815250905090565b6101f8602052816000526040600020818154811061104557600080fd5b906000526020600020016000915091505080546110619061468d565b80601f016020809104026020016040519081016040528092919081815260200182805461108d9061468d565b80156110da5780601f106110af576101008083540402835291602001916110da565b820191906000526020600020905b8154815290600101906020018083116110bd57829003601f168201915b505050505081565b600060c960009054906101000a900460ff16905090565b600080611105836125ea565b9050600073ffffffffffffffffffffffffffffffffffffffff168173ffffffffffffffffffffffffffffffffffffffff1603611176576040517f08c379a000000000000000000000000000000000000000000000000000000000815260040161116d90614b1c565b60405180910390fd5b80915050919050565b3373ffffffffffffffffffffffffffffffffffffffff1661119f826110f9565b73ffffffffffffffffffffffffffffffffffffffff16146111f5576040517f08c379a00000000000000000000000000000000000000000000000000000000081526004016111ec90614bae565b60405180910390fd5b6111fe816125de565b50565b600061120d8333610a64565b90506001151581151514611256576040517f08c379a000000000000000000000000000000000000000000000000000000000815260040161124d90614c40565b60405180910390fd5b60006101f5600081548092919061126c906148d2565b91905055905061127c3382612627565b6112868184612645565b6101f860003373ffffffffffffffffffffffffffffffffffffffff1673ffffffffffffffffffffffffffffffffffffffff16815260200190815260200160002060016101f860003373ffffffffffffffffffffffffffffffffffffffff1673ffffffffffffffffffffffffffffffffffffffff168152602001908152602001600020805490506113169190614c60565b8154811061132757611326614874565b5b906000526020600020016101f860003373ffffffffffffffffffffffffffffffffffffffff1673ffffffffffffffffffffffffffffffffffffffff16815260200190815260200160002061137b863361174e565b8154811061138c5761138b614874565b5b9060005260206000200190816113a29190614e6b565b506101f860003373ffffffffffffffffffffffffffffffffffffffff1673ffffffffffffffffffffffffffffffffffffffff1681526020019081526020016000208054806113f3576113f2614f53565b5b60019003818190600052602060002001600061140f9190613c6f565b905550505050565b60008073ffffffffffffffffffffffffffffffffffffffff168273ffffffffffffffffffffffffffffffffffffffff1603611487576040517f08c379a000000000000000000000000000000000000000000000000000000000815260040161147e90614ff4565b60405180910390fd5b606860008373ffffffffffffffffffffffffffffffffffffffff1673ffffffffffffffffffffffffffffffffffffffff168152602001908152602001600020549050919050565b6114d66124fd565b6114e060006126e9565b565b60008060019054906101000a900460ff161590508080156115135750600160008054906101000a900460ff1660ff16105b806115405750611522306127b1565b15801561153f5750600160008054906101000a900460ff1660ff16145b5b61157f576040517f08c379a000000000000000000000000000000000000000000000000000000000815260040161157690615086565b60405180910390fd5b60016000806101000a81548160ff021916908360ff16021790555080156115bc576001600060016101000a81548160ff0219169083151502179055505b6116306040518060400160405280600781526020017f5572756b4e4654000000000000000000000000000000000000000000000000008152506040518060400160405280600481526020017f5552554b000000000000000000000000000000000000000000000000000000008152506127d4565b611638612831565b611640612882565b6116486128db565b611650612934565b611658612985565b336101f760006101000a81548173ffffffffffffffffffffffffffffffffffffffff021916908373ffffffffffffffffffffffffffffffffffffffff1602179055506040518060400160405280600d81526020017f62617365555249666f724e4f57000000000000000000000000000000000000008152506101f690816116df91906150a6565b5080156117395760008060016101000a81548160ff0219169083151502179055507f7f26b83ff96e1f2b6a682f133852f6798a09c465da95921460cefb3847402498600160405161173091906151c0565b60405180910390a15b50565b6117446124fd565b61174c6129d6565b565b600080600090505b6101f860008473ffffffffffffffffffffffffffffffffffffffff1673ffffffffffffffffffffffffffffffffffffffff168152602001908152602001600020805490508110156118bd5760006101f860008573ffffffffffffffffffffffffffffffffffffffff1673ffffffffffffffffffffffffffffffffffffffff16815260200190815260200160002082815481106117f5576117f4614874565b5b90600052602060002001805461180a9061468d565b80601f01602080910402602001604051908101604052809291908181526020018280546118369061468d565b80156118835780601f1061185857610100808354040283529160200191611883565b820191906000526020600020905b81548152906001019060200180831161186657829003601f168201915b5050505050905084805190602001208180519060200120036118a95781925050506118f9565b5080806118b5906148d2565b915050611756565b506040517f08c379a00000000000000000000000000000000000000000000000000000000081526004016118f090615227565b60405180910390fd5b92915050565b600061012d60009054906101000a900473ffffffffffffffffffffffffffffffffffffffff16905090565b6119326124fd565b60056101f860008373ffffffffffffffffffffffffffffffffffffffff1673ffffffffffffffffffffffffffffffffffffffff1681526020019081526020016000208054905011156119b9576040517f08c379a00000000000000000000000000000000000000000000000000000000081526004016119b0906152df565b60405180910390fd5b60006119c58383610a64565b90506000151581151514611a0e576040517f08c379a0000000000000000000000000000000000000000000000000000000008152600401611a0590615371565b60405180910390fd5b6101f860008373ffffffffffffffffffffffffffffffffffffffff1673ffffffffffffffffffffffffffffffffffffffff16815260200190815260200160002083908060018154018082558091505060019003906000526020600020016000909190919091509081611a8091906150a6565b50505050565b606060668054611a959061468d565b80601f0160208091040260200160405190810160405280929190818152602001828054611ac19061468d565b8015611b0e5780601f10611ae357610100808354040283529160200191611b0e565b820191906000526020600020905b815481529060010190602001808311611af157829003601f168201915b5050505050905090565b611b206124fd565b806101f69081611b3091906150a6565b5050565b611b46611b3f611ede565b8383612a39565b5050565b611b5b611b55611ede565b83611f9f565b611b9a576040517f08c379a0000000000000000000000000000000000000000000000000000000008152600401611b9190614854565b60405180910390fd5b611ba684848484612ba5565b50505050565b6060611bb782612c01565b9050919050565b6000611bc86124fd565b60006101f56000815480929190611bde906148d2565b919050559050611bee8482612627565b611bf88184612645565b8091505092915050565b60606101f860008373ffffffffffffffffffffffffffffffffffffffff1673ffffffffffffffffffffffffffffffffffffffff168152602001908152602001600020805480602002602001604051908101604052809291908181526020016000905b82821015611d10578382906000526020600020018054611c839061468d565b80601f0160208091040260200160405190810160405280929190818152602001828054611caf9061468d565b8015611cfc5780601f10611cd157610100808354040283529160200191611cfc565b820191906000526020600020905b815481529060010190602001808311611cdf57829003601f168201915b505050505081526020019060010190611c64565b505050509050919050565b6000606a60008473ffffffffffffffffffffffffffffffffffffffff1673ffffffffffffffffffffffffffffffffffffffff16815260200190815260200160002060008373ffffffffffffffffffffffffffffffffffffffff1673ffffffffffffffffffffffffffffffffffffffff16815260200190815260200160002060009054906101000a900460ff16905092915050565b611db76124fd565b600073ffffffffffffffffffffffffffffffffffffffff168173ffffffffffffffffffffffffffffffffffffffff1603611e26576040517f08c379a0000000000000000000000000000000000000000000000000000000008152600401611e1d90615403565b60405180910390fd5b611e2f816126e9565b50565b6000634906490660e01b7bffffffffffffffffffffffffffffffffffffffffffffffffffffffff1916827bffffffffffffffffffffffffffffffffffffffffffffffffffffffff19161480611e8c5750611e8b82612d13565b5b9050919050565b611e9c81612df5565b611edb576040517f08c379a0000000000000000000000000000000000000000000000000000000008152600401611ed290614b1c565b60405180910390fd5b50565b600033905090565b816069600083815260200190815260200160002060006101000a81548173ffffffffffffffffffffffffffffffffffffffff021916908373ffffffffffffffffffffffffffffffffffffffff160217905550808273ffffffffffffffffffffffffffffffffffffffff16611f59836110f9565b73ffffffffffffffffffffffffffffffffffffffff167f8c5be1e5ebec7d5bd14f71427d1e84f3dd0314c0f7b2291e5b200ac8c7c3b92560405160405180910390a45050565b600080611fab836110f9565b90508073ffffffffffffffffffffffffffffffffffffffff168473ffffffffffffffffffffffffffffffffffffffff161480611fed5750611fec8185611d1b565b5b8061202b57508373ffffffffffffffffffffffffffffffffffffffff16612013846108a7565b73ffffffffffffffffffffffffffffffffffffffff16145b91505092915050565b8273ffffffffffffffffffffffffffffffffffffffff16612054826110f9565b73ffffffffffffffffffffffffffffffffffffffff16146120aa576040517f08c379a00000000000000000000000000000000000000000000000000000000081526004016120a190615495565b60405180910390fd5b600073ffffffffffffffffffffffffffffffffffffffff168273ffffffffffffffffffffffffffffffffffffffff1603612119576040517f08c379a000000000000000000000000000000000000000000000000000000000815260040161211090615527565b60405180910390fd5b6121268383836001612e36565b8273ffffffffffffffffffffffffffffffffffffffff16612146826110f9565b73ffffffffffffffffffffffffffffffffffffffff161461219c576040517f08c379a000000000000000000000000000000000000000000000000000000000815260040161219390615495565b60405180910390fd5b6069600082815260200190815260200160002060006101000a81549073ffffffffffffffffffffffffffffffffffffffff02191690556001606860008573ffffffffffffffffffffffffffffffffffffffff1673ffffffffffffffffffffffffffffffffffffffff168152602001908152602001600020600082825403925050819055506001606860008473ffffffffffffffffffffffffffffffffffffffff1673ffffffffffffffffffffffffffffffffffffffff16815260200190815260200160002060008282540192505081905550816067600083815260200190815260200160002060006101000a81548173ffffffffffffffffffffffffffffffffffffffff021916908373ffffffffffffffffffffffffffffffffffffffff160217905550808273ffffffffffffffffffffffffffffffffffffffff168473ffffffffffffffffffffffffffffffffffffffff167fddf252ad1be2c89b69c2b068fc378daa952ba7f163c4a11628f55a4df523b3ef60405160405180910390a46123288383836001612e50565b505050565b600061235b7f360894a13ba1a3210667c828492db98dca3e2076cc3735a920a3ca505d382bbc60001b612e56565b60000160009054906101000a900473ffffffffffffffffffffffffffffffffffffffff16905090565b61238c6124fd565b50565b6123bb7f4910fdfa16fed3260ed0e7147f7cc6da11a60208b5b9406d12a635614ffd914360001b612e60565b60000160009054906101000a900460ff16156123df576123da83612e6a565b6124f8565b8273ffffffffffffffffffffffffffffffffffffffff166352d1902d6040518163ffffffff1660e01b8152600401602060405180830381865afa92505050801561244757506040513d601f19601f820116820180604052508101906124449190615573565b60015b612486576040517f08c379a000000000000000000000000000000000000000000000000000000000815260040161247d90615612565b60405180910390fd5b7f360894a13ba1a3210667c828492db98dca3e2076cc3735a920a3ca505d382bbc60001b81146124eb576040517f08c379a00000000000000000000000000000000000000000000000000000000081526004016124e2906156a4565b60405180910390fd5b506124f7838383612f23565b5b505050565b612505611ede565b73ffffffffffffffffffffffffffffffffffffffff166125236118ff565b73ffffffffffffffffffffffffffffffffffffffff1614612579576040517f08c379a000000000000000000000000000000000000000000000000000000000815260040161257090615710565b60405180910390fd5b565b612583612f4f565b600060c960006101000a81548160ff0219169083151502179055507f5db9ee0a495bf2e6ff9c91a7834c1ba4fdd244a5e8aa4e537bd38aeae4b073aa6125c7611ede565b6040516125d49190613ef1565b60405180910390a1565b6125e781612f98565b50565b60006067600083815260200190815260200160002060009054906101000a900473ffffffffffffffffffffffffffffffffffffffff169050919050565b612641828260405180602001604052806000815250612feb565b5050565b61264e82612df5565b61268d576040517f08c379a0000000000000000000000000000000000000000000000000000000008152600401612684906157a2565b60405180910390fd5b806097600084815260200190815260200160002090816126ad91906150a6565b507ff8e1a15aba9398e019f0b49df1a4fde98ee17ae345cb5f6b5e2c27f5033e8ce7826040516126dd9190614341565b60405180910390a15050565b600061012d60009054906101000a900473ffffffffffffffffffffffffffffffffffffffff1690508161012d60006101000a81548173ffffffffffffffffffffffffffffffffffffffff021916908373ffffffffffffffffffffffffffffffffffffffff1602179055508173ffffffffffffffffffffffffffffffffffffffff168173ffffffffffffffffffffffffffffffffffffffff167f8be0079c531659141344cd1fd0a4f28419497f9722a3daafe3b4186f6b6457e060405160405180910390a35050565b6000808273ffffffffffffffffffffffffffffffffffffffff163b119050919050565b600060019054906101000a900460ff16612823576040517f08c379a000000000000000000000000000000000000000000000000000000000815260040161281a90615834565b60405180910390fd5b61282d8282613046565b5050565b600060019054906101000a900460ff16612880576040517f08c379a000000000000000000000000000000000000000000000000000000000815260040161287790615834565b60405180910390fd5b565b600060019054906101000a900460ff166128d1576040517f08c379a00000000000000000000000000000000000000000000000000000000081526004016128c890615834565b60405180910390fd5b6128d96130b9565b565b600060019054906101000a900460ff1661292a576040517f08c379a000000000000000000000000000000000000000000000000000000000815260040161292190615834565b60405180910390fd5b612932613125565b565b600060019054906101000a900460ff16612983576040517f08c379a000000000000000000000000000000000000000000000000000000000815260040161297a90615834565b60405180910390fd5b565b600060019054906101000a900460ff166129d4576040517f08c379a00000000000000000000000000000000000000000000000000000000081526004016129cb90615834565b60405180910390fd5b565b6129de613186565b600160c960006101000a81548160ff0219169083151502179055507f62e78cea01bee320cd4e420270b5ea74000d11b0c9f74754ebdbfc544b05a258612a22611ede565b604051612a2f9190613ef1565b60405180910390a1565b8173ffffffffffffffffffffffffffffffffffffffff168373ffffffffffffffffffffffffffffffffffffffff1603612aa7576040517f08c379a0000000000000000000000000000000000000000000000000000000008152600401612a9e906158a0565b60405180910390fd5b80606a60008573ffffffffffffffffffffffffffffffffffffffff1673ffffffffffffffffffffffffffffffffffffffff16815260200190815260200160002060008473ffffffffffffffffffffffffffffffffffffffff1673ffffffffffffffffffffffffffffffffffffffff16815260200190815260200160002060006101000a81548160ff0219169083151502179055508173ffffffffffffffffffffffffffffffffffffffff168373ffffffffffffffffffffffffffffffffffffffff167f17307eab39ab6107e8899845ad3d59bd9653f200f220920489ca2b5937696c3183604051612b989190613d80565b60405180910390a3505050565b612bb0848484612034565b612bbc848484846131d0565b612bfb576040517f08c379a0000000000000000000000000000000000000000000000000000000008152600401612bf290615932565b60405180910390fd5b50505050565b6060612c0c82611e93565b6000609760008481526020019081526020016000208054612c2c9061468d565b80601f0160208091040260200160405190810160405280929190818152602001828054612c589061468d565b8015612ca55780601f10612c7a57610100808354040283529160200191612ca5565b820191906000526020600020905b815481529060010190602001808311612c8857829003601f168201915b505050505090506000612cb6613357565b90506000815103612ccb578192505050612d0e565b600082511115612d00578082604051602001612ce892919061598e565b60405160208183030381529060405292505050612d0e565b612d09846133ea565b925050505b919050565b60007f80ac58cd000000000000000000000000000000000000000000000000000000007bffffffffffffffffffffffffffffffffffffffffffffffffffffffff1916827bffffffffffffffffffffffffffffffffffffffffffffffffffffffff19161480612dde57507f5b5e139f000000000000000000000000000000000000000000000000000000007bffffffffffffffffffffffffffffffffffffffffffffffffffffffff1916827bffffffffffffffffffffffffffffffffffffffffffffffffffffffff1916145b80612dee5750612ded82613452565b5b9050919050565b60008073ffffffffffffffffffffffffffffffffffffffff16612e17836125ea565b73ffffffffffffffffffffffffffffffffffffffff1614159050919050565b612e3e613186565b612e4a848484846134bc565b50505050565b50505050565b6000819050919050565b6000819050919050565b612e73816127b1565b612eb2576040517f08c379a0000000000000000000000000000000000000000000000000000000008152600401612ea990615a24565b60405180910390fd5b80612edf7f360894a13ba1a3210667c828492db98dca3e2076cc3735a920a3ca505d382bbc60001b612e56565b60000160006101000a81548173ffffffffffffffffffffffffffffffffffffffff021916908373ffffffffffffffffffffffffffffffffffffffff16021790555050565b612f2c83613516565b600082511180612f395750805b15612f4a57612f488383613565565b505b505050565b612f576110e2565b612f96576040517f08c379a0000000000000000000000000000000000000000000000000000000008152600401612f8d90615a90565b60405180910390fd5b565b612fa181613592565b6000609760008381526020019081526020016000208054612fc19061468d565b905014612fe857609760008281526020019081526020016000206000612fe79190613c6f565b5b50565b612ff583836136e0565b61300260008484846131d0565b613041576040517f08c379a000000000000000000000000000000000000000000000000000000000815260040161303890615932565b60405180910390fd5b505050565b600060019054906101000a900460ff16613095576040517f08c379a000000000000000000000000000000000000000000000000000000000815260040161308c90615834565b60405180910390fd5b81606590816130a491906150a6565b5080606690816130b491906150a6565b505050565b600060019054906101000a900460ff16613108576040517f08c379a00000000000000000000000000000000000000000000000000000000081526004016130ff90615834565b60405180910390fd5b600060c960006101000a81548160ff021916908315150217905550565b600060019054906101000a900460ff16613174576040517f08c379a000000000000000000000000000000000000000000000000000000000815260040161316b90615834565b60405180910390fd5b61318461317f611ede565b6126e9565b565b61318e6110e2565b156131ce576040517f08c379a00000000000000000000000000000000000000000000000000000000081526004016131c590615afc565b60405180910390fd5b565b60006131f18473ffffffffffffffffffffffffffffffffffffffff166127b1565b1561334a578373ffffffffffffffffffffffffffffffffffffffff1663150b7a0261321a611ede565b8786866040518563ffffffff1660e01b815260040161323c9493929190615b71565b6020604051808303816000875af192505050801561327857506040513d601f19601f820116820180604052508101906132759190615bd2565b60015b6132fa573d80600081146132a8576040519150601f19603f3d011682016040523d82523d6000602084013e6132ad565b606091505b5060008151036132f2576040517f08c379a00000000000000000000000000000000000000000000000000000000081526004016132e990615932565b60405180910390fd5b805181602001fd5b63150b7a0260e01b7bffffffffffffffffffffffffffffffffffffffffffffffffffffffff1916817bffffffffffffffffffffffffffffffffffffffffffffffffffffffff19161491505061334f565b600190505b949350505050565b60606101f680546133679061468d565b80601f01602080910402602001604051908101604052809291908181526020018280546133939061468d565b80156133e05780601f106133b5576101008083540402835291602001916133e0565b820191906000526020600020905b8154815290600101906020018083116133c357829003601f168201915b5050505050905090565b60606133f582611e93565b60006133ff613357565b9050600081511161341f576040518060200160405280600081525061344a565b80613429846138fd565b60405160200161343a92919061598e565b6040516020818303038152906040525b915050919050565b60007f01ffc9a7000000000000000000000000000000000000000000000000000000007bffffffffffffffffffffffffffffffffffffffffffffffffffffffff1916827bffffffffffffffffffffffffffffffffffffffffffffffffffffffff1916149050919050565b6134c8848484846139cb565b6134d06110e2565b15613510576040517f08c379a000000000000000000000000000000000000000000000000000000000815260040161350790615c71565b60405180910390fd5b50505050565b61351f81612e6a565b8073ffffffffffffffffffffffffffffffffffffffff167fbc7cd75a20ee27fd9adebab32041f755214dbc6bffa90cc0225b39da2e5c2d3b60405160405180910390a250565b606061358a8383604051806060016040528060278152602001615e58602791396139d1565b905092915050565b600061359d826110f9565b90506135ad816000846001612e36565b6135b6826110f9565b90506069600083815260200190815260200160002060006101000a81549073ffffffffffffffffffffffffffffffffffffffff02191690556001606860008373ffffffffffffffffffffffffffffffffffffffff1673ffffffffffffffffffffffffffffffffffffffff168152602001908152602001600020600082825403925050819055506067600083815260200190815260200160002060006101000a81549073ffffffffffffffffffffffffffffffffffffffff021916905581600073ffffffffffffffffffffffffffffffffffffffff168273ffffffffffffffffffffffffffffffffffffffff167fddf252ad1be2c89b69c2b068fc378daa952ba7f163c4a11628f55a4df523b3ef60405160405180910390a46136dc816000846001612e50565b5050565b600073ffffffffffffffffffffffffffffffffffffffff168273ffffffffffffffffffffffffffffffffffffffff160361374f576040517f08c379a000000000000000000000000000000000000000000000000000000000815260040161374690615cdd565b60405180910390fd5b61375881612df5565b15613798576040517f08c379a000000000000000000000000000000000000000000000000000000000815260040161378f90615d49565b60405180910390fd5b6137a6600083836001612e36565b6137af81612df5565b156137ef576040517f08c379a00000000000000000000000000000000000000000000000000000000081526004016137e690615d49565b60405180910390fd5b6001606860008473ffffffffffffffffffffffffffffffffffffffff1673ffffffffffffffffffffffffffffffffffffffff16815260200190815260200160002060008282540192505081905550816067600083815260200190815260200160002060006101000a81548173ffffffffffffffffffffffffffffffffffffffff021916908373ffffffffffffffffffffffffffffffffffffffff160217905550808273ffffffffffffffffffffffffffffffffffffffff16600073ffffffffffffffffffffffffffffffffffffffff167fddf252ad1be2c89b69c2b068fc378daa952ba7f163c4a11628f55a4df523b3ef60405160405180910390a46138f9600083836001612e50565b5050565b60606000600161390c84613a57565b01905060008167ffffffffffffffff81111561392b5761392a613fd5565b5b6040519080825280601f01601f19166020018201604052801561395d5781602001600182028036833780820191505090505b509050600082602001820190505b6001156139c0578080600190039150507f3031323334353637383961626364656600000000000000000000000000000000600a86061a8153600a85816139b4576139b3615d69565b5b0494506000850361396b575b819350505050919050565b50505050565b60606000808573ffffffffffffffffffffffffffffffffffffffff16856040516139fb9190615dd4565b600060405180830381855af49150503d8060008114613a36576040519150601f19603f3d011682016040523d82523d6000602084013e613a3b565b606091505b5091509150613a4c86838387613baa565b925050509392505050565b600080600090507a184f03e93ff9f4daa797ed6e38ed64bf6a1f0100000000000000008310613ab5577a184f03e93ff9f4daa797ed6e38ed64bf6a1f0100000000000000008381613aab57613aaa615d69565b5b0492506040810190505b6d04ee2d6d415b85acef81000000008310613af2576d04ee2d6d415b85acef81000000008381613ae857613ae7615d69565b5b0492506020810190505b662386f26fc100008310613b2157662386f26fc100008381613b1757613b16615d69565b5b0492506010810190505b6305f5e1008310613b4a576305f5e1008381613b4057613b3f615d69565b5b0492506008810190505b6127108310613b6f576127108381613b6557613b64615d69565b5b0492506004810190505b60648310613b925760648381613b8857613b87615d69565b5b0492506002810190505b600a8310613ba1576001810190505b80915050919050565b60608315613c0c576000835103613c0457613bc4856127b1565b613c03576040517f08c379a0000000000000000000000000000000000000000000000000000000008152600401613bfa90615e37565b60405180910390fd5b5b829050613c17565b613c168383613c1f565b5b949350505050565b600082511115613c325781518083602001fd5b806040517f08c379a0000000000000000000000000000000000000000000000000000000008152600401613c669190613e2b565b60405180910390fd5b508054613c7b9061468d565b6000825580601f10613c8d5750613cac565b601f016020900490600052602060002090810190613cab9190613caf565b5b50565b5b80821115613cc8576000816000905550600101613cb0565b5090565b6000604051905090565b600080fd5b600080fd5b60007fffffffff0000000000000000000000000000000000000000000000000000000082169050919050565b613d1581613ce0565b8114613d2057600080fd5b50565b600081359050613d3281613d0c565b92915050565b600060208284031215613d4e57613d4d613cd6565b5b6000613d5c84828501613d23565b91505092915050565b60008115159050919050565b613d7a81613d65565b82525050565b6000602082019050613d956000830184613d71565b92915050565b600081519050919050565b600082825260208201905092915050565b60005b83811015613dd5578082015181840152602081019050613dba565b60008484015250505050565b6000601f19601f8301169050919050565b6000613dfd82613d9b565b613e078185613da6565b9350613e17818560208601613db7565b613e2081613de1565b840191505092915050565b60006020820190508181036000830152613e458184613df2565b905092915050565b6000819050919050565b613e6081613e4d565b8114613e6b57600080fd5b50565b600081359050613e7d81613e57565b92915050565b600060208284031215613e9957613e98613cd6565b5b6000613ea784828501613e6e565b91505092915050565b600073ffffffffffffffffffffffffffffffffffffffff82169050919050565b6000613edb82613eb0565b9050919050565b613eeb81613ed0565b82525050565b6000602082019050613f066000830184613ee2565b92915050565b613f1581613ed0565b8114613f2057600080fd5b50565b600081359050613f3281613f0c565b92915050565b60008060408385031215613f4f57613f4e613cd6565b5b6000613f5d85828601613f23565b9250506020613f6e85828601613e6e565b9150509250929050565b600080600060608486031215613f9157613f90613cd6565b5b6000613f9f86828701613f23565b9350506020613fb086828701613f23565b9250506040613fc186828701613e6e565b9150509250925092565b600080fd5b600080fd5b7f4e487b7100000000000000000000000000000000000000000000000000000000600052604160045260246000fd5b61400d82613de1565b810181811067ffffffffffffffff8211171561402c5761402b613fd5565b5b80604052505050565b600061403f613ccc565b905061404b8282614004565b919050565b600067ffffffffffffffff82111561406b5761406a613fd5565b5b61407482613de1565b9050602081019050919050565b82818337600083830152505050565b60006140a361409e84614050565b614035565b9050828152602081018484840111156140bf576140be613fd0565b5b6140ca848285614081565b509392505050565b600082601f8301126140e7576140e6613fcb565b5b81356140f7848260208601614090565b91505092915050565b6000806040838503121561411757614116613cd6565b5b600083013567ffffffffffffffff81111561413557614134613cdb565b5b614141858286016140d2565b925050602061415285828601613f23565b9150509250929050565b60006020828403121561417257614171613cd6565b5b600061418084828501613f23565b91505092915050565b600067ffffffffffffffff8211156141a4576141a3613fd5565b5b6141ad82613de1565b9050602081019050919050565b60006141cd6141c884614189565b614035565b9050828152602081018484840111156141e9576141e8613fd0565b5b6141f4848285614081565b509392505050565b600082601f83011261421157614210613fcb565b5b81356142218482602086016141ba565b91505092915050565b6000806040838503121561424157614240613cd6565b5b600061424f85828601613f23565b925050602083013567ffffffffffffffff8111156142705761426f613cdb565b5b61427c858286016141fc565b9150509250929050565b6000819050919050565b61429981614286565b82525050565b60006020820190506142b46000830184614290565b92915050565b600080604083850312156142d1576142d0613cd6565b5b600083013567ffffffffffffffff8111156142ef576142ee613cdb565b5b6142fb858286016140d2565b925050602083013567ffffffffffffffff81111561431c5761431b613cdb565b5b614328858286016140d2565b9150509250929050565b61433b81613e4d565b82525050565b60006020820190506143566000830184614332565b92915050565b60006020828403121561437257614371613cd6565b5b600082013567ffffffffffffffff8111156143905761438f613cdb565b5b61439c848285016140d2565b91505092915050565b6143ae81613d65565b81146143b957600080fd5b50565b6000813590506143cb816143a5565b92915050565b600080604083850312156143e8576143e7613cd6565b5b60006143f685828601613f23565b9250506020614407858286016143bc565b9150509250929050565b6000806000806080858703121561442b5761442a613cd6565b5b600061443987828801613f23565b945050602061444a87828801613f23565b935050604061445b87828801613e6e565b925050606085013567ffffffffffffffff81111561447c5761447b613cdb565b5b614488878288016141fc565b91505092959194509250565b600080604083850312156144ab576144aa613cd6565b5b60006144b985828601613f23565b925050602083013567ffffffffffffffff8111156144da576144d9613cdb565b5b6144e6858286016140d2565b9150509250929050565b600081519050919050565b600082825260208201905092915050565b6000819050602082019050919050565b600082825260208201905092915050565b600061453882613d9b565b614542818561451c565b9350614552818560208601613db7565b61455b81613de1565b840191505092915050565b6000614572838361452d565b905092915050565b6000602082019050919050565b6000614592826144f0565b61459c81856144fb565b9350836020820285016145ae8561450c565b8060005b858110156145ea57848403895281516145cb8582614566565b94506145d68361457a565b925060208a019950506001810190506145b2565b50829750879550505050505092915050565b600060208201905081810360008301526146168184614587565b905092915050565b6000806040838503121561463557614634613cd6565b5b600061464385828601613f23565b925050602061465485828601613f23565b9150509250929050565b7f4e487b7100000000000000000000000000000000000000000000000000000000600052602260045260246000fd5b600060028204905060018216806146a557607f821691505b6020821081036146b8576146b761465e565b5b50919050565b7f4552433732313a20617070726f76616c20746f2063757272656e74206f776e6560008201527f7200000000000000000000000000000000000000000000000000000000000000602082015250565b600061471a602183613da6565b9150614725826146be565b604082019050919050565b600060208201905081810360008301526147498161470d565b9050919050565b7f4552433732313a20617070726f76652063616c6c6572206973206e6f7420746f60008201527f6b656e206f776e6572206f7220617070726f76656420666f7220616c6c000000602082015250565b60006147ac603d83613da6565b91506147b782614750565b604082019050919050565b600060208201905081810360008301526147db8161479f565b9050919050565b7f4552433732313a2063616c6c6572206973206e6f7420746f6b656e206f776e6560008201527f72206f7220617070726f76656400000000000000000000000000000000000000602082015250565b600061483e602d83613da6565b9150614849826147e2565b604082019050919050565b6000602082019050818103600083015261486d81614831565b9050919050565b7f4e487b7100000000000000000000000000000000000000000000000000000000600052603260045260246000fd5b7f4e487b7100000000000000000000000000000000000000000000000000000000600052601160045260246000fd5b60006148dd82613e4d565b91507fffffffffffffffffffffffffffffffffffffffffffffffffffffffffffffffff820361490f5761490e6148a3565b5b600182019050919050565b7f46756e6374696f6e206d7573742062652063616c6c6564207468726f7567682060008201527f64656c656761746563616c6c0000000000000000000000000000000000000000602082015250565b6000614976602c83613da6565b91506149818261491a565b604082019050919050565b600060208201905081810360008301526149a581614969565b9050919050565b7f46756e6374696f6e206d7573742062652063616c6c6564207468726f7567682060008201527f6163746976652070726f78790000000000000000000000000000000000000000602082015250565b6000614a08602c83613da6565b9150614a13826149ac565b604082019050919050565b60006020820190508181036000830152614a37816149fb565b9050919050565b7f555550535570677261646561626c653a206d757374206e6f742062652063616c60008201527f6c6564207468726f7567682064656c656761746563616c6c0000000000000000602082015250565b6000614a9a603883613da6565b9150614aa582614a3e565b604082019050919050565b60006020820190508181036000830152614ac981614a8d565b9050919050565b7f4552433732313a20696e76616c696420746f6b656e2049440000000000000000600082015250565b6000614b06601883613da6565b9150614b1182614ad0565b602082019050919050565b60006020820190508181036000830152614b3581614af9565b9050919050565b7f596f7520617265206e6f7420746865206f776e6572206f662074686520746f6b60008201527f656e000000000000000000000000000000000000000000000000000000000000602082015250565b6000614b98602283613da6565b9150614ba382614b3c565b604082019050919050565b60006020820190508181036000830152614bc781614b8b565b9050919050565b7f596f7520646f206e6f742068617665207065726d697373696f6e20746f206d6960008201527f6e742074686973206974656d0000000000000000000000000000000000000000602082015250565b6000614c2a602c83613da6565b9150614c3582614bce565b604082019050919050565b60006020820190508181036000830152614c5981614c1d565b9050919050565b6000614c6b82613e4d565b9150614c7683613e4d565b9250828203905081811115614c8e57614c8d6148a3565b5b92915050565b600081549050614ca38161468d565b9050919050565b60008190508160005260206000209050919050565b60008190508160005260206000209050919050565b60006020601f8301049050919050565b600082821b905092915050565b600060088302614d217fffffffffffffffffffffffffffffffffffffffffffffffffffffffffffffffff82614ce4565b614d2b8683614ce4565b95508019841693508086168417925050509392505050565b6000819050919050565b6000614d68614d63614d5e84613e4d565b614d43565b613e4d565b9050919050565b6000819050919050565b614d8283614d4d565b614d96614d8e82614d6f565b848454614cf1565b825550505050565b600090565b614dab614d9e565b614db6818484614d79565b505050565b5b81811015614dda57614dcf600082614da3565b600181019050614dbc565b5050565b601f821115614e1f57614df081614caa565b614df984614cd4565b81016020851015614e08578190505b614e1c614e1485614cd4565b830182614dbb565b50505b505050565b600082821c905092915050565b6000614e4260001984600802614e24565b1980831691505092915050565b6000614e5b8383614e31565b9150826002028217905092915050565b818103614e79575050614f51565b614e8282614c94565b67ffffffffffffffff811115614e9b57614e9a613fd5565b5b614ea5825461468d565b614eb0828285614dde565b6000601f831160018114614edf5760008415614ecd578287015490505b614ed78582614e4f565b865550614f4a565b601f198416614eed87614cbf565b9650614ef886614caa565b60005b82811015614f2057848901548255600182019150600185019450602081019050614efb565b86831015614f3d5784890154614f39601f891682614e31565b8355505b6001600288020188555050505b5050505050505b565b7f4e487b7100000000000000000000000000000000000000000000000000000000600052603160045260246000fd5b7f4552433732313a2061646472657373207a65726f206973206e6f74206120766160008201527f6c6964206f776e65720000000000000000000000000000000000000000000000602082015250565b6000614fde602983613da6565b9150614fe982614f82565b604082019050919050565b6000602082019050818103600083015261500d81614fd1565b9050919050565b7f496e697469616c697a61626c653a20636f6e747261637420697320616c72656160008201527f647920696e697469616c697a6564000000000000000000000000000000000000602082015250565b6000615070602e83613da6565b915061507b82615014565b604082019050919050565b6000602082019050818103600083015261509f81615063565b9050919050565b6150af82613d9b565b67ffffffffffffffff8111156150c8576150c7613fd5565b5b6150d2825461468d565b6150dd828285614dde565b600060209050601f83116001811461511057600084156150fe578287015190505b6151088582614e4f565b865550615170565b601f19841661511e86614caa565b60005b8281101561514657848901518255600182019150602085019450602081019050615121565b86831015615163578489015161515f601f891682614e31565b8355505b6001600288020188555050505b505050505050565b6000819050919050565b600060ff82169050919050565b60006151aa6151a56151a084615178565b614d43565b615182565b9050919050565b6151ba8161518f565b82525050565b60006020820190506151d560008301846151b1565b92915050565b7f57686974656c6973746564206974656d20646f6573206e6f7420657869737400600082015250565b6000615211601f83613da6565b915061521c826151db565b602082019050919050565b6000602082019050818103600083015261524081615204565b9050919050565b7f5573657220686173206d6f7265207468616e20352070656e64696e6720636c6160008201527f696d732e2048617320746f20636c61696d207468656d206265666f726520707260208201527f6f63656564696e672e0000000000000000000000000000000000000000000000604082015250565b60006152c9604983613da6565b91506152d482615247565b606082019050919050565b600060208201905081810360008301526152f8816152bc565b9050919050565b7f54686973206974656d20697320616c726561647920616c6c6f77656420616e6460008201527f20726561647920746f20626520636c61696d6564000000000000000000000000602082015250565b600061535b603483613da6565b9150615366826152ff565b604082019050919050565b6000602082019050818103600083015261538a8161534e565b9050919050565b7f4f776e61626c653a206e6577206f776e657220697320746865207a65726f206160008201527f6464726573730000000000000000000000000000000000000000000000000000602082015250565b60006153ed602683613da6565b91506153f882615391565b604082019050919050565b6000602082019050818103600083015261541c816153e0565b9050919050565b7f4552433732313a207472616e736665722066726f6d20696e636f72726563742060008201527f6f776e6572000000000000000000000000000000000000000000000000000000602082015250565b600061547f602583613da6565b915061548a82615423565b604082019050919050565b600060208201905081810360008301526154ae81615472565b9050919050565b7f4552433732313a207472616e7366657220746f20746865207a65726f2061646460008201527f7265737300000000000000000000000000000000000000000000000000000000602082015250565b6000615511602483613da6565b915061551c826154b5565b604082019050919050565b6000602082019050818103600083015261554081615504565b9050919050565b61555081614286565b811461555b57600080fd5b50565b60008151905061556d81615547565b92915050565b60006020828403121561558957615588613cd6565b5b60006155978482850161555e565b91505092915050565b7f45524331393637557067726164653a206e657720696d706c656d656e7461746960008201527f6f6e206973206e6f742055555053000000000000000000000000000000000000602082015250565b60006155fc602e83613da6565b9150615607826155a0565b604082019050919050565b6000602082019050818103600083015261562b816155ef565b9050919050565b7f45524331393637557067726164653a20756e737570706f727465642070726f7860008201527f6961626c65555549440000000000000000000000000000000000000000000000602082015250565b600061568e602983613da6565b915061569982615632565b604082019050919050565b600060208201905081810360008301526156bd81615681565b9050919050565b7f4f776e61626c653a2063616c6c6572206973206e6f7420746865206f776e6572600082015250565b60006156fa602083613da6565b9150615705826156c4565b602082019050919050565b60006020820190508181036000830152615729816156ed565b9050919050565b7f45524337323155524953746f726167653a2055524920736574206f66206e6f6e60008201527f6578697374656e7420746f6b656e000000000000000000000000000000000000602082015250565b600061578c602e83613da6565b915061579782615730565b604082019050919050565b600060208201905081810360008301526157bb8161577f565b9050919050565b7f496e697469616c697a61626c653a20636f6e7472616374206973206e6f74206960008201527f6e697469616c697a696e67000000000000000000000000000000000000000000602082015250565b600061581e602b83613da6565b9150615829826157c2565b604082019050919050565b6000602082019050818103600083015261584d81615811565b9050919050565b7f4552433732313a20617070726f766520746f2063616c6c657200000000000000600082015250565b600061588a601983613da6565b915061589582615854565b602082019050919050565b600060208201905081810360008301526158b98161587d565b9050919050565b7f4552433732313a207472616e7366657220746f206e6f6e20455243373231526560008201527f63656976657220696d706c656d656e7465720000000000000000000000000000602082015250565b600061591c603283613da6565b9150615927826158c0565b604082019050919050565b6000602082019050818103600083015261594b8161590f565b9050919050565b600081905092915050565b600061596882613d9b565b6159728185615952565b9350615982818560208601613db7565b80840191505092915050565b600061599a828561595d565b91506159a6828461595d565b91508190509392505050565b7f455243313936373a206e657720696d706c656d656e746174696f6e206973206e60008201527f6f74206120636f6e747261637400000000000000000000000000000000000000602082015250565b6000615a0e602d83613da6565b9150615a19826159b2565b604082019050919050565b60006020820190508181036000830152615a3d81615a01565b9050919050565b7f5061757361626c653a206e6f7420706175736564000000000000000000000000600082015250565b6000615a7a601483613da6565b9150615a8582615a44565b602082019050919050565b60006020820190508181036000830152615aa981615a6d565b9050919050565b7f5061757361626c653a2070617573656400000000000000000000000000000000600082015250565b6000615ae6601083613da6565b9150615af182615ab0565b602082019050919050565b60006020820190508181036000830152615b1581615ad9565b9050919050565b600081519050919050565b600082825260208201905092915050565b6000615b4382615b1c565b615b4d8185615b27565b9350615b5d818560208601613db7565b615b6681613de1565b840191505092915050565b6000608082019050615b866000830187613ee2565b615b936020830186613ee2565b615ba06040830185614332565b8181036060830152615bb28184615b38565b905095945050505050565b600081519050615bcc81613d0c565b92915050565b600060208284031215615be857615be7613cd6565b5b6000615bf684828501615bbd565b91505092915050565b7f4552433732315061757361626c653a20746f6b656e207472616e73666572207760008201527f68696c6520706175736564000000000000000000000000000000000000000000602082015250565b6000615c5b602b83613da6565b9150615c6682615bff565b604082019050919050565b60006020820190508181036000830152615c8a81615c4e565b9050919050565b7f4552433732313a206d696e7420746f20746865207a65726f2061646472657373600082015250565b6000615cc7602083613da6565b9150615cd282615c91565b602082019050919050565b60006020820190508181036000830152615cf681615cba565b9050919050565b7f4552433732313a20746f6b656e20616c7265616479206d696e74656400000000600082015250565b6000615d33601c83613da6565b9150615d3e82615cfd565b602082019050919050565b60006020820190508181036000830152615d6281615d26565b9050919050565b7f4e487b7100000000000000000000000000000000000000000000000000000000600052601260045260246000fd5b600081905092915050565b6000615dae82615b1c565b615db88185615d98565b9350615dc8818560208601613db7565b80840191505092915050565b6000615de08284615da3565b915081905092915050565b7f416464726573733a2063616c6c20746f206e6f6e2d636f6e7472616374000000600082015250565b6000615e21601d83613da6565b9150615e2c82615deb565b602082019050919050565b60006020820190508181036000830152615e5081615e14565b905091905056fe416464726573733a206c6f772d6c6576656c2064656c65676174652063616c6c206661696c6564a26469706673582212204369459781a9abbcfffb3887fdce2be2eafd3b90748f240ccb53cec4d706fd6a64736f6c63430008130033",
  "linkReferences": {},
  "deployedLinkReferences": {}
}